{
	"Escrow.sol": {
		"Escrow": {
			"abi": [
				{
					"anonymous": false,
					"inputs": [
						{
							"indexed": true,
							"internalType": "bytes32",
							"name": "storeHash",
							"type": "bytes32"
						},
						{
							"indexed": true,
							"internalType": "address",
							"name": "acceptor",
							"type": "address"
						},
						{
							"indexed": false,
							"internalType": "bytes32",
							"name": "choice",
							"type": "bytes32"
						}
					],
					"name": "BetAccepted",
					"type": "event"
				},
				{
					"anonymous": false,
					"inputs": [
						{
							"indexed": true,
							"internalType": "bytes32",
							"name": "storeHash",
							"type": "bytes32"
						}
					],
					"name": "DrawDeclared",
					"type": "event"
				},
				{
					"anonymous": false,
					"inputs": [
						{
							"indexed": true,
							"internalType": "bytes32",
							"name": "storeHash",
							"type": "bytes32"
						},
						{
							"indexed": true,
							"internalType": "uint256",
							"name": "amount",
							"type": "uint256"
						},
						{
							"indexed": true,
							"internalType": "address",
							"name": "winner",
							"type": "address"
						}
					],
					"name": "ReleasedFunds",
					"type": "event"
				},
				{
					"anonymous": false,
					"inputs": [
						{
							"indexed": true,
							"internalType": "bytes32",
							"name": "storeHash",
							"type": "bytes32"
						},
						{
							"indexed": true,
							"internalType": "address",
							"name": "depositor",
							"type": "address"
						},
						{
							"indexed": false,
							"internalType": "bytes32",
							"name": "identity",
							"type": "bytes32"
						},
						{
							"indexed": false,
							"internalType": "bytes32",
							"name": "matchId",
							"type": "bytes32"
						},
						{
							"indexed": false,
							"internalType": "bytes32",
							"name": "choice",
							"type": "bytes32"
						},
						{
							"indexed": false,
							"internalType": "uint256",
							"name": "amount",
							"type": "uint256"
						}
					],
					"name": "TokensStored",
					"type": "event"
				},
				{
					"inputs": [],
					"name": "CHALLENGER_ROLE",
					"outputs": [
						{
							"internalType": "bytes32",
							"name": "",
							"type": "bytes32"
						}
					],
					"stateMutability": "view",
					"type": "function"
				},
				{
					"inputs": [],
					"name": "PLAYER_ROLE",
					"outputs": [
						{
							"internalType": "bytes32",
							"name": "",
							"type": "bytes32"
						}
					],
					"stateMutability": "view",
					"type": "function"
				},
				{
					"inputs": [
						{
							"internalType": "bytes32",
							"name": "storeHash",
							"type": "bytes32"
						},
						{
							"internalType": "bytes32",
							"name": "choice",
							"type": "bytes32"
						}
					],
					"name": "acceptBet",
					"outputs": [],
					"stateMutability": "payable",
					"type": "function"
				},
				{
					"inputs": [],
					"name": "betCounter",
					"outputs": [
						{
							"internalType": "uint256",
							"name": "",
							"type": "uint256"
						}
					],
					"stateMutability": "view",
					"type": "function"
				},
				{
					"inputs": [
						{
							"internalType": "bytes32",
							"name": "storeHash",
							"type": "bytes32"
						}
					],
					"name": "declareDraw",
					"outputs": [],
					"stateMutability": "nonpayable",
					"type": "function"
				},
				{
					"inputs": [
						{
							"internalType": "bytes32",
							"name": "",
							"type": "bytes32"
						}
					],
					"name": "escrowStorage",
					"outputs": [
						{
							"internalType": "bytes32",
							"name": "matchId",
							"type": "bytes32"
						},
						{
							"internalType": "address",
							"name": "player",
							"type": "address"
						},
						{
							"internalType": "address",
							"name": "challenger",
							"type": "address"
						},
						{
							"internalType": "bytes32",
							"name": "choiceA",
							"type": "bytes32"
						},
						{
							"internalType": "bytes32",
							"name": "choiceB",
							"type": "bytes32"
						},
						{
							"internalType": "uint128",
							"name": "totalAmount",
							"type": "uint128"
						},
						{
							"internalType": "bool",
							"name": "isActive",
							"type": "bool"
						},
						{
							"internalType": "bool",
							"name": "isResolved",
							"type": "bool"
						}
					],
					"stateMutability": "view",
					"type": "function"
				},
				{
					"inputs": [
						{
							"internalType": "bytes32",
							"name": "storeHash",
							"type": "bytes32"
						}
					],
					"name": "getCurrentBalance",
					"outputs": [
						{
							"internalType": "uint256",
							"name": "",
							"type": "uint256"
						}
					],
					"stateMutability": "view",
					"type": "function"
				},
				{
					"inputs": [
						{
							"internalType": "bytes32",
							"name": "storeHash",
							"type": "bytes32"
						},
						{
							"internalType": "address",
							"name": "winner",
							"type": "address"
						}
					],
					"name": "releaseFunds",
					"outputs": [],
					"stateMutability": "nonpayable",
					"type": "function"
				},
				{
					"inputs": [
						{
							"internalType": "bytes32",
							"name": "matchId",
							"type": "bytes32"
						},
						{
							"internalType": "bytes32",
							"name": "choice",
							"type": "bytes32"
						},
						{
							"internalType": "address",
							"name": "acceptor",
							"type": "address"
						}
					],
					"name": "storeTokens",
					"outputs": [],
					"stateMutability": "payable",
					"type": "function"
				}
			],
			"devdoc": {
				"details": "An escrow contract for holding funds between two parties for betting on sports events",
				"kind": "dev",
				"methods": {
					"acceptBet(bytes32,bytes32)": {
						"params": {
							"choice": "The choice of the acceptor (e.g., opposing team)",
							"storeHash": "The unique identifier for the bet"
						}
					},
					"declareDraw(bytes32)": {
						"params": {
							"storeHash": "The unique identifier for this escrow"
						}
					},
					"getCurrentBalance(bytes32)": {
						"params": {
							"storeHash": "The unique identifier for the bet"
						},
						"returns": {
							"_0": "The total amount staked in the bet"
						}
					},
					"releaseFunds(bytes32,address)": {
						"params": {
							"storeHash": "The unique identifier for this escrow",
							"winner": "The address that should receive the funds"
						}
					},
					"storeTokens(bytes32,bytes32,address)": {
						"params": {
							"acceptor": "The address of the intended acceptor",
							"choice": "The choice of the proposer (e.g., team to win)",
							"matchId": "The unique identifier for the match"
						}
					}
				},
				"title": "Escrow",
				"version": 1
			},
			"evm": {
				"assembly": "    /* \"Escrow.sol\":276:6060  contract Escrow is ReentrancyGuard {... */\n  mstore(0x40, 0x80)\n  callvalue\n  dup1\n  iszero\n  tag_1\n  jumpi\n  0x00\n  dup1\n  revert\ntag_1:\n  pop\n    /* \"@openzeppelin/contracts/security/ReentrancyGuard.sol\":1716:1717  1 */\n  0x01\n    /* \"@openzeppelin/contracts/security/ReentrancyGuard.sol\":1821:1828  _status */\n  0x00\n    /* \"@openzeppelin/contracts/security/ReentrancyGuard.sol\":1821:1843  _status = _NOT_ENTERED */\n  sstore\n    /* \"Escrow.sol\":276:6060  contract Escrow is ReentrancyGuard {... */\n  dataSize(sub_0)\n  dup1\n  dataOffset(sub_0)\n  0x00\n  codecopy\n  0x00\n  return\nstop\n\nsub_0: assembly {\n        /* \"Escrow.sol\":276:6060  contract Escrow is ReentrancyGuard {... */\n      mstore(0x40, 0x80)\n      jumpi(tag_1, lt(calldatasize, 0x04))\n      shr(0xe0, calldataload(0x00))\n      dup1\n      0x7d25e89d\n      gt\n      tag_11\n      jumpi\n      dup1\n      0x7d25e89d\n      eq\n      tag_6\n      jumpi\n      dup1\n      0xa0946f92\n      eq\n      tag_7\n      jumpi\n      dup1\n      0xa416f5ab\n      eq\n      tag_8\n      jumpi\n      dup1\n      0xf4aa99df\n      eq\n      tag_9\n      jumpi\n      dup1\n      0xfffc7801\n      eq\n      tag_10\n      jumpi\n      0x00\n      dup1\n      revert\n    tag_11:\n      dup1\n      0x16c30ebc\n      eq\n      tag_2\n      jumpi\n      dup1\n      0x530adbb4\n      eq\n      tag_3\n      jumpi\n      dup1\n      0x56fcb255\n      eq\n      tag_4\n      jumpi\n      dup1\n      0x6d4e0c8e\n      eq\n      tag_5\n      jumpi\n    tag_1:\n      0x00\n      dup1\n      revert\n        /* \"Escrow.sol\":318:375  bytes32 public constant PLAYER_ROLE = keccak256(\"player\") */\n    tag_2:\n      callvalue\n      dup1\n      iszero\n      tag_12\n      jumpi\n      0x00\n      dup1\n      revert\n    tag_12:\n      pop\n      tag_13\n        /* \"Escrow.sol\":356:375  keccak256(\"player\") */\n      0x326d994cdb81aaccb84aa1f62bae636dc0aaf98ab22f66b0c9224f1edccd7cc9\n        /* \"Escrow.sol\":318:375  bytes32 public constant PLAYER_ROLE = keccak256(\"player\") */\n      dup2\n      jump\n    tag_13:\n      mload(0x40)\n        /* \"#utility.yul\":160:185   */\n      swap1\n      dup2\n      mstore\n        /* \"#utility.yul\":148:150   */\n      0x20\n        /* \"#utility.yul\":133:151   */\n      add\n        /* \"Escrow.sol\":318:375  bytes32 public constant PLAYER_ROLE = keccak256(\"player\") */\n    tag_15:\n      mload(0x40)\n      dup1\n      swap2\n      sub\n      swap1\n      return\n        /* \"Escrow.sol\":382:447  bytes32 public constant CHALLENGER_ROLE = keccak256(\"challenger\") */\n    tag_3:\n      callvalue\n      dup1\n      iszero\n      tag_17\n      jumpi\n      0x00\n      dup1\n      revert\n    tag_17:\n      pop\n      tag_13\n        /* \"Escrow.sol\":424:447  keccak256(\"challenger\") */\n      0xae8b6f0f354448b9bed217dcbb6effc6cc52560477cd31206503fbd937f7a378\n        /* \"Escrow.sol\":382:447  bytes32 public constant CHALLENGER_ROLE = keccak256(\"challenger\") */\n      dup2\n      jump\n        /* \"Escrow.sol\":4642:5684  function declareDraw(bytes32 storeHash) external nonReentrant {... */\n    tag_4:\n      callvalue\n      dup1\n      iszero\n      tag_21\n      jumpi\n      0x00\n      dup1\n      revert\n    tag_21:\n      pop\n      tag_22\n      tag_23\n      calldatasize\n      0x04\n      tag_24\n      jump\t// in\n    tag_23:\n      tag_25\n      jump\t// in\n    tag_22:\n      stop\n        /* \"Escrow.sol\":1867:2654  function storeTokens(bytes32 matchId, bytes32 choice, address acceptor) external payable {... */\n    tag_5:\n      tag_22\n      tag_27\n      calldatasize\n      0x04\n      tag_28\n      jump\t// in\n    tag_27:\n      tag_29\n      jump\t// in\n        /* \"Escrow.sol\":3646:4498  function releaseFunds(bytes32 storeHash, address winner) external nonReentrant {... */\n    tag_6:\n      callvalue\n      dup1\n      iszero\n      tag_30\n      jumpi\n      0x00\n      dup1\n      revert\n    tag_30:\n      pop\n      tag_22\n      tag_32\n      calldatasize\n      0x04\n      tag_33\n      jump\t// in\n    tag_32:\n      tag_34\n      jump\t// in\n        /* \"Escrow.sol\":1085:1133  mapping(bytes32 => Storage) public escrowStorage */\n    tag_7:\n      callvalue\n      dup1\n      iszero\n      tag_35\n      jumpi\n      0x00\n      dup1\n      revert\n    tag_35:\n      pop\n      tag_36\n      tag_37\n      calldatasize\n      0x04\n      tag_24\n      jump\t// in\n    tag_37:\n      0x01\n      0x20\n      dup2\n      swap1\n      mstore\n      0x00\n      swap2\n      dup3\n      mstore\n      0x40\n      swap1\n      swap2\n      keccak256\n      dup1\n      sload\n      swap2\n      dup2\n      add\n      sload\n      0x02\n      dup3\n      add\n      sload\n      0x03\n      dup4\n      add\n      sload\n      0x04\n      dup5\n      add\n      sload\n      0x05\n      swap1\n      swap5\n      add\n      sload\n      sub(shl(0xa0, 0x01), 0x01)\n      swap4\n      dup5\n      and\n      swap5\n      swap3\n      swap1\n      swap4\n      and\n      swap3\n      swap1\n      swap2\n      swap1\n      sub(shl(0x80, 0x01), 0x01)\n      dup2\n      and\n      swap1\n      0xff\n      shl(0x80, 0x01)\n      dup3\n      div\n      dup2\n      and\n      swap2\n      shl(0x88, 0x01)\n      swap1\n      div\n      and\n      dup9\n      jump\n    tag_36:\n      0x40\n      dup1\n      mload\n        /* \"#utility.yul\":1666:1691   */\n      swap9\n      dup10\n      mstore\n      sub(shl(0xa0, 0x01), 0x01)\n        /* \"#utility.yul\":1727:1759   */\n      swap8\n      dup9\n      and\n        /* \"#utility.yul\":1722:1724   */\n      0x20\n        /* \"#utility.yul\":1707:1725   */\n      dup11\n      add\n        /* \"#utility.yul\":1700:1760   */\n      mstore\n        /* \"#utility.yul\":1796:1828   */\n      swap6\n      swap1\n      swap7\n      and\n        /* \"#utility.yul\":1776:1794   */\n      swap5\n      dup8\n      add\n        /* \"#utility.yul\":1769:1829   */\n      swap5\n      swap1\n      swap5\n      mstore\n        /* \"#utility.yul\":1860:1862   */\n      0x60\n        /* \"#utility.yul\":1845:1863   */\n      dup7\n      add\n        /* \"#utility.yul\":1838:1872   */\n      swap3\n      swap1\n      swap3\n      mstore\n        /* \"#utility.yul\":1903:1906   */\n      0x80\n        /* \"#utility.yul\":1888:1907   */\n      dup6\n      add\n        /* \"#utility.yul\":1881:1916   */\n      mstore\n      sub(shl(0x80, 0x01), 0x01)\n        /* \"#utility.yul\":1953:2000   */\n      and\n        /* \"#utility.yul\":1747:1750   */\n      0xa0\n        /* \"#utility.yul\":1932:1951   */\n      dup5\n      add\n        /* \"#utility.yul\":1925:2001   */\n      mstore\n        /* \"#utility.yul\":2045:2059   */\n      iszero\n        /* \"#utility.yul\":2038:2060   */\n      iszero\n        /* \"#utility.yul\":2032:2035   */\n      0xc0\n        /* \"#utility.yul\":2017:2036   */\n      dup4\n      add\n        /* \"#utility.yul\":2010:2061   */\n      mstore\n        /* \"#utility.yul\":2105:2119   */\n      iszero\n        /* \"#utility.yul\":2098:2120   */\n      iszero\n        /* \"#utility.yul\":2092:2095   */\n      0xe0\n        /* \"#utility.yul\":2077:2096   */\n      dup3\n      add\n        /* \"#utility.yul\":2070:2121   */\n      mstore\n        /* \"#utility.yul\":1653:1656   */\n      0x0100\n        /* \"#utility.yul\":1638:1657   */\n      add\n        /* \"Escrow.sol\":1085:1133  mapping(bytes32 => Storage) public escrowStorage */\n      tag_15\n        /* \"#utility.yul\":1335:2127   */\n      jump\n        /* \"Escrow.sol\":1140:1165  uint256 public betCounter */\n    tag_8:\n      callvalue\n      dup1\n      iszero\n      tag_41\n      jumpi\n      0x00\n      dup1\n      revert\n    tag_41:\n      pop\n      tag_13\n      sload(0x02)\n      dup2\n      jump\n        /* \"Escrow.sol\":2848:3449  function acceptBet(bytes32 storeHash, bytes32 choice) external payable {... */\n    tag_9:\n      tag_22\n      tag_47\n      calldatasize\n      0x04\n      tag_48\n      jump\t// in\n    tag_47:\n      tag_49\n      jump\t// in\n        /* \"Escrow.sol\":5869:6057  function getCurrentBalance(bytes32 storeHash) external view returns (uint) {... */\n    tag_10:\n      callvalue\n      dup1\n      iszero\n      tag_50\n      jumpi\n      0x00\n      dup1\n      revert\n    tag_50:\n      pop\n      tag_13\n      tag_52\n      calldatasize\n      0x04\n      tag_24\n      jump\t// in\n    tag_52:\n        /* \"Escrow.sol\":5938:5942  uint */\n      0x00\n        /* \"Escrow.sol\":5980:6004  escrowStorage[storeHash] */\n      swap1\n      dup2\n      mstore\n        /* \"Escrow.sol\":5980:5993  escrowStorage */\n      0x01\n        /* \"Escrow.sol\":5980:6004  escrowStorage[storeHash] */\n      0x20\n      mstore\n      0x40\n      swap1\n      keccak256\n        /* \"Escrow.sol\":6030:6048  escrow.totalAmount */\n      0x05\n      add\n      sload\n      sub(shl(0x80, 0x01), 0x01)\n      and\n      swap1\n        /* \"Escrow.sol\":5869:6057  function getCurrentBalance(bytes32 storeHash) external view returns (uint) {... */\n      jump\n        /* \"Escrow.sol\":4642:5684  function declareDraw(bytes32 storeHash) external nonReentrant {... */\n    tag_25:\n        /* \"@openzeppelin/contracts/security/ReentrancyGuard.sol\":2261:2282  _nonReentrantBefore() */\n      tag_56\n        /* \"@openzeppelin/contracts/security/ReentrancyGuard.sol\":2261:2280  _nonReentrantBefore */\n      tag_57\n        /* \"@openzeppelin/contracts/security/ReentrancyGuard.sol\":2261:2282  _nonReentrantBefore() */\n      jump\t// in\n    tag_56:\n        /* \"Escrow.sol\":4715:4737  Storage storage escrow */\n      0x00\n        /* \"Escrow.sol\":4740:4764  escrowStorage[storeHash] */\n      dup2\n      dup2\n      mstore\n        /* \"Escrow.sol\":4740:4753  escrowStorage */\n      0x01\n        /* \"Escrow.sol\":4740:4764  escrowStorage[storeHash] */\n      0x20\n      mstore\n      0x40\n      swap1\n      keccak256\n        /* \"Escrow.sol\":4783:4798  escrow.isActive */\n      0x05\n      dup2\n      add\n      sload\n      shl(0x80, 0x01)\n      swap1\n      div\n      0xff\n      and\n        /* \"Escrow.sol\":4775:4823  require(escrow.isActive, \"Escrow is not active\") */\n      tag_59\n      jumpi\n      mload(0x40)\n      shl(0xe5, 0x461bcd)\n      dup2\n      mstore\n        /* \"#utility.yul\":2867:2869   */\n      0x20\n        /* \"Escrow.sol\":4775:4823  require(escrow.isActive, \"Escrow is not active\") */\n      0x04\n      dup3\n      add\n        /* \"#utility.yul\":2849:2870   */\n      mstore\n        /* \"#utility.yul\":2906:2908   */\n      0x14\n        /* \"#utility.yul\":2886:2904   */\n      0x24\n      dup3\n      add\n        /* \"#utility.yul\":2879:2909   */\n      mstore\n      shl(0x60, 0x457363726f77206973206e6f7420616374697665)\n        /* \"#utility.yul\":2925:2943   */\n      0x44\n      dup3\n      add\n        /* \"#utility.yul\":2918:2968   */\n      mstore\n        /* \"#utility.yul\":2985:3003   */\n      0x64\n      add\n        /* \"Escrow.sol\":4775:4823  require(escrow.isActive, \"Escrow is not active\") */\n    tag_60:\n      mload(0x40)\n      dup1\n      swap2\n      sub\n      swap1\n      revert\n    tag_59:\n        /* \"Escrow.sol\":4843:4860  escrow.isResolved */\n      0x05\n      dup2\n      add\n      sload\n      shl(0x88, 0x01)\n      swap1\n      div\n      0xff\n      and\n        /* \"Escrow.sol\":4842:4860  !escrow.isResolved */\n      iszero\n        /* \"Escrow.sol\":4834:4885  require(!escrow.isResolved, \"Bet already resolved\") */\n      tag_62\n      jumpi\n      mload(0x40)\n      shl(0xe5, 0x461bcd)\n      dup2\n      mstore\n        /* \"#utility.yul\":3216:3218   */\n      0x20\n        /* \"Escrow.sol\":4834:4885  require(!escrow.isResolved, \"Bet already resolved\") */\n      0x04\n      dup3\n      add\n        /* \"#utility.yul\":3198:3219   */\n      mstore\n        /* \"#utility.yul\":3255:3257   */\n      0x14\n        /* \"#utility.yul\":3235:3253   */\n      0x24\n      dup3\n      add\n        /* \"#utility.yul\":3228:3258   */\n      mstore\n      shl(0x62, 0x10995d08185b1c9958591e481c995cdbdb1d9959)\n        /* \"#utility.yul\":3274:3292   */\n      0x44\n      dup3\n      add\n        /* \"#utility.yul\":3267:3317   */\n      mstore\n        /* \"#utility.yul\":3334:3352   */\n      0x64\n      add\n        /* \"Escrow.sol\":4834:4885  require(!escrow.isResolved, \"Bet already resolved\") */\n      tag_60\n        /* \"#utility.yul\":3014:3358   */\n      jump\n        /* \"Escrow.sol\":4834:4885  require(!escrow.isResolved, \"Bet already resolved\") */\n    tag_62:\n        /* \"Escrow.sol\":4904:4921  escrow.challenger */\n      0x02\n      dup2\n      add\n      sload\n      sub(shl(0xa0, 0x01), 0x01)\n      and\n        /* \"Escrow.sol\":4896:4956  require(escrow.challenger != address(0), \"Bet not accepted\") */\n      tag_65\n      jumpi\n      mload(0x40)\n      shl(0xe5, 0x461bcd)\n      dup2\n      mstore\n        /* \"#utility.yul\":3565:3567   */\n      0x20\n        /* \"Escrow.sol\":4896:4956  require(escrow.challenger != address(0), \"Bet not accepted\") */\n      0x04\n      dup3\n      add\n        /* \"#utility.yul\":3547:3568   */\n      mstore\n        /* \"#utility.yul\":3604:3606   */\n      0x10\n        /* \"#utility.yul\":3584:3602   */\n      0x24\n      dup3\n      add\n        /* \"#utility.yul\":3577:3607   */\n      mstore\n      shl(0x82, 0x10995d081b9bdd081858d8d95c1d1959)\n        /* \"#utility.yul\":3623:3641   */\n      0x44\n      dup3\n      add\n        /* \"#utility.yul\":3616:3662   */\n      mstore\n        /* \"#utility.yul\":3679:3697   */\n      0x64\n      add\n        /* \"Escrow.sol\":4896:4956  require(escrow.challenger != address(0), \"Bet not accepted\") */\n      tag_60\n        /* \"#utility.yul\":3363:3703   */\n      jump\n        /* \"Escrow.sol\":4896:4956  require(escrow.challenger != address(0), \"Bet not accepted\") */\n    tag_65:\n        /* \"Escrow.sol\":4975:4993  escrow.totalAmount */\n      0x05\n      dup2\n      add\n      sload\n      sub(shl(0x80, 0x01), 0x01)\n      and\n        /* \"Escrow.sol\":4967:5021  require(escrow.totalAmount > 0, \"No funds to release\") */\n      tag_68\n      jumpi\n      mload(0x40)\n      shl(0xe5, 0x461bcd)\n      dup2\n      mstore\n        /* \"#utility.yul\":3910:3912   */\n      0x20\n        /* \"Escrow.sol\":4967:5021  require(escrow.totalAmount > 0, \"No funds to release\") */\n      0x04\n      dup3\n      add\n        /* \"#utility.yul\":3892:3913   */\n      mstore\n        /* \"#utility.yul\":3949:3951   */\n      0x13\n        /* \"#utility.yul\":3929:3947   */\n      0x24\n      dup3\n      add\n        /* \"#utility.yul\":3922:3952   */\n      mstore\n      shl(0x68, 0x4e6f2066756e647320746f2072656c65617365)\n        /* \"#utility.yul\":3968:3986   */\n      0x44\n      dup3\n      add\n        /* \"#utility.yul\":3961:4010   */\n      mstore\n        /* \"#utility.yul\":4027:4045   */\n      0x64\n      add\n        /* \"Escrow.sol\":4967:5021  require(escrow.totalAmount > 0, \"No funds to release\") */\n      tag_60\n        /* \"#utility.yul\":3708:4051   */\n      jump\n        /* \"Escrow.sol\":4967:5021  require(escrow.totalAmount > 0, \"No funds to release\") */\n    tag_68:\n        /* \"Escrow.sol\":5054:5071  escrow.isResolved */\n      0x05\n      dup2\n      add\n        /* \"Escrow.sol\":5054:5078  escrow.isResolved = true */\n      dup1\n      sload\n      not(shl(0x80, 0xffff))\n        /* \"Escrow.sol\":5089:5112  escrow.isActive = false */\n      dup2\n      and\n      shl(0x88, 0x01)\n      or\n      swap1\n      swap2\n      sstore\n      sub(shl(0x80, 0x01), 0x01)\n        /* \"Escrow.sol\":5212:5230  escrow.totalAmount */\n      and\n        /* \"Escrow.sol\":5054:5078  escrow.isResolved = true */\n      0x00\n        /* \"Escrow.sol\":5261:5270  total / 2 */\n      tag_71\n        /* \"Escrow.sol\":5269:5270  2 */\n      0x02\n        /* \"Escrow.sol\":5212:5230  escrow.totalAmount */\n      dup4\n        /* \"Escrow.sol\":5261:5270  total / 2 */\n      tag_72\n      jump\t// in\n    tag_71:\n        /* \"Escrow.sol\":5241:5270  uint playerAmount = total / 2 */\n      swap1\n      pop\n        /* \"Escrow.sol\":5281:5302  uint challengerAmount */\n      0x00\n        /* \"Escrow.sol\":5305:5325  total - playerAmount */\n      tag_73\n        /* \"Escrow.sol\":5241:5270  uint playerAmount = total / 2 */\n      dup3\n        /* \"Escrow.sol\":5305:5310  total */\n      dup5\n        /* \"Escrow.sol\":5305:5325  total - playerAmount */\n      tag_74\n      jump\t// in\n    tag_73:\n        /* \"Escrow.sol\":5347:5365  escrow.totalAmount */\n      0x05\n      dup6\n      add\n        /* \"Escrow.sol\":5347:5369  escrow.totalAmount = 0 */\n      dup1\n      sload\n      not(0xffffffffffffffffffffffffffffffff)\n      and\n      swap1\n      sstore\n        /* \"Escrow.sol\":5412:5435  DrawDeclared(storeHash) */\n      mload(0x40)\n        /* \"Escrow.sol\":5281:5325  uint challengerAmount = total - playerAmount */\n      swap1\n      swap2\n      pop\n        /* \"Escrow.sol\":5425:5434  storeHash */\n      dup6\n      swap1\n        /* \"Escrow.sol\":5412:5435  DrawDeclared(storeHash) */\n      0x57b2458f42361feee979da84b5231c7cdaa26d4bb556d06accb1eca7eec98ada\n      swap1\n        /* \"Escrow.sol\":5368:5369  0 */\n      0x00\n      swap1\n        /* \"Escrow.sol\":5412:5435  DrawDeclared(storeHash) */\n      log2\n        /* \"Escrow.sol\":5471:5484  escrow.player */\n      0x01\n      dup5\n      add\n      sload\n        /* \"Escrow.sol\":5471:5514  escrow.player.call{value: playerAmount}(\"\") */\n      mload(0x40)\n        /* \"Escrow.sol\":5447:5465  bool successPlayer */\n      0x00\n      swap2\n      sub(shl(0xa0, 0x01), 0x01)\n        /* \"Escrow.sol\":5471:5484  escrow.player */\n      and\n      swap1\n        /* \"Escrow.sol\":5497:5509  playerAmount */\n      dup5\n      swap1\n        /* \"Escrow.sol\":5447:5465  bool successPlayer */\n      dup4\n        /* \"Escrow.sol\":5471:5514  escrow.player.call{value: playerAmount}(\"\") */\n      dup2\n        /* \"Escrow.sol\":5447:5465  bool successPlayer */\n      dup2\n        /* \"Escrow.sol\":5471:5514  escrow.player.call{value: playerAmount}(\"\") */\n      dup2\n        /* \"Escrow.sol\":5497:5509  playerAmount */\n      dup6\n        /* \"Escrow.sol\":5471:5484  escrow.player */\n      dup8\n        /* \"Escrow.sol\":5471:5514  escrow.player.call{value: playerAmount}(\"\") */\n      gas\n      call\n      swap3\n      pop\n      pop\n      pop\n      returndatasize\n      dup1\n      0x00\n      dup2\n      eq\n      tag_79\n      jumpi\n      mload(0x40)\n      swap2\n      pop\n      and(add(returndatasize, 0x3f), not(0x1f))\n      dup3\n      add\n      0x40\n      mstore\n      returndatasize\n      dup3\n      mstore\n      returndatasize\n      0x00\n      0x20\n      dup5\n      add\n      returndatacopy\n      jump(tag_78)\n    tag_79:\n      0x60\n      swap2\n      pop\n    tag_78:\n      pop\n      pop\n        /* \"Escrow.sol\":5554:5571  escrow.challenger */\n      0x02\n      dup7\n      add\n      sload\n        /* \"Escrow.sol\":5554:5605  escrow.challenger.call{value: challengerAmount}(\"\") */\n      mload(0x40)\n        /* \"Escrow.sol\":5446:5514  (bool successPlayer, ) = escrow.player.call{value: playerAmount}(\"\") */\n      swap2\n      swap3\n      pop\n        /* \"Escrow.sol\":5526:5548  bool successChallenger */\n      0x00\n      swap2\n      sub(shl(0xa0, 0x01), 0x01)\n        /* \"Escrow.sol\":5554:5571  escrow.challenger */\n      swap1\n      swap2\n      and\n      swap1\n        /* \"Escrow.sol\":5584:5600  challengerAmount */\n      dup5\n      swap1\n        /* \"Escrow.sol\":5526:5548  bool successChallenger */\n      dup4\n        /* \"Escrow.sol\":5554:5605  escrow.challenger.call{value: challengerAmount}(\"\") */\n      dup2\n        /* \"Escrow.sol\":5526:5548  bool successChallenger */\n      dup2\n        /* \"Escrow.sol\":5554:5605  escrow.challenger.call{value: challengerAmount}(\"\") */\n      dup2\n        /* \"Escrow.sol\":5584:5600  challengerAmount */\n      dup6\n        /* \"Escrow.sol\":5554:5571  escrow.challenger */\n      dup8\n        /* \"Escrow.sol\":5554:5605  escrow.challenger.call{value: challengerAmount}(\"\") */\n      gas\n      call\n      swap3\n      pop\n      pop\n      pop\n      returndatasize\n      dup1\n      0x00\n      dup2\n      eq\n      tag_83\n      jumpi\n      mload(0x40)\n      swap2\n      pop\n      and(add(returndatasize, 0x3f), not(0x1f))\n      dup3\n      add\n      0x40\n      mstore\n      returndatasize\n      dup3\n      mstore\n      returndatasize\n      0x00\n      0x20\n      dup5\n      add\n      returndatacopy\n      jump(tag_82)\n    tag_83:\n      0x60\n      swap2\n      pop\n    tag_82:\n      pop\n        /* \"Escrow.sol\":5525:5605  (bool successChallenger, ) = escrow.challenger.call{value: challengerAmount}(\"\") */\n      pop\n      swap1\n      pop\n        /* \"Escrow.sol\":5624:5637  successPlayer */\n      dup2\n        /* \"Escrow.sol\":5624:5658  successPlayer && successChallenger */\n      dup1\n      iszero\n      tag_84\n      jumpi\n      pop\n        /* \"Escrow.sol\":5641:5658  successChallenger */\n      dup1\n        /* \"Escrow.sol\":5624:5658  successPlayer && successChallenger */\n    tag_84:\n        /* \"Escrow.sol\":5616:5676  require(successPlayer && successChallenger, \"Refund failed\") */\n      tag_85\n      jumpi\n      mload(0x40)\n      shl(0xe5, 0x461bcd)\n      dup2\n      mstore\n        /* \"#utility.yul\":4955:4957   */\n      0x20\n        /* \"Escrow.sol\":5616:5676  require(successPlayer && successChallenger, \"Refund failed\") */\n      0x04\n      dup3\n      add\n        /* \"#utility.yul\":4937:4958   */\n      mstore\n        /* \"#utility.yul\":4994:4996   */\n      0x0d\n        /* \"#utility.yul\":4974:4992   */\n      0x24\n      dup3\n      add\n        /* \"#utility.yul\":4967:4997   */\n      mstore\n      shl(0x9a, 0x1499599d5b990819985a5b1959)\n        /* \"#utility.yul\":5013:5031   */\n      0x44\n      dup3\n      add\n        /* \"#utility.yul\":5006:5049   */\n      mstore\n        /* \"#utility.yul\":5066:5084   */\n      0x64\n      add\n        /* \"Escrow.sol\":5616:5676  require(successPlayer && successChallenger, \"Refund failed\") */\n      tag_60\n        /* \"#utility.yul\":4753:5090   */\n      jump\n        /* \"Escrow.sol\":5616:5676  require(successPlayer && successChallenger, \"Refund failed\") */\n    tag_85:\n        /* \"Escrow.sol\":4704:5684  {... */\n      pop\n      pop\n      pop\n      pop\n      pop\n      pop\n        /* \"@openzeppelin/contracts/security/ReentrancyGuard.sol\":2303:2323  _nonReentrantAfter() */\n      tag_88\n        /* \"@openzeppelin/contracts/security/ReentrancyGuard.sol\":1716:1717  1 */\n      0x01\n        /* \"@openzeppelin/contracts/security/ReentrancyGuard.sol\":2809:2816  _status */\n      0x00\n        /* \"@openzeppelin/contracts/security/ReentrancyGuard.sol\":2809:2831  _status = _NOT_ENTERED */\n      sstore\n        /* \"@openzeppelin/contracts/security/ReentrancyGuard.sol\":2629:2838  function _nonReentrantAfter() private {... */\n      jump\n        /* \"@openzeppelin/contracts/security/ReentrancyGuard.sol\":2303:2323  _nonReentrantAfter() */\n    tag_88:\n        /* \"Escrow.sol\":4642:5684  function declareDraw(bytes32 storeHash) external nonReentrant {... */\n      pop\n      jump\t// out\n        /* \"Escrow.sol\":1867:2654  function storeTokens(bytes32 matchId, bytes32 choice, address acceptor) external payable {... */\n    tag_29:\n        /* \"Escrow.sol\":1987:1988  0 */\n      0x00\n        /* \"Escrow.sol\":1975:1984  msg.value */\n      callvalue\n        /* \"Escrow.sol\":1975:1988  msg.value > 0 */\n      gt\n        /* \"Escrow.sol\":1967:2008  require(msg.value > 0, \"Invalid deposit\") */\n      tag_91\n      jumpi\n      mload(0x40)\n      shl(0xe5, 0x461bcd)\n      dup2\n      mstore\n        /* \"#utility.yul\":5297:5299   */\n      0x20\n        /* \"Escrow.sol\":1967:2008  require(msg.value > 0, \"Invalid deposit\") */\n      0x04\n      dup3\n      add\n        /* \"#utility.yul\":5279:5300   */\n      mstore\n        /* \"#utility.yul\":5336:5338   */\n      0x0f\n        /* \"#utility.yul\":5316:5334   */\n      0x24\n      dup3\n      add\n        /* \"#utility.yul\":5309:5339   */\n      mstore\n      shl(0x8a, 0x125b9d985b1a590819195c1bdcda5d)\n        /* \"#utility.yul\":5355:5373   */\n      0x44\n      dup3\n      add\n        /* \"#utility.yul\":5348:5393   */\n      mstore\n        /* \"#utility.yul\":5410:5428   */\n      0x64\n      add\n        /* \"Escrow.sol\":1967:2008  require(msg.value > 0, \"Invalid deposit\") */\n      tag_60\n        /* \"#utility.yul\":5095:5434   */\n      jump\n        /* \"Escrow.sol\":1967:2008  require(msg.value > 0, \"Invalid deposit\") */\n    tag_91:\n      sub(shl(0x80, 0x01), 0x01)\n        /* \"Escrow.sol\":2027:2036  msg.value */\n      callvalue\n        /* \"Escrow.sol\":2027:2057  msg.value <= type(uint128).max */\n      gt\n      iszero\n        /* \"Escrow.sol\":2019:2078  require(msg.value <= type(uint128).max, \"Amount too large\") */\n      tag_94\n      jumpi\n      mload(0x40)\n      shl(0xe5, 0x461bcd)\n      dup2\n      mstore\n        /* \"#utility.yul\":5641:5643   */\n      0x20\n        /* \"Escrow.sol\":2019:2078  require(msg.value <= type(uint128).max, \"Amount too large\") */\n      0x04\n      dup3\n      add\n        /* \"#utility.yul\":5623:5644   */\n      mstore\n        /* \"#utility.yul\":5680:5682   */\n      0x10\n        /* \"#utility.yul\":5660:5678   */\n      0x24\n      dup3\n      add\n        /* \"#utility.yul\":5653:5683   */\n      mstore\n      shl(0x80, 0x416d6f756e7420746f6f206c61726765)\n        /* \"#utility.yul\":5699:5717   */\n      0x44\n      dup3\n      add\n        /* \"#utility.yul\":5692:5738   */\n      mstore\n        /* \"#utility.yul\":5755:5773   */\n      0x64\n      add\n        /* \"Escrow.sol\":2019:2078  require(msg.value <= type(uint128).max, \"Amount too large\") */\n      tag_60\n        /* \"#utility.yul\":5439:5779   */\n      jump\n        /* \"Escrow.sol\":2019:2078  require(msg.value <= type(uint128).max, \"Amount too large\") */\n    tag_94:\n      sub(shl(0xa0, 0x01), 0x01)\n        /* \"Escrow.sol\":2097:2119  acceptor != address(0) */\n      dup2\n      and\n        /* \"Escrow.sol\":2089:2148  require(acceptor != address(0), \"Invalid acceptor address\") */\n      tag_97\n      jumpi\n      mload(0x40)\n      shl(0xe5, 0x461bcd)\n      dup2\n      mstore\n        /* \"#utility.yul\":5986:5988   */\n      0x20\n        /* \"Escrow.sol\":2089:2148  require(acceptor != address(0), \"Invalid acceptor address\") */\n      0x04\n      dup3\n      add\n        /* \"#utility.yul\":5968:5989   */\n      mstore\n        /* \"#utility.yul\":6025:6027   */\n      0x18\n        /* \"#utility.yul\":6005:6023   */\n      0x24\n      dup3\n      add\n        /* \"#utility.yul\":5998:6028   */\n      mstore\n        /* \"#utility.yul\":6064:6090   */\n      0x496e76616c6964206163636570746f7220616464726573730000000000000000\n        /* \"#utility.yul\":6044:6062   */\n      0x44\n      dup3\n      add\n        /* \"#utility.yul\":6037:6091   */\n      mstore\n        /* \"#utility.yul\":6108:6126   */\n      0x64\n      add\n        /* \"Escrow.sol\":2089:2148  require(acceptor != address(0), \"Invalid acceptor address\") */\n      tag_60\n        /* \"#utility.yul\":5784:6132   */\n      jump\n        /* \"Escrow.sol\":2089:2148  require(acceptor != address(0), \"Invalid acceptor address\") */\n    tag_97:\n        /* \"Escrow.sol\":2179:2189  msg.sender */\n      caller\n      sub(shl(0xa0, 0x01), 0x01)\n        /* \"Escrow.sol\":2167:2189  acceptor != msg.sender */\n      dup3\n      and\n      sub\n        /* \"Escrow.sol\":2159:2215  require(acceptor != msg.sender, \"Cannot accept own bet\") */\n      tag_100\n      jumpi\n      mload(0x40)\n      shl(0xe5, 0x461bcd)\n      dup2\n      mstore\n        /* \"#utility.yul\":6339:6341   */\n      0x20\n        /* \"Escrow.sol\":2159:2215  require(acceptor != msg.sender, \"Cannot accept own bet\") */\n      0x04\n      dup3\n      add\n        /* \"#utility.yul\":6321:6342   */\n      mstore\n        /* \"#utility.yul\":6378:6380   */\n      0x15\n        /* \"#utility.yul\":6358:6376   */\n      0x24\n      dup3\n      add\n        /* \"#utility.yul\":6351:6381   */\n      mstore\n      shl(0x5a, 0x10d85b9b9bdd081858d8d95c1d081bdddb8818995d)\n        /* \"#utility.yul\":6397:6415   */\n      0x44\n      dup3\n      add\n        /* \"#utility.yul\":6390:6441   */\n      mstore\n        /* \"#utility.yul\":6458:6476   */\n      0x64\n      add\n        /* \"Escrow.sol\":2159:2215  require(acceptor != msg.sender, \"Cannot accept own bet\") */\n      tag_60\n        /* \"#utility.yul\":6137:6482   */\n      jump\n        /* \"Escrow.sol\":2159:2215  require(acceptor != msg.sender, \"Cannot accept own bet\") */\n    tag_100:\n        /* \"Escrow.sol\":2275:2285  betCounter */\n      0x02\n        /* \"Escrow.sol\":2275:2287  betCounter++ */\n      dup1\n      sload\n        /* \"Escrow.sol\":2228:2245  bytes32 storeHash */\n      0x00\n      swap2\n      dup3\n        /* \"Escrow.sol\":2275:2287  betCounter++ */\n      tag_103\n      dup4\n      tag_104\n      jump\t// in\n    tag_103:\n      swap1\n      swap2\n      sstore\n      pop\n        /* \"Escrow.sol\":2258:2300  abi.encodePacked(betCounter++, msg.sender) */\n      0x40\n      dup1\n      mload\n      0x20\n      dup2\n      add\n        /* \"#utility.yul\":6784:6803   */\n      swap3\n      swap1\n      swap3\n      mstore\n      not(0xffffffffffffffffffffffff)\n        /* \"Escrow.sol\":2289:2299  msg.sender */\n      caller\n        /* \"#utility.yul\":6841:6843   */\n      0x60\n        /* \"#utility.yul\":6837:6852   */\n      shl\n        /* \"#utility.yul\":6833:6886   */\n      and\n        /* \"#utility.yul\":6819:6831   */\n      swap1\n      dup3\n      add\n        /* \"#utility.yul\":6812:6887   */\n      mstore\n        /* \"#utility.yul\":6903:6915   */\n      0x54\n      add\n        /* \"Escrow.sol\":2258:2300  abi.encodePacked(betCounter++, msg.sender) */\n      0x40\n      dup1\n      mload\n      not(0x1f)\n      dup2\n      dup5\n      sub\n      add\n      dup2\n      mstore\n      dup3\n      dup3\n      mstore\n        /* \"Escrow.sol\":2248:2301  keccak256(abi.encodePacked(betCounter++, msg.sender)) */\n      dup1\n      mload\n        /* \"Escrow.sol\":2258:2300  abi.encodePacked(betCounter++, msg.sender) */\n      0x20\n        /* \"Escrow.sol\":2248:2301  keccak256(abi.encodePacked(betCounter++, msg.sender)) */\n      swap2\n      dup3\n      add\n      keccak256\n        /* \"Escrow.sol\":2312:2334  Storage storage escrow */\n      0x00\n        /* \"Escrow.sol\":2337:2361  escrowStorage[storeHash] */\n      dup2\n      dup2\n      mstore\n        /* \"Escrow.sol\":2337:2350  escrowStorage */\n      0x01\n        /* \"Escrow.sol\":2337:2361  escrowStorage[storeHash] */\n      dup1\n      dup5\n      mstore\n      swap1\n      dup5\n      swap1\n      keccak256\n        /* \"Escrow.sol\":2374:2398  escrow.matchId = matchId */\n      dup10\n      dup2\n      sstore\n        /* \"Escrow.sol\":2409:2422  escrow.player */\n      swap1\n      dup2\n      add\n        /* \"Escrow.sol\":2409:2435  escrow.player = msg.sender */\n      dup1\n      sload\n      not(sub(shl(0xa0, 0x01), 0x01))\n      and\n        /* \"Escrow.sol\":2425:2435  msg.sender */\n      caller\n        /* \"Escrow.sol\":2409:2435  escrow.player = msg.sender */\n      swap1\n      dup2\n      or\n      swap1\n      swap2\n      sstore\n        /* \"Escrow.sol\":2446:2460  escrow.choiceA */\n      0x03\n      dup3\n      add\n        /* \"Escrow.sol\":2446:2469  escrow.choiceA = choice */\n      dup10\n      swap1\n      sstore\n        /* \"Escrow.sol\":2480:2498  escrow.totalAmount */\n      0x05\n      dup3\n      add\n        /* \"Escrow.sol\":2480:2519  escrow.totalAmount = uint128(msg.value) */\n      dup1\n      sload\n      not(0xffffffffffffffffffffffffffffffffff)\n        /* \"Escrow.sol\":2530:2552  escrow.isActive = true */\n      and\n      sub(shl(0x80, 0x01), 0x01)\n        /* \"Escrow.sol\":2509:2518  msg.value */\n      callvalue\n        /* \"Escrow.sol\":2480:2519  escrow.totalAmount = uint128(msg.value) */\n      swap1\n      dup2\n      and\n        /* \"Escrow.sol\":2530:2552  escrow.isActive = true */\n      swap2\n      swap1\n      swap2\n      or\n      shl(0x80, 0x01)\n      or\n      swap1\n      swap2\n      sstore\n        /* \"Escrow.sol\":356:375  keccak256(\"player\") */\n      0x326d994cdb81aaccb84aa1f62bae636dc0aaf98ab22f66b0c9224f1edccd7cc9\n        /* \"#utility.yul\":7157:7182   */\n      dup8\n      mstore\n        /* \"#utility.yul\":7198:7216   */\n      swap4\n      dup7\n      add\n        /* \"#utility.yul\":7191:7225   */\n      dup11\n      swap1\n      mstore\n        /* \"#utility.yul\":7241:7259   */\n      swap4\n      dup6\n      add\n        /* \"#utility.yul\":7234:7268   */\n      dup9\n      swap1\n      mstore\n        /* \"#utility.yul\":7299:7301   */\n      0x60\n        /* \"#utility.yul\":7284:7302   */\n      dup6\n      add\n        /* \"#utility.yul\":7277:7311   */\n      swap3\n      swap1\n      swap3\n      mstore\n        /* \"Escrow.sol\":2248:2301  keccak256(abi.encodePacked(betCounter++, msg.sender)) */\n      swap4\n      pop\n        /* \"Escrow.sol\":2337:2361  escrowStorage[storeHash] */\n      swap2\n        /* \"Escrow.sol\":2248:2301  keccak256(abi.encodePacked(betCounter++, msg.sender)) */\n      dup4\n      swap1\n        /* \"Escrow.sol\":2570:2646  TokensStored(storeHash, msg.sender, PLAYER_ROLE, matchId, choice, msg.value) */\n      0x9d5e739e1c9fc40e31321ed7800925b6c7a9a458fc4c4708a66f96aa00778d9c\n      swap1\n        /* \"#utility.yul\":7144:7147   */\n      0x80\n        /* \"#utility.yul\":7129:7148   */\n      add\n        /* \"Escrow.sol\":2570:2646  TokensStored(storeHash, msg.sender, PLAYER_ROLE, matchId, choice, msg.value) */\n      mload(0x40)\n      dup1\n      swap2\n      sub\n      swap1\n      log3\n        /* \"Escrow.sol\":1956:2654  {... */\n      pop\n      pop\n        /* \"Escrow.sol\":1867:2654  function storeTokens(bytes32 matchId, bytes32 choice, address acceptor) external payable {... */\n      pop\n      pop\n      pop\n      jump\t// out\n        /* \"Escrow.sol\":3646:4498  function releaseFunds(bytes32 storeHash, address winner) external nonReentrant {... */\n    tag_34:\n        /* \"@openzeppelin/contracts/security/ReentrancyGuard.sol\":2261:2282  _nonReentrantBefore() */\n      tag_110\n        /* \"@openzeppelin/contracts/security/ReentrancyGuard.sol\":2261:2280  _nonReentrantBefore */\n      tag_57\n        /* \"@openzeppelin/contracts/security/ReentrancyGuard.sol\":2261:2282  _nonReentrantBefore() */\n      jump\t// in\n    tag_110:\n        /* \"Escrow.sol\":3736:3758  Storage storage escrow */\n      0x00\n        /* \"Escrow.sol\":3761:3785  escrowStorage[storeHash] */\n      dup3\n      dup2\n      mstore\n        /* \"Escrow.sol\":3761:3774  escrowStorage */\n      0x01\n        /* \"Escrow.sol\":3761:3785  escrowStorage[storeHash] */\n      0x20\n      mstore\n      0x40\n      swap1\n      keccak256\n        /* \"Escrow.sol\":3804:3819  escrow.isActive */\n      0x05\n      dup2\n      add\n      sload\n      shl(0x80, 0x01)\n      swap1\n      div\n      0xff\n      and\n        /* \"Escrow.sol\":3796:3844  require(escrow.isActive, \"Escrow is not active\") */\n      tag_112\n      jumpi\n      mload(0x40)\n      shl(0xe5, 0x461bcd)\n      dup2\n      mstore\n        /* \"#utility.yul\":2867:2869   */\n      0x20\n        /* \"Escrow.sol\":3796:3844  require(escrow.isActive, \"Escrow is not active\") */\n      0x04\n      dup3\n      add\n        /* \"#utility.yul\":2849:2870   */\n      mstore\n        /* \"#utility.yul\":2906:2908   */\n      0x14\n        /* \"#utility.yul\":2886:2904   */\n      0x24\n      dup3\n      add\n        /* \"#utility.yul\":2879:2909   */\n      mstore\n      shl(0x60, 0x457363726f77206973206e6f7420616374697665)\n        /* \"#utility.yul\":2925:2943   */\n      0x44\n      dup3\n      add\n        /* \"#utility.yul\":2918:2968   */\n      mstore\n        /* \"#utility.yul\":2985:3003   */\n      0x64\n      add\n        /* \"Escrow.sol\":3796:3844  require(escrow.isActive, \"Escrow is not active\") */\n      tag_60\n        /* \"#utility.yul\":2665:3009   */\n      jump\n        /* \"Escrow.sol\":3796:3844  require(escrow.isActive, \"Escrow is not active\") */\n    tag_112:\n        /* \"Escrow.sol\":3864:3881  escrow.isResolved */\n      0x05\n      dup2\n      add\n      sload\n      shl(0x88, 0x01)\n      swap1\n      div\n      0xff\n      and\n        /* \"Escrow.sol\":3863:3881  !escrow.isResolved */\n      iszero\n        /* \"Escrow.sol\":3855:3906  require(!escrow.isResolved, \"Bet already resolved\") */\n      tag_114\n      jumpi\n      mload(0x40)\n      shl(0xe5, 0x461bcd)\n      dup2\n      mstore\n        /* \"#utility.yul\":3216:3218   */\n      0x20\n        /* \"Escrow.sol\":3855:3906  require(!escrow.isResolved, \"Bet already resolved\") */\n      0x04\n      dup3\n      add\n        /* \"#utility.yul\":3198:3219   */\n      mstore\n        /* \"#utility.yul\":3255:3257   */\n      0x14\n        /* \"#utility.yul\":3235:3253   */\n      0x24\n      dup3\n      add\n        /* \"#utility.yul\":3228:3258   */\n      mstore\n      shl(0x62, 0x10995d08185b1c9958591e481c995cdbdb1d9959)\n        /* \"#utility.yul\":3274:3292   */\n      0x44\n      dup3\n      add\n        /* \"#utility.yul\":3267:3317   */\n      mstore\n        /* \"#utility.yul\":3334:3352   */\n      0x64\n      add\n        /* \"Escrow.sol\":3855:3906  require(!escrow.isResolved, \"Bet already resolved\") */\n      tag_60\n        /* \"#utility.yul\":3014:3358   */\n      jump\n        /* \"Escrow.sol\":3855:3906  require(!escrow.isResolved, \"Bet already resolved\") */\n    tag_114:\n        /* \"Escrow.sol\":3925:3942  escrow.challenger */\n      0x02\n      dup2\n      add\n      sload\n      sub(shl(0xa0, 0x01), 0x01)\n      and\n        /* \"Escrow.sol\":3917:3977  require(escrow.challenger != address(0), \"Bet not accepted\") */\n      tag_116\n      jumpi\n      mload(0x40)\n      shl(0xe5, 0x461bcd)\n      dup2\n      mstore\n        /* \"#utility.yul\":3565:3567   */\n      0x20\n        /* \"Escrow.sol\":3917:3977  require(escrow.challenger != address(0), \"Bet not accepted\") */\n      0x04\n      dup3\n      add\n        /* \"#utility.yul\":3547:3568   */\n      mstore\n        /* \"#utility.yul\":3604:3606   */\n      0x10\n        /* \"#utility.yul\":3584:3602   */\n      0x24\n      dup3\n      add\n        /* \"#utility.yul\":3577:3607   */\n      mstore\n      shl(0x82, 0x10995d081b9bdd081858d8d95c1d1959)\n        /* \"#utility.yul\":3623:3641   */\n      0x44\n      dup3\n      add\n        /* \"#utility.yul\":3616:3662   */\n      mstore\n        /* \"#utility.yul\":3679:3697   */\n      0x64\n      add\n        /* \"Escrow.sol\":3917:3977  require(escrow.challenger != address(0), \"Bet not accepted\") */\n      tag_60\n        /* \"#utility.yul\":3363:3703   */\n      jump\n        /* \"Escrow.sol\":3917:3977  require(escrow.challenger != address(0), \"Bet not accepted\") */\n    tag_116:\n        /* \"Escrow.sol\":3996:4014  escrow.totalAmount */\n      0x05\n      dup2\n      add\n      sload\n      sub(shl(0x80, 0x01), 0x01)\n      and\n        /* \"Escrow.sol\":3988:4042  require(escrow.totalAmount > 0, \"No funds to release\") */\n      tag_118\n      jumpi\n      mload(0x40)\n      shl(0xe5, 0x461bcd)\n      dup2\n      mstore\n        /* \"#utility.yul\":3910:3912   */\n      0x20\n        /* \"Escrow.sol\":3988:4042  require(escrow.totalAmount > 0, \"No funds to release\") */\n      0x04\n      dup3\n      add\n        /* \"#utility.yul\":3892:3913   */\n      mstore\n        /* \"#utility.yul\":3949:3951   */\n      0x13\n        /* \"#utility.yul\":3929:3947   */\n      0x24\n      dup3\n      add\n        /* \"#utility.yul\":3922:3952   */\n      mstore\n      shl(0x68, 0x4e6f2066756e647320746f2072656c65617365)\n        /* \"#utility.yul\":3968:3986   */\n      0x44\n      dup3\n      add\n        /* \"#utility.yul\":3961:4010   */\n      mstore\n        /* \"#utility.yul\":4027:4045   */\n      0x64\n      add\n        /* \"Escrow.sol\":3988:4042  require(escrow.totalAmount > 0, \"No funds to release\") */\n      tag_60\n        /* \"#utility.yul\":3708:4051   */\n      jump\n        /* \"Escrow.sol\":3988:4042  require(escrow.totalAmount > 0, \"No funds to release\") */\n    tag_118:\n        /* \"Escrow.sol\":4071:4084  escrow.player */\n      0x01\n      dup2\n      add\n      sload\n      sub(shl(0xa0, 0x01), 0x01)\n        /* \"Escrow.sol\":4061:4084  winner == escrow.player */\n      dup4\n      dup2\n      and\n        /* \"Escrow.sol\":4071:4084  escrow.player */\n      swap2\n      and\n        /* \"Escrow.sol\":4061:4084  winner == escrow.player */\n      eq\n      dup1\n        /* \"Escrow.sol\":4061:4115  winner == escrow.player || winner == escrow.challenger */\n      tag_120\n      jumpi\n      pop\n        /* \"Escrow.sol\":4098:4115  escrow.challenger */\n      0x02\n      dup2\n      add\n      sload\n      sub(shl(0xa0, 0x01), 0x01)\n        /* \"Escrow.sol\":4088:4115  winner == escrow.challenger */\n      dup4\n      dup2\n      and\n        /* \"Escrow.sol\":4098:4115  escrow.challenger */\n      swap2\n      and\n        /* \"Escrow.sol\":4088:4115  winner == escrow.challenger */\n      eq\n        /* \"Escrow.sol\":4061:4115  winner == escrow.player || winner == escrow.challenger */\n    tag_120:\n        /* \"Escrow.sol\":4053:4134  require(winner == escrow.player || winner == escrow.challenger, \"Invalid winner\") */\n      tag_121\n      jumpi\n      mload(0x40)\n      shl(0xe5, 0x461bcd)\n      dup2\n      mstore\n        /* \"#utility.yul\":7524:7526   */\n      0x20\n        /* \"Escrow.sol\":4053:4134  require(winner == escrow.player || winner == escrow.challenger, \"Invalid winner\") */\n      0x04\n      dup3\n      add\n        /* \"#utility.yul\":7506:7527   */\n      mstore\n        /* \"#utility.yul\":7563:7565   */\n      0x0e\n        /* \"#utility.yul\":7543:7561   */\n      0x24\n      dup3\n      add\n        /* \"#utility.yul\":7536:7566   */\n      mstore\n      shl(0x91, 0x24b73b30b634b2103bb4b73732b9)\n        /* \"#utility.yul\":7582:7600   */\n      0x44\n      dup3\n      add\n        /* \"#utility.yul\":7575:7619   */\n      mstore\n        /* \"#utility.yul\":7636:7654   */\n      0x64\n      add\n        /* \"Escrow.sol\":4053:4134  require(winner == escrow.player || winner == escrow.challenger, \"Invalid winner\") */\n      tag_60\n        /* \"#utility.yul\":7322:7660   */\n      jump\n        /* \"Escrow.sol\":4053:4134  require(winner == escrow.player || winner == escrow.challenger, \"Invalid winner\") */\n    tag_121:\n        /* \"Escrow.sol\":4167:4184  escrow.isResolved */\n      0x05\n      dup2\n      add\n        /* \"Escrow.sol\":4167:4191  escrow.isResolved = true */\n      dup1\n      sload\n      not(0xffffffffffffffffffffffffffffffffffff)\n        /* \"Escrow.sol\":4279:4301  escrow.totalAmount = 0 */\n      dup2\n      and\n      shl(0x88, 0x01)\n      or\n      swap1\n      swap2\n      sstore\n        /* \"Escrow.sol\":4344:4384  ReleasedFunds(storeHash, amount, winner) */\n      mload(0x40)\n      sub(shl(0x80, 0x01), 0x01)\n        /* \"Escrow.sol\":4250:4268  escrow.totalAmount */\n      swap1\n      swap2\n      and\n      swap1\n      sub(shl(0xa0, 0x01), 0x01)\n        /* \"Escrow.sol\":4344:4384  ReleasedFunds(storeHash, amount, winner) */\n      dup5\n      and\n      swap1\n        /* \"Escrow.sol\":4250:4268  escrow.totalAmount */\n      dup3\n      swap1\n        /* \"Escrow.sol\":4358:4367  storeHash */\n      dup7\n      swap1\n        /* \"Escrow.sol\":4344:4384  ReleasedFunds(storeHash, amount, winner) */\n      0xa20198858d673ac3cf5d6f62c85cb502c39af8269735c0ef6774aff58154a429\n      swap1\n        /* \"Escrow.sol\":4167:4191  escrow.isResolved = true */\n      0x00\n      swap1\n        /* \"Escrow.sol\":4344:4384  ReleasedFunds(storeHash, amount, winner) */\n      log4\n        /* \"Escrow.sol\":4396:4408  bool success */\n      0x00\n        /* \"Escrow.sol\":4414:4420  winner */\n      dup4\n      sub(shl(0xa0, 0x01), 0x01)\n        /* \"Escrow.sol\":4414:4425  winner.call */\n      and\n        /* \"Escrow.sol\":4433:4439  amount */\n      dup3\n        /* \"Escrow.sol\":4414:4444  winner.call{value: amount}(\"\") */\n      mload(0x40)\n      0x00\n      mload(0x40)\n      dup1\n      dup4\n      sub\n      dup2\n      dup6\n      dup8\n      gas\n      call\n      swap3\n      pop\n      pop\n      pop\n      returndatasize\n      dup1\n      0x00\n      dup2\n      eq\n      tag_127\n      jumpi\n      mload(0x40)\n      swap2\n      pop\n      and(add(returndatasize, 0x3f), not(0x1f))\n      dup3\n      add\n      0x40\n      mstore\n      returndatasize\n      dup3\n      mstore\n      returndatasize\n      0x00\n      0x20\n      dup5\n      add\n      returndatacopy\n      jump(tag_126)\n    tag_127:\n      0x60\n      swap2\n      pop\n    tag_126:\n      pop\n        /* \"Escrow.sol\":4395:4444  (bool success, ) = winner.call{value: amount}(\"\") */\n      pop\n      swap1\n      pop\n        /* \"Escrow.sol\":4463:4470  success */\n      dup1\n        /* \"Escrow.sol\":4455:4490  require(success, \"Transfer failed\") */\n      tag_128\n      jumpi\n      mload(0x40)\n      shl(0xe5, 0x461bcd)\n      dup2\n      mstore\n        /* \"#utility.yul\":7867:7869   */\n      0x20\n        /* \"Escrow.sol\":4455:4490  require(success, \"Transfer failed\") */\n      0x04\n      dup3\n      add\n        /* \"#utility.yul\":7849:7870   */\n      mstore\n        /* \"#utility.yul\":7906:7908   */\n      0x0f\n        /* \"#utility.yul\":7886:7904   */\n      0x24\n      dup3\n      add\n        /* \"#utility.yul\":7879:7909   */\n      mstore\n      shl(0x8a, 0x151c985b9cd9995c8819985a5b1959)\n        /* \"#utility.yul\":7925:7943   */\n      0x44\n      dup3\n      add\n        /* \"#utility.yul\":7918:7963   */\n      mstore\n        /* \"#utility.yul\":7980:7998   */\n      0x64\n      add\n        /* \"Escrow.sol\":4455:4490  require(success, \"Transfer failed\") */\n      tag_60\n        /* \"#utility.yul\":7665:8004   */\n      jump\n        /* \"Escrow.sol\":4455:4490  require(success, \"Transfer failed\") */\n    tag_128:\n        /* \"Escrow.sol\":3725:4498  {... */\n      pop\n      pop\n      pop\n        /* \"@openzeppelin/contracts/security/ReentrancyGuard.sol\":2303:2323  _nonReentrantAfter() */\n      tag_131\n        /* \"@openzeppelin/contracts/security/ReentrancyGuard.sol\":1716:1717  1 */\n      0x01\n        /* \"@openzeppelin/contracts/security/ReentrancyGuard.sol\":2809:2816  _status */\n      0x00\n        /* \"@openzeppelin/contracts/security/ReentrancyGuard.sol\":2809:2831  _status = _NOT_ENTERED */\n      sstore\n        /* \"@openzeppelin/contracts/security/ReentrancyGuard.sol\":2629:2838  function _nonReentrantAfter() private {... */\n      jump\n        /* \"@openzeppelin/contracts/security/ReentrancyGuard.sol\":2303:2323  _nonReentrantAfter() */\n    tag_131:\n        /* \"Escrow.sol\":3646:4498  function releaseFunds(bytes32 storeHash, address winner) external nonReentrant {... */\n      pop\n      pop\n      jump\t// out\n        /* \"Escrow.sol\":2848:3449  function acceptBet(bytes32 storeHash, bytes32 choice) external payable {... */\n    tag_49:\n        /* \"Escrow.sol\":2930:2952  Storage storage escrow */\n      0x00\n        /* \"Escrow.sol\":2955:2979  escrowStorage[storeHash] */\n      dup3\n      dup2\n      mstore\n        /* \"Escrow.sol\":2955:2968  escrowStorage */\n      0x01\n        /* \"Escrow.sol\":2955:2979  escrowStorage[storeHash] */\n      0x20\n      mstore\n      0x40\n      swap1\n      keccak256\n        /* \"Escrow.sol\":2998:3013  escrow.isActive */\n      0x05\n      dup2\n      add\n      sload\n      shl(0x80, 0x01)\n      swap1\n      div\n      0xff\n      and\n        /* \"Escrow.sol\":2990:3035  require(escrow.isActive, \"Bet is not active\") */\n      tag_133\n      jumpi\n      mload(0x40)\n      shl(0xe5, 0x461bcd)\n      dup2\n      mstore\n        /* \"#utility.yul\":8211:8213   */\n      0x20\n        /* \"Escrow.sol\":2990:3035  require(escrow.isActive, \"Bet is not active\") */\n      0x04\n      dup3\n      add\n        /* \"#utility.yul\":8193:8214   */\n      mstore\n        /* \"#utility.yul\":8250:8252   */\n      0x11\n        /* \"#utility.yul\":8230:8248   */\n      0x24\n      dup3\n      add\n        /* \"#utility.yul\":8223:8253   */\n      mstore\n      shl(0x78, 0x426574206973206e6f7420616374697665)\n        /* \"#utility.yul\":8269:8287   */\n      0x44\n      dup3\n      add\n        /* \"#utility.yul\":8262:8309   */\n      mstore\n        /* \"#utility.yul\":8326:8344   */\n      0x64\n      add\n        /* \"Escrow.sol\":2990:3035  require(escrow.isActive, \"Bet is not active\") */\n      tag_60\n        /* \"#utility.yul\":8009:8350   */\n      jump\n        /* \"Escrow.sol\":2990:3035  require(escrow.isActive, \"Bet is not active\") */\n    tag_133:\n        /* \"Escrow.sol\":3054:3071  escrow.challenger */\n      0x02\n      dup2\n      add\n      sload\n      sub(shl(0xa0, 0x01), 0x01)\n      and\n        /* \"Escrow.sol\":3054:3085  escrow.challenger == address(0) */\n      iszero\n        /* \"Escrow.sol\":3046:3110  require(escrow.challenger == address(0), \"Bet already accepted\") */\n      tag_136\n      jumpi\n      mload(0x40)\n      shl(0xe5, 0x461bcd)\n      dup2\n      mstore\n        /* \"#utility.yul\":8557:8559   */\n      0x20\n        /* \"Escrow.sol\":3046:3110  require(escrow.challenger == address(0), \"Bet already accepted\") */\n      0x04\n      dup3\n      add\n        /* \"#utility.yul\":8539:8560   */\n      mstore\n        /* \"#utility.yul\":8596:8598   */\n      0x14\n        /* \"#utility.yul\":8576:8594   */\n      0x24\n      dup3\n      add\n        /* \"#utility.yul\":8569:8599   */\n      mstore\n      shl(0x62, 0x10995d08185b1c9958591e481858d8d95c1d1959)\n        /* \"#utility.yul\":8615:8633   */\n      0x44\n      dup3\n      add\n        /* \"#utility.yul\":8608:8658   */\n      mstore\n        /* \"#utility.yul\":8675:8693   */\n      0x64\n      add\n        /* \"Escrow.sol\":3046:3110  require(escrow.challenger == address(0), \"Bet already accepted\") */\n      tag_60\n        /* \"#utility.yul\":8355:8699   */\n      jump\n        /* \"Escrow.sol\":3046:3110  require(escrow.challenger == address(0), \"Bet already accepted\") */\n    tag_136:\n        /* \"Escrow.sol\":3142:3160  escrow.totalAmount */\n      0x05\n      dup2\n      add\n      sload\n      sub(shl(0x80, 0x01), 0x01)\n      and\n        /* \"Escrow.sol\":3129:3138  msg.value */\n      callvalue\n        /* \"Escrow.sol\":3129:3160  msg.value == escrow.totalAmount */\n      eq\n        /* \"Escrow.sol\":3121:3181  require(msg.value == escrow.totalAmount, \"Stake must match\") */\n      tag_139\n      jumpi\n      mload(0x40)\n      shl(0xe5, 0x461bcd)\n      dup2\n      mstore\n        /* \"#utility.yul\":8906:8908   */\n      0x20\n        /* \"Escrow.sol\":3121:3181  require(msg.value == escrow.totalAmount, \"Stake must match\") */\n      0x04\n      dup3\n      add\n        /* \"#utility.yul\":8888:8909   */\n      mstore\n        /* \"#utility.yul\":8945:8947   */\n      0x10\n        /* \"#utility.yul\":8925:8943   */\n      0x24\n      dup3\n      add\n        /* \"#utility.yul\":8918:8948   */\n      mstore\n      shl(0x83, 0x0a6e8c2d6ca40daeae6e840dac2e8c6d)\n        /* \"#utility.yul\":8964:8982   */\n      0x44\n      dup3\n      add\n        /* \"#utility.yul\":8957:9003   */\n      mstore\n        /* \"#utility.yul\":9020:9038   */\n      0x64\n      add\n        /* \"Escrow.sol\":3121:3181  require(msg.value == escrow.totalAmount, \"Stake must match\") */\n      tag_60\n        /* \"#utility.yul\":8704:9044   */\n      jump\n        /* \"Escrow.sol\":3121:3181  require(msg.value == escrow.totalAmount, \"Stake must match\") */\n    tag_139:\n        /* \"Escrow.sol\":3210:3216  escrow */\n      dup1\n        /* \"Escrow.sol\":3210:3224  escrow.choiceA */\n      0x03\n      add\n      sload\n        /* \"Escrow.sol\":3200:3206  choice */\n      dup3\n        /* \"Escrow.sol\":3200:3224  choice != escrow.choiceA */\n      sub\n        /* \"Escrow.sol\":3192:3252  require(choice != escrow.choiceA, \"Choice must be opposite\") */\n      tag_142\n      jumpi\n      mload(0x40)\n      shl(0xe5, 0x461bcd)\n      dup2\n      mstore\n        /* \"#utility.yul\":9251:9253   */\n      0x20\n        /* \"Escrow.sol\":3192:3252  require(choice != escrow.choiceA, \"Choice must be opposite\") */\n      0x04\n      dup3\n      add\n        /* \"#utility.yul\":9233:9254   */\n      mstore\n        /* \"#utility.yul\":9290:9292   */\n      0x17\n        /* \"#utility.yul\":9270:9288   */\n      0x24\n      dup3\n      add\n        /* \"#utility.yul\":9263:9293   */\n      mstore\n        /* \"#utility.yul\":9329:9354   */\n      0x43686f696365206d757374206265206f70706f73697465000000000000000000\n        /* \"#utility.yul\":9309:9327   */\n      0x44\n      dup3\n      add\n        /* \"#utility.yul\":9302:9355   */\n      mstore\n        /* \"#utility.yul\":9372:9390   */\n      0x64\n      add\n        /* \"Escrow.sol\":3192:3252  require(choice != escrow.choiceA, \"Choice must be opposite\") */\n      tag_60\n        /* \"#utility.yul\":9049:9396   */\n      jump\n        /* \"Escrow.sol\":3192:3252  require(choice != escrow.choiceA, \"Choice must be opposite\") */\n    tag_142:\n        /* \"Escrow.sol\":3265:3282  escrow.challenger */\n      0x02\n      dup2\n      add\n        /* \"Escrow.sol\":3265:3295  escrow.challenger = msg.sender */\n      dup1\n      sload\n      not(sub(shl(0xa0, 0x01), 0x01))\n      and\n        /* \"Escrow.sol\":3285:3295  msg.sender */\n      caller\n        /* \"Escrow.sol\":3265:3295  escrow.challenger = msg.sender */\n      or\n      swap1\n      sstore\n        /* \"Escrow.sol\":3306:3320  escrow.choiceB */\n      0x04\n      dup2\n      add\n        /* \"Escrow.sol\":3306:3329  escrow.choiceB = choice */\n      dup3\n      swap1\n      sstore\n        /* \"Escrow.sol\":3340:3358  escrow.totalAmount */\n      0x05\n      dup2\n      add\n        /* \"Escrow.sol\":3340:3380  escrow.totalAmount += uint128(msg.value) */\n      dup1\n      sload\n        /* \"Escrow.sol\":3370:3379  msg.value */\n      callvalue\n      swap2\n        /* \"Escrow.sol\":3340:3358  escrow.totalAmount */\n      swap1\n        /* \"Escrow.sol\":3265:3282  escrow.challenger */\n      0x00\n      swap1\n        /* \"Escrow.sol\":3340:3380  escrow.totalAmount += uint128(msg.value) */\n      tag_145\n      swap1\n        /* \"Escrow.sol\":3370:3379  msg.value */\n      dup5\n      swap1\n      sub(shl(0x80, 0x01), 0x01)\n        /* \"Escrow.sol\":3340:3380  escrow.totalAmount += uint128(msg.value) */\n      and\n      tag_146\n      jump\t// in\n    tag_145:\n      swap3\n      pop\n      0x0100\n      exp\n      dup2\n      sload\n      dup2\n      sub(shl(0x80, 0x01), 0x01)\n      mul\n      not\n      and\n      swap1\n      dup4\n      sub(shl(0x80, 0x01), 0x01)\n      and\n      mul\n      or\n      swap1\n      sstore\n      pop\n        /* \"Escrow.sol\":3422:3432  msg.sender */\n      caller\n      sub(shl(0xa0, 0x01), 0x01)\n        /* \"Escrow.sol\":3399:3441  BetAccepted(storeHash, msg.sender, choice) */\n      and\n        /* \"Escrow.sol\":3411:3420  storeHash */\n      dup4\n        /* \"Escrow.sol\":3399:3441  BetAccepted(storeHash, msg.sender, choice) */\n      0x2210b79a525b03013b38fa6844f45ce06146f62c5f2a8beafc1605f4f87e17b5\n        /* \"Escrow.sol\":3434:3440  choice */\n      dup5\n        /* \"Escrow.sol\":3399:3441  BetAccepted(storeHash, msg.sender, choice) */\n      mload(0x40)\n      tag_147\n      swap2\n        /* \"#utility.yul\":160:185   */\n      dup2\n      mstore\n        /* \"#utility.yul\":148:150   */\n      0x20\n        /* \"#utility.yul\":133:151   */\n      add\n      swap1\n        /* \"#utility.yul\":14:191   */\n      jump\n        /* \"Escrow.sol\":3399:3441  BetAccepted(storeHash, msg.sender, choice) */\n    tag_147:\n      mload(0x40)\n      dup1\n      swap2\n      sub\n      swap1\n      log3\n        /* \"Escrow.sol\":2919:3449  {... */\n      pop\n        /* \"Escrow.sol\":2848:3449  function acceptBet(bytes32 storeHash, bytes32 choice) external payable {... */\n      pop\n      pop\n      jump\t// out\n        /* \"@openzeppelin/contracts/security/ReentrancyGuard.sol\":2336:2623  function _nonReentrantBefore() private {... */\n    tag_57:\n        /* \"@openzeppelin/contracts/security/ReentrancyGuard.sol\":1759:1760  2 */\n      0x02\n        /* \"@openzeppelin/contracts/security/ReentrancyGuard.sol\":2468:2475  _status */\n      sload(0x00)\n        /* \"@openzeppelin/contracts/security/ReentrancyGuard.sol\":2468:2487  _status != _ENTERED */\n      sub\n        /* \"@openzeppelin/contracts/security/ReentrancyGuard.sol\":2460:2523  require(_status != _ENTERED, \"ReentrancyGuard: reentrant call\") */\n      tag_150\n      jumpi\n      mload(0x40)\n      shl(0xe5, 0x461bcd)\n      dup2\n      mstore\n        /* \"#utility.yul\":9848:9850   */\n      0x20\n        /* \"@openzeppelin/contracts/security/ReentrancyGuard.sol\":2460:2523  require(_status != _ENTERED, \"ReentrancyGuard: reentrant call\") */\n      0x04\n      dup3\n      add\n        /* \"#utility.yul\":9830:9851   */\n      mstore\n        /* \"#utility.yul\":9887:9889   */\n      0x1f\n        /* \"#utility.yul\":9867:9885   */\n      0x24\n      dup3\n      add\n        /* \"#utility.yul\":9860:9890   */\n      mstore\n        /* \"#utility.yul\":9926:9959   */\n      0x5265656e7472616e637947756172643a207265656e7472616e742063616c6c00\n        /* \"#utility.yul\":9906:9924   */\n      0x44\n      dup3\n      add\n        /* \"#utility.yul\":9899:9960   */\n      mstore\n        /* \"#utility.yul\":9977:9995   */\n      0x64\n      add\n        /* \"@openzeppelin/contracts/security/ReentrancyGuard.sol\":2460:2523  require(_status != _ENTERED, \"ReentrancyGuard: reentrant call\") */\n      tag_60\n        /* \"#utility.yul\":9646:10001   */\n      jump\n        /* \"@openzeppelin/contracts/security/ReentrancyGuard.sol\":2460:2523  require(_status != _ENTERED, \"ReentrancyGuard: reentrant call\") */\n    tag_150:\n        /* \"@openzeppelin/contracts/security/ReentrancyGuard.sol\":1759:1760  2 */\n      0x02\n        /* \"@openzeppelin/contracts/security/ReentrancyGuard.sol\":2598:2605  _status */\n      0x00\n        /* \"@openzeppelin/contracts/security/ReentrancyGuard.sol\":2598:2616  _status = _ENTERED */\n      sstore\n        /* \"@openzeppelin/contracts/security/ReentrancyGuard.sol\":2336:2623  function _nonReentrantBefore() private {... */\n      jump\t// out\n        /* \"#utility.yul\":196:422   */\n    tag_24:\n        /* \"#utility.yul\":255:261   */\n      0x00\n        /* \"#utility.yul\":308:310   */\n      0x20\n        /* \"#utility.yul\":296:305   */\n      dup3\n        /* \"#utility.yul\":287:294   */\n      dup5\n        /* \"#utility.yul\":283:306   */\n      sub\n        /* \"#utility.yul\":279:311   */\n      slt\n        /* \"#utility.yul\":276:328   */\n      iszero\n      tag_159\n      jumpi\n        /* \"#utility.yul\":324:325   */\n      0x00\n        /* \"#utility.yul\":321:322   */\n      dup1\n        /* \"#utility.yul\":314:326   */\n      revert\n        /* \"#utility.yul\":276:328   */\n    tag_159:\n      pop\n        /* \"#utility.yul\":369:392   */\n      calldataload\n      swap2\n        /* \"#utility.yul\":196:422   */\n      swap1\n      pop\n      jump\t// out\n        /* \"#utility.yul\":427:600   */\n    tag_154:\n        /* \"#utility.yul\":495:515   */\n      dup1\n      calldataload\n      sub(shl(0xa0, 0x01), 0x01)\n        /* \"#utility.yul\":544:575   */\n      dup2\n      and\n        /* \"#utility.yul\":534:576   */\n      dup2\n      eq\n        /* \"#utility.yul\":524:594   */\n      tag_161\n      jumpi\n        /* \"#utility.yul\":590:591   */\n      0x00\n        /* \"#utility.yul\":587:588   */\n      dup1\n        /* \"#utility.yul\":580:592   */\n      revert\n        /* \"#utility.yul\":524:594   */\n    tag_161:\n        /* \"#utility.yul\":427:600   */\n      swap2\n      swap1\n      pop\n      jump\t// out\n        /* \"#utility.yul\":605:1025   */\n    tag_28:\n        /* \"#utility.yul\":682:688   */\n      0x00\n        /* \"#utility.yul\":690:696   */\n      dup1\n        /* \"#utility.yul\":698:704   */\n      0x00\n        /* \"#utility.yul\":751:753   */\n      0x60\n        /* \"#utility.yul\":739:748   */\n      dup5\n        /* \"#utility.yul\":730:737   */\n      dup7\n        /* \"#utility.yul\":726:749   */\n      sub\n        /* \"#utility.yul\":722:754   */\n      slt\n        /* \"#utility.yul\":719:771   */\n      iszero\n      tag_163\n      jumpi\n        /* \"#utility.yul\":767:768   */\n      0x00\n        /* \"#utility.yul\":764:765   */\n      dup1\n        /* \"#utility.yul\":757:769   */\n      revert\n        /* \"#utility.yul\":719:771   */\n    tag_163:\n        /* \"#utility.yul\":812:835   */\n      dup4\n      calldataload\n      swap3\n      pop\n        /* \"#utility.yul\":932:934   */\n      0x20\n        /* \"#utility.yul\":917:935   */\n      dup5\n      add\n        /* \"#utility.yul\":904:936   */\n      calldataload\n      swap2\n      pop\n        /* \"#utility.yul\":981:1019   */\n      tag_164\n        /* \"#utility.yul\":1015:1017   */\n      0x40\n        /* \"#utility.yul\":1000:1018   */\n      dup6\n      add\n        /* \"#utility.yul\":981:1019   */\n      tag_154\n      jump\t// in\n    tag_164:\n        /* \"#utility.yul\":971:1019   */\n      swap1\n      pop\n        /* \"#utility.yul\":605:1025   */\n      swap3\n      pop\n      swap3\n      pop\n      swap3\n      jump\t// out\n        /* \"#utility.yul\":1030:1330   */\n    tag_33:\n        /* \"#utility.yul\":1098:1104   */\n      0x00\n        /* \"#utility.yul\":1106:1112   */\n      dup1\n        /* \"#utility.yul\":1159:1161   */\n      0x40\n        /* \"#utility.yul\":1147:1156   */\n      dup4\n        /* \"#utility.yul\":1138:1145   */\n      dup6\n        /* \"#utility.yul\":1134:1157   */\n      sub\n        /* \"#utility.yul\":1130:1162   */\n      slt\n        /* \"#utility.yul\":1127:1179   */\n      iszero\n      tag_166\n      jumpi\n        /* \"#utility.yul\":1175:1176   */\n      0x00\n        /* \"#utility.yul\":1172:1173   */\n      dup1\n        /* \"#utility.yul\":1165:1177   */\n      revert\n        /* \"#utility.yul\":1127:1179   */\n    tag_166:\n        /* \"#utility.yul\":1220:1243   */\n      dup3\n      calldataload\n      swap2\n      pop\n        /* \"#utility.yul\":1286:1324   */\n      tag_167\n        /* \"#utility.yul\":1320:1322   */\n      0x20\n        /* \"#utility.yul\":1305:1323   */\n      dup5\n      add\n        /* \"#utility.yul\":1286:1324   */\n      tag_154\n      jump\t// in\n    tag_167:\n        /* \"#utility.yul\":1276:1324   */\n      swap1\n      pop\n        /* \"#utility.yul\":1030:1330   */\n      swap3\n      pop\n      swap3\n      swap1\n      pop\n      jump\t// out\n        /* \"#utility.yul\":2314:2660   */\n    tag_48:\n        /* \"#utility.yul\":2382:2388   */\n      0x00\n        /* \"#utility.yul\":2390:2396   */\n      dup1\n        /* \"#utility.yul\":2443:2445   */\n      0x40\n        /* \"#utility.yul\":2431:2440   */\n      dup4\n        /* \"#utility.yul\":2422:2429   */\n      dup6\n        /* \"#utility.yul\":2418:2441   */\n      sub\n        /* \"#utility.yul\":2414:2446   */\n      slt\n        /* \"#utility.yul\":2411:2463   */\n      iszero\n      tag_171\n      jumpi\n        /* \"#utility.yul\":2459:2460   */\n      0x00\n        /* \"#utility.yul\":2456:2457   */\n      dup1\n        /* \"#utility.yul\":2449:2461   */\n      revert\n        /* \"#utility.yul\":2411:2463   */\n    tag_171:\n      pop\n      pop\n        /* \"#utility.yul\":2504:2527   */\n      dup1\n      calldataload\n      swap3\n        /* \"#utility.yul\":2624:2626   */\n      0x20\n        /* \"#utility.yul\":2609:2627   */\n      swap1\n      swap2\n      add\n        /* \"#utility.yul\":2596:2628   */\n      calldataload\n      swap2\n      pop\n        /* \"#utility.yul\":2314:2660   */\n      jump\t// out\n        /* \"#utility.yul\":4056:4183   */\n    tag_155:\n        /* \"#utility.yul\":4117:4127   */\n      0x4e487b71\n        /* \"#utility.yul\":4112:4115   */\n      0xe0\n        /* \"#utility.yul\":4108:4128   */\n      shl\n        /* \"#utility.yul\":4105:4106   */\n      0x00\n        /* \"#utility.yul\":4098:4129   */\n      mstore\n        /* \"#utility.yul\":4148:4152   */\n      0x11\n        /* \"#utility.yul\":4145:4146   */\n      0x04\n        /* \"#utility.yul\":4138:4153   */\n      mstore\n        /* \"#utility.yul\":4172:4176   */\n      0x24\n        /* \"#utility.yul\":4169:4170   */\n      0x00\n        /* \"#utility.yul\":4162:4177   */\n      revert\n        /* \"#utility.yul\":4188:4405   */\n    tag_72:\n        /* \"#utility.yul\":4228:4229   */\n      0x00\n        /* \"#utility.yul\":4254:4255   */\n      dup3\n        /* \"#utility.yul\":4244:4376   */\n      tag_178\n      jumpi\n        /* \"#utility.yul\":4298:4308   */\n      0x4e487b71\n        /* \"#utility.yul\":4293:4296   */\n      0xe0\n        /* \"#utility.yul\":4289:4309   */\n      shl\n        /* \"#utility.yul\":4286:4287   */\n      0x00\n        /* \"#utility.yul\":4279:4310   */\n      mstore\n        /* \"#utility.yul\":4333:4337   */\n      0x12\n        /* \"#utility.yul\":4330:4331   */\n      0x04\n        /* \"#utility.yul\":4323:4338   */\n      mstore\n        /* \"#utility.yul\":4361:4365   */\n      0x24\n        /* \"#utility.yul\":4358:4359   */\n      0x00\n        /* \"#utility.yul\":4351:4366   */\n      revert\n        /* \"#utility.yul\":4244:4376   */\n    tag_178:\n      pop\n        /* \"#utility.yul\":4390:4399   */\n      div\n      swap1\n        /* \"#utility.yul\":4188:4405   */\n      jump\t// out\n        /* \"#utility.yul\":4410:4538   */\n    tag_74:\n        /* \"#utility.yul\":4477:4486   */\n      dup2\n      dup2\n      sub\n        /* \"#utility.yul\":4498:4509   */\n      dup2\n      dup2\n      gt\n        /* \"#utility.yul\":4495:4532   */\n      iszero\n      tag_181\n      jumpi\n        /* \"#utility.yul\":4512:4530   */\n      tag_181\n      tag_155\n      jump\t// in\n    tag_181:\n        /* \"#utility.yul\":4410:4538   */\n      swap3\n      swap2\n      pop\n      pop\n      jump\t// out\n        /* \"#utility.yul\":6487:6622   */\n    tag_104:\n        /* \"#utility.yul\":6526:6529   */\n      0x00\n        /* \"#utility.yul\":6547:6564   */\n      0x01\n      dup3\n      add\n        /* \"#utility.yul\":6544:6587   */\n      tag_190\n      jumpi\n        /* \"#utility.yul\":6567:6585   */\n      tag_190\n      tag_155\n      jump\t// in\n    tag_190:\n      pop\n        /* \"#utility.yul\":6614:6615   */\n      0x01\n        /* \"#utility.yul\":6603:6616   */\n      add\n      swap1\n        /* \"#utility.yul\":6487:6622   */\n      jump\t// out\n        /* \"#utility.yul\":9401:9641   */\n    tag_146:\n      sub(shl(0x80, 0x01), 0x01)\n        /* \"#utility.yul\":9470:9512   */\n      dup2\n      dup2\n      and\n        /* \"#utility.yul\":9514:9556   */\n      dup4\n      dup3\n      and\n        /* \"#utility.yul\":9466:9557   */\n      add\n      swap1\n        /* \"#utility.yul\":9569:9612   */\n      dup2\n      gt\n        /* \"#utility.yul\":9566:9635   */\n      iszero\n      tag_181\n      jumpi\n        /* \"#utility.yul\":9615:9633   */\n      tag_181\n      tag_155\n      jump\t// in\n\n    auxdata: 0xa264697066735822122039ae4bd58546858bc3f7dbdc3050ed5ce3a5d13880a2746b59d6fc0de76649f664736f6c634300081a0033\n}\n",
				"bytecode": {
					"linkReferences": {},
					"object": "6080604052348015600e575f80fd5b5060015f55610e37806100205f395ff3fe608060405260043610610084575f3560e01c80637d25e89d116100575780637d25e89d14610135578063a0946f9214610154578063a416f5ab14610223578063f4aa99df14610238578063fffc78011461024b575f80fd5b806316c30ebc14610088578063530adbb4146100ce57806356fcb255146101015780636d4e0c8e14610122575b5f80fd5b348015610093575f80fd5b506100bb7f326d994cdb81aaccb84aa1f62bae636dc0aaf98ab22f66b0c9224f1edccd7cc981565b6040519081526020015b60405180910390f35b3480156100d9575f80fd5b506100bb7fae8b6f0f354448b9bed217dcbb6effc6cc52560477cd31206503fbd937f7a37881565b34801561010c575f80fd5b5061012061011b366004610cd0565b610282565b005b610120610130366004610d02565b610565565b348015610140575f80fd5b5061012061014f366004610d34565b6107b8565b34801561015f575f80fd5b506101cf61016e366004610cd0565b600160208190525f91825260409091208054918101546002820154600383015460048401546005909401546001600160a01b039384169492909316929091906001600160801b0381169060ff600160801b8204811691600160881b90041688565b604080519889526001600160a01b0397881660208a01529590961694870194909452606086019290925260808501526001600160801b031660a0840152151560c0830152151560e0820152610100016100c5565b34801561022e575f80fd5b506100bb60025481565b610120610246366004610d5e565b610a82565b348015610256575f80fd5b506100bb610265366004610cd0565b5f908152600160205260409020600501546001600160801b031690565b61028a610c79565b5f8181526001602052604090206005810154600160801b900460ff166102ee5760405162461bcd60e51b8152602060048201526014602482015273457363726f77206973206e6f742061637469766560601b60448201526064015b60405180910390fd5b6005810154600160881b900460ff16156103415760405162461bcd60e51b815260206004820152601460248201527310995d08185b1c9958591e481c995cdbdb1d995960621b60448201526064016102e5565b60028101546001600160a01b031661038e5760405162461bcd60e51b815260206004820152601060248201526f10995d081b9bdd081858d8d95c1d195960821b60448201526064016102e5565b60058101546001600160801b03166103de5760405162461bcd60e51b81526020600482015260136024820152724e6f2066756e647320746f2072656c6561736560681b60448201526064016102e5565b60058101805461ffff60801b198116600160881b179091556001600160801b03165f61040b600283610d92565b90505f6104188284610db1565b6005850180546fffffffffffffffffffffffffffffffff1916905560405190915085907f57b2458f42361feee979da84b5231c7cdaa26d4bb556d06accb1eca7eec98ada905f90a260018401546040515f916001600160a01b03169084908381818185875af1925050503d805f81146104ac576040519150601f19603f3d011682016040523d82523d5f602084013e6104b1565b606091505b505060028601546040519192505f916001600160a01b039091169084908381818185875af1925050503d805f8114610504576040519150601f19603f3d011682016040523d82523d5f602084013e610509565b606091505b505090508180156105175750805b6105535760405162461bcd60e51b815260206004820152600d60248201526c1499599d5b990819985a5b1959609a1b60448201526064016102e5565b50505050505061056260015f55565b50565b5f34116105a65760405162461bcd60e51b815260206004820152600f60248201526e125b9d985b1a590819195c1bdcda5d608a1b60448201526064016102e5565b6001600160801b033411156105f05760405162461bcd60e51b815260206004820152601060248201526f416d6f756e7420746f6f206c6172676560801b60448201526064016102e5565b6001600160a01b0381166106465760405162461bcd60e51b815260206004820152601860248201527f496e76616c6964206163636570746f722061646472657373000000000000000060448201526064016102e5565b336001600160a01b038216036106965760405162461bcd60e51b815260206004820152601560248201527410d85b9b9bdd081858d8d95c1d081bdddb8818995d605a1b60448201526064016102e5565b600280545f91826106a683610dca565b909155506040805160208101929092526bffffffffffffffffffffffff193360601b169082015260540160408051601f1981840301815282825280516020918201205f81815260018084529084902089815590810180546001600160a01b031916339081179091556003820189905560058201805470ffffffffffffffffffffffffffffffffff19166001600160801b033490811691909117600160801b179091557f326d994cdb81aaccb84aa1f62bae636dc0aaf98ab22f66b0c9224f1edccd7cc987529386018a9052938501889052606085019290925293509183907f9d5e739e1c9fc40e31321ed7800925b6c7a9a458fc4c4708a66f96aa00778d9c9060800160405180910390a35050505050565b6107c0610c79565b5f8281526001602052604090206005810154600160801b900460ff1661081f5760405162461bcd60e51b8152602060048201526014602482015273457363726f77206973206e6f742061637469766560601b60448201526064016102e5565b6005810154600160881b900460ff16156108725760405162461bcd60e51b815260206004820152601460248201527310995d08185b1c9958591e481c995cdbdb1d995960621b60448201526064016102e5565b60028101546001600160a01b03166108bf5760405162461bcd60e51b815260206004820152601060248201526f10995d081b9bdd081858d8d95c1d195960821b60448201526064016102e5565b60058101546001600160801b031661090f5760405162461bcd60e51b81526020600482015260136024820152724e6f2066756e647320746f2072656c6561736560681b60448201526064016102e5565b60018101546001600160a01b038381169116148061093c575060028101546001600160a01b038381169116145b6109795760405162461bcd60e51b815260206004820152600e60248201526d24b73b30b634b2103bb4b73732b960911b60448201526064016102e5565b60058101805471ffffffffffffffffffffffffffffffffffff198116600160881b179091556040516001600160801b03909116906001600160a01b03841690829086907fa20198858d673ac3cf5d6f62c85cb502c39af8269735c0ef6774aff58154a429905f90a45f836001600160a01b0316826040515f6040518083038185875af1925050503d805f8114610a2a576040519150601f19603f3d011682016040523d82523d5f602084013e610a2f565b606091505b5050905080610a725760405162461bcd60e51b815260206004820152600f60248201526e151c985b9cd9995c8819985a5b1959608a1b60448201526064016102e5565b505050610a7e60015f55565b5050565b5f8281526001602052604090206005810154600160801b900460ff16610ade5760405162461bcd60e51b8152602060048201526011602482015270426574206973206e6f742061637469766560781b60448201526064016102e5565b60028101546001600160a01b031615610b305760405162461bcd60e51b815260206004820152601460248201527310995d08185b1c9958591e481858d8d95c1d195960621b60448201526064016102e5565b60058101546001600160801b03163414610b7f5760405162461bcd60e51b815260206004820152601060248201526f0a6e8c2d6ca40daeae6e840dac2e8c6d60831b60448201526064016102e5565b80600301548203610bd25760405162461bcd60e51b815260206004820152601760248201527f43686f696365206d757374206265206f70706f7369746500000000000000000060448201526064016102e5565b6002810180546001600160a01b03191633179055600481018290556005810180543491905f90610c0c9084906001600160801b0316610de2565b92506101000a8154816001600160801b0302191690836001600160801b03160217905550336001600160a01b0316837f2210b79a525b03013b38fa6844f45ce06146f62c5f2a8beafc1605f4f87e17b584604051610c6c91815260200190565b60405180910390a3505050565b60025f5403610cca5760405162461bcd60e51b815260206004820152601f60248201527f5265656e7472616e637947756172643a207265656e7472616e742063616c6c0060448201526064016102e5565b60025f55565b5f60208284031215610ce0575f80fd5b5035919050565b80356001600160a01b0381168114610cfd575f80fd5b919050565b5f805f60608486031215610d14575f80fd5b8335925060208401359150610d2b60408501610ce7565b90509250925092565b5f8060408385031215610d45575f80fd5b82359150610d5560208401610ce7565b90509250929050565b5f8060408385031215610d6f575f80fd5b50508035926020909101359150565b634e487b7160e01b5f52601160045260245ffd5b5f82610dac57634e487b7160e01b5f52601260045260245ffd5b500490565b81810381811115610dc457610dc4610d7e565b92915050565b5f60018201610ddb57610ddb610d7e565b5060010190565b6001600160801b038181168382160190811115610dc457610dc4610d7e56fea264697066735822122039ae4bd58546858bc3f7dbdc3050ed5ce3a5d13880a2746b59d6fc0de76649f664736f6c634300081a0033",
					"opcodes": "PUSH1 0x80 PUSH1 0x40 MSTORE CALLVALUE DUP1 ISZERO PUSH1 0xE JUMPI PUSH0 DUP1 REVERT JUMPDEST POP PUSH1 0x1 PUSH0 SSTORE PUSH2 0xE37 DUP1 PUSH2 0x20 PUSH0 CODECOPY PUSH0 RETURN INVALID PUSH1 0x80 PUSH1 0x40 MSTORE PUSH1 0x4 CALLDATASIZE LT PUSH2 0x84 JUMPI PUSH0 CALLDATALOAD PUSH1 0xE0 SHR DUP1 PUSH4 0x7D25E89D GT PUSH2 0x57 JUMPI DUP1 PUSH4 0x7D25E89D EQ PUSH2 0x135 JUMPI DUP1 PUSH4 0xA0946F92 EQ PUSH2 0x154 JUMPI DUP1 PUSH4 0xA416F5AB EQ PUSH2 0x223 JUMPI DUP1 PUSH4 0xF4AA99DF EQ PUSH2 0x238 JUMPI DUP1 PUSH4 0xFFFC7801 EQ PUSH2 0x24B JUMPI PUSH0 DUP1 REVERT JUMPDEST DUP1 PUSH4 0x16C30EBC EQ PUSH2 0x88 JUMPI DUP1 PUSH4 0x530ADBB4 EQ PUSH2 0xCE JUMPI DUP1 PUSH4 0x56FCB255 EQ PUSH2 0x101 JUMPI DUP1 PUSH4 0x6D4E0C8E EQ PUSH2 0x122 JUMPI JUMPDEST PUSH0 DUP1 REVERT JUMPDEST CALLVALUE DUP1 ISZERO PUSH2 0x93 JUMPI PUSH0 DUP1 REVERT JUMPDEST POP PUSH2 0xBB PUSH32 0x326D994CDB81AACCB84AA1F62BAE636DC0AAF98AB22F66B0C9224F1EDCCD7CC9 DUP2 JUMP JUMPDEST PUSH1 0x40 MLOAD SWAP1 DUP2 MSTORE PUSH1 0x20 ADD JUMPDEST PUSH1 0x40 MLOAD DUP1 SWAP2 SUB SWAP1 RETURN JUMPDEST CALLVALUE DUP1 ISZERO PUSH2 0xD9 JUMPI PUSH0 DUP1 REVERT JUMPDEST POP PUSH2 0xBB PUSH32 0xAE8B6F0F354448B9BED217DCBB6EFFC6CC52560477CD31206503FBD937F7A378 DUP2 JUMP JUMPDEST CALLVALUE DUP1 ISZERO PUSH2 0x10C JUMPI PUSH0 DUP1 REVERT JUMPDEST POP PUSH2 0x120 PUSH2 0x11B CALLDATASIZE PUSH1 0x4 PUSH2 0xCD0 JUMP JUMPDEST PUSH2 0x282 JUMP JUMPDEST STOP JUMPDEST PUSH2 0x120 PUSH2 0x130 CALLDATASIZE PUSH1 0x4 PUSH2 0xD02 JUMP JUMPDEST PUSH2 0x565 JUMP JUMPDEST CALLVALUE DUP1 ISZERO PUSH2 0x140 JUMPI PUSH0 DUP1 REVERT JUMPDEST POP PUSH2 0x120 PUSH2 0x14F CALLDATASIZE PUSH1 0x4 PUSH2 0xD34 JUMP JUMPDEST PUSH2 0x7B8 JUMP JUMPDEST CALLVALUE DUP1 ISZERO PUSH2 0x15F JUMPI PUSH0 DUP1 REVERT JUMPDEST POP PUSH2 0x1CF PUSH2 0x16E CALLDATASIZE PUSH1 0x4 PUSH2 0xCD0 JUMP JUMPDEST PUSH1 0x1 PUSH1 0x20 DUP2 SWAP1 MSTORE PUSH0 SWAP2 DUP3 MSTORE PUSH1 0x40 SWAP1 SWAP2 KECCAK256 DUP1 SLOAD SWAP2 DUP2 ADD SLOAD PUSH1 0x2 DUP3 ADD SLOAD PUSH1 0x3 DUP4 ADD SLOAD PUSH1 0x4 DUP5 ADD SLOAD PUSH1 0x5 SWAP1 SWAP5 ADD SLOAD PUSH1 0x1 PUSH1 0x1 PUSH1 0xA0 SHL SUB SWAP4 DUP5 AND SWAP5 SWAP3 SWAP1 SWAP4 AND SWAP3 SWAP1 SWAP2 SWAP1 PUSH1 0x1 PUSH1 0x1 PUSH1 0x80 SHL SUB DUP2 AND SWAP1 PUSH1 0xFF PUSH1 0x1 PUSH1 0x80 SHL DUP3 DIV DUP2 AND SWAP2 PUSH1 0x1 PUSH1 0x88 SHL SWAP1 DIV AND DUP9 JUMP JUMPDEST PUSH1 0x40 DUP1 MLOAD SWAP9 DUP10 MSTORE PUSH1 0x1 PUSH1 0x1 PUSH1 0xA0 SHL SUB SWAP8 DUP9 AND PUSH1 0x20 DUP11 ADD MSTORE SWAP6 SWAP1 SWAP7 AND SWAP5 DUP8 ADD SWAP5 SWAP1 SWAP5 MSTORE PUSH1 0x60 DUP7 ADD SWAP3 SWAP1 SWAP3 MSTORE PUSH1 0x80 DUP6 ADD MSTORE PUSH1 0x1 PUSH1 0x1 PUSH1 0x80 SHL SUB AND PUSH1 0xA0 DUP5 ADD MSTORE ISZERO ISZERO PUSH1 0xC0 DUP4 ADD MSTORE ISZERO ISZERO PUSH1 0xE0 DUP3 ADD MSTORE PUSH2 0x100 ADD PUSH2 0xC5 JUMP JUMPDEST CALLVALUE DUP1 ISZERO PUSH2 0x22E JUMPI PUSH0 DUP1 REVERT JUMPDEST POP PUSH2 0xBB PUSH1 0x2 SLOAD DUP2 JUMP JUMPDEST PUSH2 0x120 PUSH2 0x246 CALLDATASIZE PUSH1 0x4 PUSH2 0xD5E JUMP JUMPDEST PUSH2 0xA82 JUMP JUMPDEST CALLVALUE DUP1 ISZERO PUSH2 0x256 JUMPI PUSH0 DUP1 REVERT JUMPDEST POP PUSH2 0xBB PUSH2 0x265 CALLDATASIZE PUSH1 0x4 PUSH2 0xCD0 JUMP JUMPDEST PUSH0 SWAP1 DUP2 MSTORE PUSH1 0x1 PUSH1 0x20 MSTORE PUSH1 0x40 SWAP1 KECCAK256 PUSH1 0x5 ADD SLOAD PUSH1 0x1 PUSH1 0x1 PUSH1 0x80 SHL SUB AND SWAP1 JUMP JUMPDEST PUSH2 0x28A PUSH2 0xC79 JUMP JUMPDEST PUSH0 DUP2 DUP2 MSTORE PUSH1 0x1 PUSH1 0x20 MSTORE PUSH1 0x40 SWAP1 KECCAK256 PUSH1 0x5 DUP2 ADD SLOAD PUSH1 0x1 PUSH1 0x80 SHL SWAP1 DIV PUSH1 0xFF AND PUSH2 0x2EE JUMPI PUSH1 0x40 MLOAD PUSH3 0x461BCD PUSH1 0xE5 SHL DUP2 MSTORE PUSH1 0x20 PUSH1 0x4 DUP3 ADD MSTORE PUSH1 0x14 PUSH1 0x24 DUP3 ADD MSTORE PUSH20 0x457363726F77206973206E6F7420616374697665 PUSH1 0x60 SHL PUSH1 0x44 DUP3 ADD MSTORE PUSH1 0x64 ADD JUMPDEST PUSH1 0x40 MLOAD DUP1 SWAP2 SUB SWAP1 REVERT JUMPDEST PUSH1 0x5 DUP2 ADD SLOAD PUSH1 0x1 PUSH1 0x88 SHL SWAP1 DIV PUSH1 0xFF AND ISZERO PUSH2 0x341 JUMPI PUSH1 0x40 MLOAD PUSH3 0x461BCD PUSH1 0xE5 SHL DUP2 MSTORE PUSH1 0x20 PUSH1 0x4 DUP3 ADD MSTORE PUSH1 0x14 PUSH1 0x24 DUP3 ADD MSTORE PUSH20 0x10995D08185B1C9958591E481C995CDBDB1D9959 PUSH1 0x62 SHL PUSH1 0x44 DUP3 ADD MSTORE PUSH1 0x64 ADD PUSH2 0x2E5 JUMP JUMPDEST PUSH1 0x2 DUP2 ADD SLOAD PUSH1 0x1 PUSH1 0x1 PUSH1 0xA0 SHL SUB AND PUSH2 0x38E JUMPI PUSH1 0x40 MLOAD PUSH3 0x461BCD PUSH1 0xE5 SHL DUP2 MSTORE PUSH1 0x20 PUSH1 0x4 DUP3 ADD MSTORE PUSH1 0x10 PUSH1 0x24 DUP3 ADD MSTORE PUSH16 0x10995D081B9BDD081858D8D95C1D1959 PUSH1 0x82 SHL PUSH1 0x44 DUP3 ADD MSTORE PUSH1 0x64 ADD PUSH2 0x2E5 JUMP JUMPDEST PUSH1 0x5 DUP2 ADD SLOAD PUSH1 0x1 PUSH1 0x1 PUSH1 0x80 SHL SUB AND PUSH2 0x3DE JUMPI PUSH1 0x40 MLOAD PUSH3 0x461BCD PUSH1 0xE5 SHL DUP2 MSTORE PUSH1 0x20 PUSH1 0x4 DUP3 ADD MSTORE PUSH1 0x13 PUSH1 0x24 DUP3 ADD MSTORE PUSH19 0x4E6F2066756E647320746F2072656C65617365 PUSH1 0x68 SHL PUSH1 0x44 DUP3 ADD MSTORE PUSH1 0x64 ADD PUSH2 0x2E5 JUMP JUMPDEST PUSH1 0x5 DUP2 ADD DUP1 SLOAD PUSH2 0xFFFF PUSH1 0x80 SHL NOT DUP2 AND PUSH1 0x1 PUSH1 0x88 SHL OR SWAP1 SWAP2 SSTORE PUSH1 0x1 PUSH1 0x1 PUSH1 0x80 SHL SUB AND PUSH0 PUSH2 0x40B PUSH1 0x2 DUP4 PUSH2 0xD92 JUMP JUMPDEST SWAP1 POP PUSH0 PUSH2 0x418 DUP3 DUP5 PUSH2 0xDB1 JUMP JUMPDEST PUSH1 0x5 DUP6 ADD DUP1 SLOAD PUSH16 0xFFFFFFFFFFFFFFFFFFFFFFFFFFFFFFFF NOT AND SWAP1 SSTORE PUSH1 0x40 MLOAD SWAP1 SWAP2 POP DUP6 SWAP1 PUSH32 0x57B2458F42361FEEE979DA84B5231C7CDAA26D4BB556D06ACCB1ECA7EEC98ADA SWAP1 PUSH0 SWAP1 LOG2 PUSH1 0x1 DUP5 ADD SLOAD PUSH1 0x40 MLOAD PUSH0 SWAP2 PUSH1 0x1 PUSH1 0x1 PUSH1 0xA0 SHL SUB AND SWAP1 DUP5 SWAP1 DUP4 DUP2 DUP2 DUP2 DUP6 DUP8 GAS CALL SWAP3 POP POP POP RETURNDATASIZE DUP1 PUSH0 DUP2 EQ PUSH2 0x4AC JUMPI PUSH1 0x40 MLOAD SWAP2 POP PUSH1 0x1F NOT PUSH1 0x3F RETURNDATASIZE ADD AND DUP3 ADD PUSH1 0x40 MSTORE RETURNDATASIZE DUP3 MSTORE RETURNDATASIZE PUSH0 PUSH1 0x20 DUP5 ADD RETURNDATACOPY PUSH2 0x4B1 JUMP JUMPDEST PUSH1 0x60 SWAP2 POP JUMPDEST POP POP PUSH1 0x2 DUP7 ADD SLOAD PUSH1 0x40 MLOAD SWAP2 SWAP3 POP PUSH0 SWAP2 PUSH1 0x1 PUSH1 0x1 PUSH1 0xA0 SHL SUB SWAP1 SWAP2 AND SWAP1 DUP5 SWAP1 DUP4 DUP2 DUP2 DUP2 DUP6 DUP8 GAS CALL SWAP3 POP POP POP RETURNDATASIZE DUP1 PUSH0 DUP2 EQ PUSH2 0x504 JUMPI PUSH1 0x40 MLOAD SWAP2 POP PUSH1 0x1F NOT PUSH1 0x3F RETURNDATASIZE ADD AND DUP3 ADD PUSH1 0x40 MSTORE RETURNDATASIZE DUP3 MSTORE RETURNDATASIZE PUSH0 PUSH1 0x20 DUP5 ADD RETURNDATACOPY PUSH2 0x509 JUMP JUMPDEST PUSH1 0x60 SWAP2 POP JUMPDEST POP POP SWAP1 POP DUP2 DUP1 ISZERO PUSH2 0x517 JUMPI POP DUP1 JUMPDEST PUSH2 0x553 JUMPI PUSH1 0x40 MLOAD PUSH3 0x461BCD PUSH1 0xE5 SHL DUP2 MSTORE PUSH1 0x20 PUSH1 0x4 DUP3 ADD MSTORE PUSH1 0xD PUSH1 0x24 DUP3 ADD MSTORE PUSH13 0x1499599D5B990819985A5B1959 PUSH1 0x9A SHL PUSH1 0x44 DUP3 ADD MSTORE PUSH1 0x64 ADD PUSH2 0x2E5 JUMP JUMPDEST POP POP POP POP POP POP PUSH2 0x562 PUSH1 0x1 PUSH0 SSTORE JUMP JUMPDEST POP JUMP JUMPDEST PUSH0 CALLVALUE GT PUSH2 0x5A6 JUMPI PUSH1 0x40 MLOAD PUSH3 0x461BCD PUSH1 0xE5 SHL DUP2 MSTORE PUSH1 0x20 PUSH1 0x4 DUP3 ADD MSTORE PUSH1 0xF PUSH1 0x24 DUP3 ADD MSTORE PUSH15 0x125B9D985B1A590819195C1BDCDA5D PUSH1 0x8A SHL PUSH1 0x44 DUP3 ADD MSTORE PUSH1 0x64 ADD PUSH2 0x2E5 JUMP JUMPDEST PUSH1 0x1 PUSH1 0x1 PUSH1 0x80 SHL SUB CALLVALUE GT ISZERO PUSH2 0x5F0 JUMPI PUSH1 0x40 MLOAD PUSH3 0x461BCD PUSH1 0xE5 SHL DUP2 MSTORE PUSH1 0x20 PUSH1 0x4 DUP3 ADD MSTORE PUSH1 0x10 PUSH1 0x24 DUP3 ADD MSTORE PUSH16 0x416D6F756E7420746F6F206C61726765 PUSH1 0x80 SHL PUSH1 0x44 DUP3 ADD MSTORE PUSH1 0x64 ADD PUSH2 0x2E5 JUMP JUMPDEST PUSH1 0x1 PUSH1 0x1 PUSH1 0xA0 SHL SUB DUP2 AND PUSH2 0x646 JUMPI PUSH1 0x40 MLOAD PUSH3 0x461BCD PUSH1 0xE5 SHL DUP2 MSTORE PUSH1 0x20 PUSH1 0x4 DUP3 ADD MSTORE PUSH1 0x18 PUSH1 0x24 DUP3 ADD MSTORE PUSH32 0x496E76616C6964206163636570746F7220616464726573730000000000000000 PUSH1 0x44 DUP3 ADD MSTORE PUSH1 0x64 ADD PUSH2 0x2E5 JUMP JUMPDEST CALLER PUSH1 0x1 PUSH1 0x1 PUSH1 0xA0 SHL SUB DUP3 AND SUB PUSH2 0x696 JUMPI PUSH1 0x40 MLOAD PUSH3 0x461BCD PUSH1 0xE5 SHL DUP2 MSTORE PUSH1 0x20 PUSH1 0x4 DUP3 ADD MSTORE PUSH1 0x15 PUSH1 0x24 DUP3 ADD MSTORE PUSH21 0x10D85B9B9BDD081858D8D95C1D081BDDDB8818995D PUSH1 0x5A SHL PUSH1 0x44 DUP3 ADD MSTORE PUSH1 0x64 ADD PUSH2 0x2E5 JUMP JUMPDEST PUSH1 0x2 DUP1 SLOAD PUSH0 SWAP2 DUP3 PUSH2 0x6A6 DUP4 PUSH2 0xDCA JUMP JUMPDEST SWAP1 SWAP2 SSTORE POP PUSH1 0x40 DUP1 MLOAD PUSH1 0x20 DUP2 ADD SWAP3 SWAP1 SWAP3 MSTORE PUSH12 0xFFFFFFFFFFFFFFFFFFFFFFFF NOT CALLER PUSH1 0x60 SHL AND SWAP1 DUP3 ADD MSTORE PUSH1 0x54 ADD PUSH1 0x40 DUP1 MLOAD PUSH1 0x1F NOT DUP2 DUP5 SUB ADD DUP2 MSTORE DUP3 DUP3 MSTORE DUP1 MLOAD PUSH1 0x20 SWAP2 DUP3 ADD KECCAK256 PUSH0 DUP2 DUP2 MSTORE PUSH1 0x1 DUP1 DUP5 MSTORE SWAP1 DUP5 SWAP1 KECCAK256 DUP10 DUP2 SSTORE SWAP1 DUP2 ADD DUP1 SLOAD PUSH1 0x1 PUSH1 0x1 PUSH1 0xA0 SHL SUB NOT AND CALLER SWAP1 DUP2 OR SWAP1 SWAP2 SSTORE PUSH1 0x3 DUP3 ADD DUP10 SWAP1 SSTORE PUSH1 0x5 DUP3 ADD DUP1 SLOAD PUSH17 0xFFFFFFFFFFFFFFFFFFFFFFFFFFFFFFFFFF NOT AND PUSH1 0x1 PUSH1 0x1 PUSH1 0x80 SHL SUB CALLVALUE SWAP1 DUP2 AND SWAP2 SWAP1 SWAP2 OR PUSH1 0x1 PUSH1 0x80 SHL OR SWAP1 SWAP2 SSTORE PUSH32 0x326D994CDB81AACCB84AA1F62BAE636DC0AAF98AB22F66B0C9224F1EDCCD7CC9 DUP8 MSTORE SWAP4 DUP7 ADD DUP11 SWAP1 MSTORE SWAP4 DUP6 ADD DUP9 SWAP1 MSTORE PUSH1 0x60 DUP6 ADD SWAP3 SWAP1 SWAP3 MSTORE SWAP4 POP SWAP2 DUP4 SWAP1 PUSH32 0x9D5E739E1C9FC40E31321ED7800925B6C7A9A458FC4C4708A66F96AA00778D9C SWAP1 PUSH1 0x80 ADD PUSH1 0x40 MLOAD DUP1 SWAP2 SUB SWAP1 LOG3 POP POP POP POP POP JUMP JUMPDEST PUSH2 0x7C0 PUSH2 0xC79 JUMP JUMPDEST PUSH0 DUP3 DUP2 MSTORE PUSH1 0x1 PUSH1 0x20 MSTORE PUSH1 0x40 SWAP1 KECCAK256 PUSH1 0x5 DUP2 ADD SLOAD PUSH1 0x1 PUSH1 0x80 SHL SWAP1 DIV PUSH1 0xFF AND PUSH2 0x81F JUMPI PUSH1 0x40 MLOAD PUSH3 0x461BCD PUSH1 0xE5 SHL DUP2 MSTORE PUSH1 0x20 PUSH1 0x4 DUP3 ADD MSTORE PUSH1 0x14 PUSH1 0x24 DUP3 ADD MSTORE PUSH20 0x457363726F77206973206E6F7420616374697665 PUSH1 0x60 SHL PUSH1 0x44 DUP3 ADD MSTORE PUSH1 0x64 ADD PUSH2 0x2E5 JUMP JUMPDEST PUSH1 0x5 DUP2 ADD SLOAD PUSH1 0x1 PUSH1 0x88 SHL SWAP1 DIV PUSH1 0xFF AND ISZERO PUSH2 0x872 JUMPI PUSH1 0x40 MLOAD PUSH3 0x461BCD PUSH1 0xE5 SHL DUP2 MSTORE PUSH1 0x20 PUSH1 0x4 DUP3 ADD MSTORE PUSH1 0x14 PUSH1 0x24 DUP3 ADD MSTORE PUSH20 0x10995D08185B1C9958591E481C995CDBDB1D9959 PUSH1 0x62 SHL PUSH1 0x44 DUP3 ADD MSTORE PUSH1 0x64 ADD PUSH2 0x2E5 JUMP JUMPDEST PUSH1 0x2 DUP2 ADD SLOAD PUSH1 0x1 PUSH1 0x1 PUSH1 0xA0 SHL SUB AND PUSH2 0x8BF JUMPI PUSH1 0x40 MLOAD PUSH3 0x461BCD PUSH1 0xE5 SHL DUP2 MSTORE PUSH1 0x20 PUSH1 0x4 DUP3 ADD MSTORE PUSH1 0x10 PUSH1 0x24 DUP3 ADD MSTORE PUSH16 0x10995D081B9BDD081858D8D95C1D1959 PUSH1 0x82 SHL PUSH1 0x44 DUP3 ADD MSTORE PUSH1 0x64 ADD PUSH2 0x2E5 JUMP JUMPDEST PUSH1 0x5 DUP2 ADD SLOAD PUSH1 0x1 PUSH1 0x1 PUSH1 0x80 SHL SUB AND PUSH2 0x90F JUMPI PUSH1 0x40 MLOAD PUSH3 0x461BCD PUSH1 0xE5 SHL DUP2 MSTORE PUSH1 0x20 PUSH1 0x4 DUP3 ADD MSTORE PUSH1 0x13 PUSH1 0x24 DUP3 ADD MSTORE PUSH19 0x4E6F2066756E647320746F2072656C65617365 PUSH1 0x68 SHL PUSH1 0x44 DUP3 ADD MSTORE PUSH1 0x64 ADD PUSH2 0x2E5 JUMP JUMPDEST PUSH1 0x1 DUP2 ADD SLOAD PUSH1 0x1 PUSH1 0x1 PUSH1 0xA0 SHL SUB DUP4 DUP2 AND SWAP2 AND EQ DUP1 PUSH2 0x93C JUMPI POP PUSH1 0x2 DUP2 ADD SLOAD PUSH1 0x1 PUSH1 0x1 PUSH1 0xA0 SHL SUB DUP4 DUP2 AND SWAP2 AND EQ JUMPDEST PUSH2 0x979 JUMPI PUSH1 0x40 MLOAD PUSH3 0x461BCD PUSH1 0xE5 SHL DUP2 MSTORE PUSH1 0x20 PUSH1 0x4 DUP3 ADD MSTORE PUSH1 0xE PUSH1 0x24 DUP3 ADD MSTORE PUSH14 0x24B73B30B634B2103BB4B73732B9 PUSH1 0x91 SHL PUSH1 0x44 DUP3 ADD MSTORE PUSH1 0x64 ADD PUSH2 0x2E5 JUMP JUMPDEST PUSH1 0x5 DUP2 ADD DUP1 SLOAD PUSH18 0xFFFFFFFFFFFFFFFFFFFFFFFFFFFFFFFFFFFF NOT DUP2 AND PUSH1 0x1 PUSH1 0x88 SHL OR SWAP1 SWAP2 SSTORE PUSH1 0x40 MLOAD PUSH1 0x1 PUSH1 0x1 PUSH1 0x80 SHL SUB SWAP1 SWAP2 AND SWAP1 PUSH1 0x1 PUSH1 0x1 PUSH1 0xA0 SHL SUB DUP5 AND SWAP1 DUP3 SWAP1 DUP7 SWAP1 PUSH32 0xA20198858D673AC3CF5D6F62C85CB502C39AF8269735C0EF6774AFF58154A429 SWAP1 PUSH0 SWAP1 LOG4 PUSH0 DUP4 PUSH1 0x1 PUSH1 0x1 PUSH1 0xA0 SHL SUB AND DUP3 PUSH1 0x40 MLOAD PUSH0 PUSH1 0x40 MLOAD DUP1 DUP4 SUB DUP2 DUP6 DUP8 GAS CALL SWAP3 POP POP POP RETURNDATASIZE DUP1 PUSH0 DUP2 EQ PUSH2 0xA2A JUMPI PUSH1 0x40 MLOAD SWAP2 POP PUSH1 0x1F NOT PUSH1 0x3F RETURNDATASIZE ADD AND DUP3 ADD PUSH1 0x40 MSTORE RETURNDATASIZE DUP3 MSTORE RETURNDATASIZE PUSH0 PUSH1 0x20 DUP5 ADD RETURNDATACOPY PUSH2 0xA2F JUMP JUMPDEST PUSH1 0x60 SWAP2 POP JUMPDEST POP POP SWAP1 POP DUP1 PUSH2 0xA72 JUMPI PUSH1 0x40 MLOAD PUSH3 0x461BCD PUSH1 0xE5 SHL DUP2 MSTORE PUSH1 0x20 PUSH1 0x4 DUP3 ADD MSTORE PUSH1 0xF PUSH1 0x24 DUP3 ADD MSTORE PUSH15 0x151C985B9CD9995C8819985A5B1959 PUSH1 0x8A SHL PUSH1 0x44 DUP3 ADD MSTORE PUSH1 0x64 ADD PUSH2 0x2E5 JUMP JUMPDEST POP POP POP PUSH2 0xA7E PUSH1 0x1 PUSH0 SSTORE JUMP JUMPDEST POP POP JUMP JUMPDEST PUSH0 DUP3 DUP2 MSTORE PUSH1 0x1 PUSH1 0x20 MSTORE PUSH1 0x40 SWAP1 KECCAK256 PUSH1 0x5 DUP2 ADD SLOAD PUSH1 0x1 PUSH1 0x80 SHL SWAP1 DIV PUSH1 0xFF AND PUSH2 0xADE JUMPI PUSH1 0x40 MLOAD PUSH3 0x461BCD PUSH1 0xE5 SHL DUP2 MSTORE PUSH1 0x20 PUSH1 0x4 DUP3 ADD MSTORE PUSH1 0x11 PUSH1 0x24 DUP3 ADD MSTORE PUSH17 0x426574206973206E6F7420616374697665 PUSH1 0x78 SHL PUSH1 0x44 DUP3 ADD MSTORE PUSH1 0x64 ADD PUSH2 0x2E5 JUMP JUMPDEST PUSH1 0x2 DUP2 ADD SLOAD PUSH1 0x1 PUSH1 0x1 PUSH1 0xA0 SHL SUB AND ISZERO PUSH2 0xB30 JUMPI PUSH1 0x40 MLOAD PUSH3 0x461BCD PUSH1 0xE5 SHL DUP2 MSTORE PUSH1 0x20 PUSH1 0x4 DUP3 ADD MSTORE PUSH1 0x14 PUSH1 0x24 DUP3 ADD MSTORE PUSH20 0x10995D08185B1C9958591E481858D8D95C1D1959 PUSH1 0x62 SHL PUSH1 0x44 DUP3 ADD MSTORE PUSH1 0x64 ADD PUSH2 0x2E5 JUMP JUMPDEST PUSH1 0x5 DUP2 ADD SLOAD PUSH1 0x1 PUSH1 0x1 PUSH1 0x80 SHL SUB AND CALLVALUE EQ PUSH2 0xB7F JUMPI PUSH1 0x40 MLOAD PUSH3 0x461BCD PUSH1 0xE5 SHL DUP2 MSTORE PUSH1 0x20 PUSH1 0x4 DUP3 ADD MSTORE PUSH1 0x10 PUSH1 0x24 DUP3 ADD MSTORE PUSH16 0xA6E8C2D6CA40DAEAE6E840DAC2E8C6D PUSH1 0x83 SHL PUSH1 0x44 DUP3 ADD MSTORE PUSH1 0x64 ADD PUSH2 0x2E5 JUMP JUMPDEST DUP1 PUSH1 0x3 ADD SLOAD DUP3 SUB PUSH2 0xBD2 JUMPI PUSH1 0x40 MLOAD PUSH3 0x461BCD PUSH1 0xE5 SHL DUP2 MSTORE PUSH1 0x20 PUSH1 0x4 DUP3 ADD MSTORE PUSH1 0x17 PUSH1 0x24 DUP3 ADD MSTORE PUSH32 0x43686F696365206D757374206265206F70706F73697465000000000000000000 PUSH1 0x44 DUP3 ADD MSTORE PUSH1 0x64 ADD PUSH2 0x2E5 JUMP JUMPDEST PUSH1 0x2 DUP2 ADD DUP1 SLOAD PUSH1 0x1 PUSH1 0x1 PUSH1 0xA0 SHL SUB NOT AND CALLER OR SWAP1 SSTORE PUSH1 0x4 DUP2 ADD DUP3 SWAP1 SSTORE PUSH1 0x5 DUP2 ADD DUP1 SLOAD CALLVALUE SWAP2 SWAP1 PUSH0 SWAP1 PUSH2 0xC0C SWAP1 DUP5 SWAP1 PUSH1 0x1 PUSH1 0x1 PUSH1 0x80 SHL SUB AND PUSH2 0xDE2 JUMP JUMPDEST SWAP3 POP PUSH2 0x100 EXP DUP2 SLOAD DUP2 PUSH1 0x1 PUSH1 0x1 PUSH1 0x80 SHL SUB MUL NOT AND SWAP1 DUP4 PUSH1 0x1 PUSH1 0x1 PUSH1 0x80 SHL SUB AND MUL OR SWAP1 SSTORE POP CALLER PUSH1 0x1 PUSH1 0x1 PUSH1 0xA0 SHL SUB AND DUP4 PUSH32 0x2210B79A525B03013B38FA6844F45CE06146F62C5F2A8BEAFC1605F4F87E17B5 DUP5 PUSH1 0x40 MLOAD PUSH2 0xC6C SWAP2 DUP2 MSTORE PUSH1 0x20 ADD SWAP1 JUMP JUMPDEST PUSH1 0x40 MLOAD DUP1 SWAP2 SUB SWAP1 LOG3 POP POP POP JUMP JUMPDEST PUSH1 0x2 PUSH0 SLOAD SUB PUSH2 0xCCA JUMPI PUSH1 0x40 MLOAD PUSH3 0x461BCD PUSH1 0xE5 SHL DUP2 MSTORE PUSH1 0x20 PUSH1 0x4 DUP3 ADD MSTORE PUSH1 0x1F PUSH1 0x24 DUP3 ADD MSTORE PUSH32 0x5265656E7472616E637947756172643A207265656E7472616E742063616C6C00 PUSH1 0x44 DUP3 ADD MSTORE PUSH1 0x64 ADD PUSH2 0x2E5 JUMP JUMPDEST PUSH1 0x2 PUSH0 SSTORE JUMP JUMPDEST PUSH0 PUSH1 0x20 DUP3 DUP5 SUB SLT ISZERO PUSH2 0xCE0 JUMPI PUSH0 DUP1 REVERT JUMPDEST POP CALLDATALOAD SWAP2 SWAP1 POP JUMP JUMPDEST DUP1 CALLDATALOAD PUSH1 0x1 PUSH1 0x1 PUSH1 0xA0 SHL SUB DUP2 AND DUP2 EQ PUSH2 0xCFD JUMPI PUSH0 DUP1 REVERT JUMPDEST SWAP2 SWAP1 POP JUMP JUMPDEST PUSH0 DUP1 PUSH0 PUSH1 0x60 DUP5 DUP7 SUB SLT ISZERO PUSH2 0xD14 JUMPI PUSH0 DUP1 REVERT JUMPDEST DUP4 CALLDATALOAD SWAP3 POP PUSH1 0x20 DUP5 ADD CALLDATALOAD SWAP2 POP PUSH2 0xD2B PUSH1 0x40 DUP6 ADD PUSH2 0xCE7 JUMP JUMPDEST SWAP1 POP SWAP3 POP SWAP3 POP SWAP3 JUMP JUMPDEST PUSH0 DUP1 PUSH1 0x40 DUP4 DUP6 SUB SLT ISZERO PUSH2 0xD45 JUMPI PUSH0 DUP1 REVERT JUMPDEST DUP3 CALLDATALOAD SWAP2 POP PUSH2 0xD55 PUSH1 0x20 DUP5 ADD PUSH2 0xCE7 JUMP JUMPDEST SWAP1 POP SWAP3 POP SWAP3 SWAP1 POP JUMP JUMPDEST PUSH0 DUP1 PUSH1 0x40 DUP4 DUP6 SUB SLT ISZERO PUSH2 0xD6F JUMPI PUSH0 DUP1 REVERT JUMPDEST POP POP DUP1 CALLDATALOAD SWAP3 PUSH1 0x20 SWAP1 SWAP2 ADD CALLDATALOAD SWAP2 POP JUMP JUMPDEST PUSH4 0x4E487B71 PUSH1 0xE0 SHL PUSH0 MSTORE PUSH1 0x11 PUSH1 0x4 MSTORE PUSH1 0x24 PUSH0 REVERT JUMPDEST PUSH0 DUP3 PUSH2 0xDAC JUMPI PUSH4 0x4E487B71 PUSH1 0xE0 SHL PUSH0 MSTORE PUSH1 0x12 PUSH1 0x4 MSTORE PUSH1 0x24 PUSH0 REVERT JUMPDEST POP DIV SWAP1 JUMP JUMPDEST DUP2 DUP2 SUB DUP2 DUP2 GT ISZERO PUSH2 0xDC4 JUMPI PUSH2 0xDC4 PUSH2 0xD7E JUMP JUMPDEST SWAP3 SWAP2 POP POP JUMP JUMPDEST PUSH0 PUSH1 0x1 DUP3 ADD PUSH2 0xDDB JUMPI PUSH2 0xDDB PUSH2 0xD7E JUMP JUMPDEST POP PUSH1 0x1 ADD SWAP1 JUMP JUMPDEST PUSH1 0x1 PUSH1 0x1 PUSH1 0x80 SHL SUB DUP2 DUP2 AND DUP4 DUP3 AND ADD SWAP1 DUP2 GT ISZERO PUSH2 0xDC4 JUMPI PUSH2 0xDC4 PUSH2 0xD7E JUMP INVALID LOG2 PUSH5 0x6970667358 0x22 SLT KECCAK256 CODECOPY 0xAE 0x4B 0xD5 DUP6 CHAINID DUP6 DUP12 0xC3 0xF7 0xDB 0xDC ADDRESS POP 0xED TLOAD 0xE3 0xA5 0xD1 CODESIZE DUP1 LOG2 PUSH21 0x6B59D6FC0DE76649F664736F6C634300081A003300 "
				},
				"gasEstimates": {
					"creation": {
						"codeDepositCost": "727800",
						"executionCost": "22863",
						"totalCost": "750663"
					},
					"external": {
						"CHALLENGER_ROLE()": "206",
						"PLAYER_ROLE()": "184",
						"acceptBet(bytes32,bytes32)": "83659",
						"betCounter()": "2327",
						"declareDraw(bytes32)": "infinite",
						"escrowStorage(bytes32)": "13333",
						"getCurrentBalance(bytes32)": "2536",
						"releaseFunds(bytes32,address)": "infinite",
						"storeTokens(bytes32,bytes32,address)": "120463"
					}
				},
				"methodIdentifiers": {
					"CHALLENGER_ROLE()": "530adbb4",
					"PLAYER_ROLE()": "16c30ebc",
					"acceptBet(bytes32,bytes32)": "f4aa99df",
					"betCounter()": "a416f5ab",
					"declareDraw(bytes32)": "56fcb255",
					"escrowStorage(bytes32)": "a0946f92",
					"getCurrentBalance(bytes32)": "fffc7801",
					"releaseFunds(bytes32,address)": "7d25e89d",
					"storeTokens(bytes32,bytes32,address)": "6d4e0c8e"
				}
			},
			"storageLayout": {
				"storage": [
					{
						"astId": 10,
						"contract": "Escrow.sol:Escrow",
						"label": "_status",
						"offset": 0,
						"slot": "0",
						"type": "t_uint256"
					},
					{
						"astId": 103,
						"contract": "Escrow.sol:Escrow",
						"label": "escrowStorage",
						"offset": 0,
						"slot": "1",
						"type": "t_mapping(t_bytes32,t_struct(Storage)98_storage)"
					},
					{
						"astId": 105,
						"contract": "Escrow.sol:Escrow",
						"label": "betCounter",
						"offset": 0,
						"slot": "2",
						"type": "t_uint256"
					}
				],
				"types": {
					"t_address": {
						"encoding": "inplace",
						"label": "address",
						"numberOfBytes": "20"
					},
					"t_bool": {
						"encoding": "inplace",
						"label": "bool",
						"numberOfBytes": "1"
					},
					"t_bytes32": {
						"encoding": "inplace",
						"label": "bytes32",
						"numberOfBytes": "32"
					},
					"t_mapping(t_bytes32,t_struct(Storage)98_storage)": {
						"encoding": "mapping",
						"key": "t_bytes32",
						"label": "mapping(bytes32 => struct Escrow.Storage)",
						"numberOfBytes": "32",
						"value": "t_struct(Storage)98_storage"
					},
					"t_struct(Storage)98_storage": {
						"encoding": "inplace",
						"label": "struct Escrow.Storage",
						"members": [
							{
								"astId": 83,
								"contract": "Escrow.sol:Escrow",
								"label": "matchId",
								"offset": 0,
								"slot": "0",
								"type": "t_bytes32"
							},
							{
								"astId": 85,
								"contract": "Escrow.sol:Escrow",
								"label": "player",
								"offset": 0,
								"slot": "1",
								"type": "t_address"
							},
							{
								"astId": 87,
								"contract": "Escrow.sol:Escrow",
								"label": "challenger",
								"offset": 0,
								"slot": "2",
								"type": "t_address"
							},
							{
								"astId": 89,
								"contract": "Escrow.sol:Escrow",
								"label": "choiceA",
								"offset": 0,
								"slot": "3",
								"type": "t_bytes32"
							},
							{
								"astId": 91,
								"contract": "Escrow.sol:Escrow",
								"label": "choiceB",
								"offset": 0,
								"slot": "4",
								"type": "t_bytes32"
							},
							{
								"astId": 93,
								"contract": "Escrow.sol:Escrow",
								"label": "totalAmount",
								"offset": 0,
								"slot": "5",
								"type": "t_uint128"
							},
							{
								"astId": 95,
								"contract": "Escrow.sol:Escrow",
								"label": "isActive",
								"offset": 16,
								"slot": "5",
								"type": "t_bool"
							},
							{
								"astId": 97,
								"contract": "Escrow.sol:Escrow",
								"label": "isResolved",
								"offset": 17,
								"slot": "5",
								"type": "t_bool"
							}
						],
						"numberOfBytes": "192"
					},
					"t_uint128": {
						"encoding": "inplace",
						"label": "uint128",
						"numberOfBytes": "16"
					},
					"t_uint256": {
						"encoding": "inplace",
						"label": "uint256",
						"numberOfBytes": "32"
					}
				}
			},
			"userdoc": {
				"kind": "user",
				"methods": {
					"acceptBet(bytes32,bytes32)": {
						"notice": "Accept a bet proposal"
					},
					"declareDraw(bytes32)": {
						"notice": "Declare a draw and refund both parties"
					},
					"getCurrentBalance(bytes32)": {
						"notice": "Get the current balance of a bet"
					},
					"releaseFunds(bytes32,address)": {
						"notice": "Release funds to the winner"
					},
					"storeTokens(bytes32,bytes32,address)": {
						"notice": "Create a bet proposal"
					}
				},
				"version": 1
			}
		}
	}
}