{
	"Escrow.sol": {
		"Escrow": {
			"abi": [
				{
					"anonymous": false,
					"inputs": [
						{
							"indexed": true,
							"internalType": "bytes32",
							"name": "storeHash",
							"type": "bytes32"
						},
						{
							"indexed": true,
							"internalType": "uint256",
							"name": "amount",
							"type": "uint256"
						},
						{
							"indexed": true,
							"internalType": "address",
							"name": "winner",
							"type": "address"
						}
					],
					"name": "ReleasedFunds",
					"type": "event"
				},
				{
					"anonymous": false,
					"inputs": [
						{
							"indexed": true,
							"internalType": "bytes32",
							"name": "storeHash",
							"type": "bytes32"
						},
						{
							"indexed": true,
							"internalType": "address",
							"name": "depositor",
							"type": "address"
						},
						{
							"indexed": false,
							"internalType": "bytes32",
							"name": "identity",
							"type": "bytes32"
						},
						{
							"indexed": false,
							"internalType": "uint256",
							"name": "amount",
							"type": "uint256"
						}
					],
					"name": "TokensStored",
					"type": "event"
				},
				{
					"inputs": [],
					"name": "CHALLENGER_ROLE",
					"outputs": [
						{
							"internalType": "bytes32",
							"name": "",
							"type": "bytes32"
						}
					],
					"stateMutability": "view",
					"type": "function"
				},
				{
					"inputs": [],
					"name": "PLAYER_ROLE",
					"outputs": [
						{
							"internalType": "bytes32",
							"name": "",
							"type": "bytes32"
						}
					],
					"stateMutability": "view",
					"type": "function"
				},
				{
					"inputs": [
						{
							"internalType": "bytes32",
							"name": "",
							"type": "bytes32"
						}
					],
					"name": "escrowStorage",
					"outputs": [
						{
							"internalType": "uint128",
							"name": "totalAmount",
							"type": "uint128"
						},
						{
							"internalType": "address",
							"name": "player",
							"type": "address"
						},
						{
							"internalType": "address",
							"name": "challenger",
							"type": "address"
						},
						{
							"internalType": "bool",
							"name": "isActive",
							"type": "bool"
						}
					],
					"stateMutability": "view",
					"type": "function"
				},
				{
					"inputs": [
						{
							"internalType": "bytes32",
							"name": "storeHash",
							"type": "bytes32"
						},
						{
							"internalType": "address",
							"name": "winner",
							"type": "address"
						}
					],
					"name": "releaseFunds",
					"outputs": [],
					"stateMutability": "nonpayable",
					"type": "function"
				},
				{
					"inputs": [
						{
							"internalType": "bytes32",
							"name": "storeHash",
							"type": "bytes32"
						},
						{
							"internalType": "bytes32",
							"name": "identity",
							"type": "bytes32"
						}
					],
					"name": "storeTokens",
					"outputs": [],
					"stateMutability": "payable",
					"type": "function"
				}
			],
			"devdoc": {
				"details": "An escrow contract for holding funds between two parties",
				"events": {
					"ReleasedFunds(bytes32,uint256,address)": {
						"params": {
							"amount": "The amount of Ether released",
							"storeHash": "The unique hash identifying the escrow",
							"winner": "The address receiving the funds"
						}
					},
					"TokensStored(bytes32,address,bytes32,uint256)": {
						"params": {
							"amount": "The amount of Ether deposited",
							"depositor": "The address of the depositor",
							"identity": "The role of the depositor (PLAYER_ROLE or CHALLENGER_ROLE)",
							"storeHash": "The unique hash identifying the escrow"
						}
					}
				},
				"kind": "dev",
				"methods": {
					"releaseFunds(bytes32,address)": {
						"params": {
							"storeHash": "The unique identifier for this escrow",
							"winner": "The address that should receive the funds"
						}
					},
					"storeTokens(bytes32,bytes32)": {
						"params": {
							"identity": "The role of the depositor (PLAYER_ROLE or CHALLENGER_ROLE)",
							"storeHash": "The unique identifier for this escrow"
						}
					}
				},
				"title": "Escrow",
				"version": 1
			},
			"evm": {
				"assembly": "    /* \"Escrow.sol\":247:3648  contract Escrow is ReentrancyGuard {... */\n  mstore(0x40, 0x80)\n  callvalue\n  dup1\n  iszero\n  tag_1\n  jumpi\n  0x00\n  dup1\n  revert\ntag_1:\n  pop\n    /* \"@openzeppelin/contracts/security/ReentrancyGuard.sol\":1716:1717  1 */\n  0x01\n    /* \"@openzeppelin/contracts/security/ReentrancyGuard.sol\":1821:1828  _status */\n  0x00\n    /* \"@openzeppelin/contracts/security/ReentrancyGuard.sol\":1821:1843  _status = _NOT_ENTERED */\n  sstore\n    /* \"Escrow.sol\":247:3648  contract Escrow is ReentrancyGuard {... */\n  dataSize(sub_0)\n  dup1\n  dataOffset(sub_0)\n  0x00\n  codecopy\n  0x00\n  return\nstop\n\nsub_0: assembly {\n        /* \"Escrow.sol\":247:3648  contract Escrow is ReentrancyGuard {... */\n      mstore(0x40, 0x80)\n      jumpi(tag_1, lt(calldatasize, 0x04))\n      shr(0xe0, calldataload(0x00))\n      dup1\n      0x16c30ebc\n      eq\n      tag_2\n      jumpi\n      dup1\n      0x2fa0b49f\n      eq\n      tag_3\n      jumpi\n      dup1\n      0x530adbb4\n      eq\n      tag_4\n      jumpi\n      dup1\n      0x7d25e89d\n      eq\n      tag_5\n      jumpi\n      dup1\n      0xa0946f92\n      eq\n      tag_6\n      jumpi\n    tag_1:\n      0x00\n      dup1\n      revert\n        /* \"Escrow.sol\":289:346  bytes32 public constant PLAYER_ROLE = keccak256(\"player\") */\n    tag_2:\n      callvalue\n      dup1\n      iszero\n      tag_7\n      jumpi\n      0x00\n      dup1\n      revert\n    tag_7:\n      pop\n      tag_8\n        /* \"Escrow.sol\":327:346  keccak256(\"player\") */\n      0x326d994cdb81aaccb84aa1f62bae636dc0aaf98ab22f66b0c9224f1edccd7cc9\n        /* \"Escrow.sol\":289:346  bytes32 public constant PLAYER_ROLE = keccak256(\"player\") */\n      dup2\n      jump\n    tag_8:\n      mload(0x40)\n        /* \"#utility.yul\":160:185   */\n      swap1\n      dup2\n      mstore\n        /* \"#utility.yul\":148:150   */\n      0x20\n        /* \"#utility.yul\":133:151   */\n      add\n        /* \"Escrow.sol\":289:346  bytes32 public constant PLAYER_ROLE = keccak256(\"player\") */\n    tag_10:\n      mload(0x40)\n      dup1\n      swap2\n      sub\n      swap1\n      return\n        /* \"Escrow.sol\":1679:2741  function storeTokens(bytes32 storeHash, bytes32 identity) external payable {... */\n    tag_3:\n      tag_12\n      tag_13\n      calldatasize\n      0x04\n      tag_14\n      jump\t// in\n    tag_13:\n      tag_15\n      jump\t// in\n    tag_12:\n      stop\n        /* \"Escrow.sol\":353:418  bytes32 public constant CHALLENGER_ROLE = keccak256(\"challenger\") */\n    tag_4:\n      callvalue\n      dup1\n      iszero\n      tag_16\n      jumpi\n      0x00\n      dup1\n      revert\n    tag_16:\n      pop\n      tag_8\n        /* \"Escrow.sol\":395:418  keccak256(\"challenger\") */\n      0xae8b6f0f354448b9bed217dcbb6effc6cc52560477cd31206503fbd937f7a378\n        /* \"Escrow.sol\":353:418  bytes32 public constant CHALLENGER_ROLE = keccak256(\"challenger\") */\n      dup2\n      jump\n        /* \"Escrow.sol\":2938:3645  function releaseFunds(bytes32 storeHash, address winner) external nonReentrant {... */\n    tag_5:\n      callvalue\n      dup1\n      iszero\n      tag_20\n      jumpi\n      0x00\n      dup1\n      revert\n    tag_20:\n      pop\n      tag_12\n      tag_22\n      calldatasize\n      0x04\n      tag_23\n      jump\t// in\n    tag_22:\n      tag_24\n      jump\t// in\n        /* \"Escrow.sol\":607:655  mapping(bytes32 => Storage) public escrowStorage */\n    tag_6:\n      callvalue\n      dup1\n      iszero\n      tag_25\n      jumpi\n      0x00\n      dup1\n      revert\n    tag_25:\n      pop\n      tag_26\n      tag_27\n      calldatasize\n      0x04\n      tag_28\n      jump\t// in\n    tag_27:\n      0x01\n      0x20\n      dup2\n      swap1\n      mstore\n      0x00\n      swap2\n      dup3\n      mstore\n      0x40\n      swap1\n      swap2\n      keccak256\n      dup1\n      sload\n      swap2\n      dup2\n      add\n      sload\n      0x02\n      swap1\n      swap2\n      add\n      sload\n      sub(shl(0x80, 0x01), 0x01)\n      swap1\n      swap3\n      and\n      swap2\n      sub(shl(0xa0, 0x01), 0x01)\n      swap2\n      dup3\n      and\n      swap2\n      dup2\n      and\n      swap1\n      shl(0xa0, 0x01)\n      swap1\n      div\n      0xff\n      and\n      dup5\n      jump\n    tag_26:\n      0x40\n      dup1\n      mload\n      sub(shl(0x80, 0x01), 0x01)\n        /* \"#utility.yul\":1434:1481   */\n      swap6\n      swap1\n      swap6\n      and\n        /* \"#utility.yul\":1416:1482   */\n      dup6\n      mstore\n      sub(shl(0xa0, 0x01), 0x01)\n        /* \"#utility.yul\":1518:1550   */\n      swap4\n      dup5\n      and\n        /* \"#utility.yul\":1513:1515   */\n      0x20\n        /* \"#utility.yul\":1498:1516   */\n      dup7\n      add\n        /* \"#utility.yul\":1491:1551   */\n      mstore\n        /* \"#utility.yul\":1587:1619   */\n      swap2\n      swap1\n      swap3\n      and\n        /* \"#utility.yul\":1567:1585   */\n      swap1\n      dup4\n      add\n        /* \"#utility.yul\":1560:1620   */\n      mstore\n        /* \"#utility.yul\":1663:1677   */\n      iszero\n        /* \"#utility.yul\":1656:1678   */\n      iszero\n        /* \"#utility.yul\":1651:1653   */\n      0x60\n        /* \"#utility.yul\":1636:1654   */\n      dup3\n      add\n        /* \"#utility.yul\":1629:1679   */\n      mstore\n        /* \"#utility.yul\":1403:1406   */\n      0x80\n        /* \"#utility.yul\":1388:1407   */\n      add\n        /* \"Escrow.sol\":607:655  mapping(bytes32 => Storage) public escrowStorage */\n      tag_10\n        /* \"#utility.yul\":1191:1685   */\n      jump\n        /* \"Escrow.sol\":1679:2741  function storeTokens(bytes32 storeHash, bytes32 identity) external payable {... */\n    tag_15:\n        /* \"Escrow.sol\":1804:1805  0 */\n      0x00\n        /* \"Escrow.sol\":1792:1801  msg.value */\n      callvalue\n        /* \"Escrow.sol\":1792:1805  msg.value > 0 */\n      gt\n        /* \"Escrow.sol\":1784:1825  require(msg.value > 0, \"Invalid deposit\") */\n      tag_33\n      jumpi\n      mload(0x40)\n      shl(0xe5, 0x461bcd)\n      dup2\n      mstore\n        /* \"#utility.yul\":1892:1894   */\n      0x20\n        /* \"Escrow.sol\":1784:1825  require(msg.value > 0, \"Invalid deposit\") */\n      0x04\n      dup3\n      add\n        /* \"#utility.yul\":1874:1895   */\n      mstore\n        /* \"#utility.yul\":1931:1933   */\n      0x0f\n        /* \"#utility.yul\":1911:1929   */\n      0x24\n      dup3\n      add\n        /* \"#utility.yul\":1904:1934   */\n      mstore\n      shl(0x8a, 0x125b9d985b1a590819195c1bdcda5d)\n        /* \"#utility.yul\":1950:1968   */\n      0x44\n      dup3\n      add\n        /* \"#utility.yul\":1943:1988   */\n      mstore\n        /* \"#utility.yul\":2005:2023   */\n      0x64\n      add\n        /* \"Escrow.sol\":1784:1825  require(msg.value > 0, \"Invalid deposit\") */\n    tag_34:\n      mload(0x40)\n      dup1\n      swap2\n      sub\n      swap1\n      revert\n    tag_33:\n        /* \"Escrow.sol\":327:346  keccak256(\"player\") */\n      0x326d994cdb81aaccb84aa1f62bae636dc0aaf98ab22f66b0c9224f1edccd7cc9\n        /* \"Escrow.sol\":1844:1852  identity */\n      dup2\n        /* \"Escrow.sol\":1844:1867  identity == PLAYER_ROLE */\n      eq\n        /* \"Escrow.sol\":1844:1898  identity == PLAYER_ROLE || identity == CHALLENGER_ROLE */\n      dup1\n      tag_36\n      jumpi\n      pop\n        /* \"Escrow.sol\":395:418  keccak256(\"challenger\") */\n      0xae8b6f0f354448b9bed217dcbb6effc6cc52560477cd31206503fbd937f7a378\n        /* \"Escrow.sol\":1871:1879  identity */\n      dup2\n        /* \"Escrow.sol\":1871:1898  identity == CHALLENGER_ROLE */\n      eq\n        /* \"Escrow.sol\":1844:1898  identity == PLAYER_ROLE || identity == CHALLENGER_ROLE */\n    tag_36:\n        /* \"Escrow.sol\":1836:1919  require(identity == PLAYER_ROLE || identity == CHALLENGER_ROLE, \"Invalid identity\") */\n      tag_37\n      jumpi\n      mload(0x40)\n      shl(0xe5, 0x461bcd)\n      dup2\n      mstore\n        /* \"#utility.yul\":2236:2238   */\n      0x20\n        /* \"Escrow.sol\":1836:1919  require(identity == PLAYER_ROLE || identity == CHALLENGER_ROLE, \"Invalid identity\") */\n      0x04\n      dup3\n      add\n        /* \"#utility.yul\":2218:2239   */\n      mstore\n        /* \"#utility.yul\":2275:2277   */\n      0x10\n        /* \"#utility.yul\":2255:2273   */\n      0x24\n      dup3\n      add\n        /* \"#utility.yul\":2248:2278   */\n      mstore\n      shl(0x80, 0x496e76616c6964206964656e74697479)\n        /* \"#utility.yul\":2294:2312   */\n      0x44\n      dup3\n      add\n        /* \"#utility.yul\":2287:2333   */\n      mstore\n        /* \"#utility.yul\":2350:2368   */\n      0x64\n      add\n        /* \"Escrow.sol\":1836:1919  require(identity == PLAYER_ROLE || identity == CHALLENGER_ROLE, \"Invalid identity\") */\n      tag_34\n        /* \"#utility.yul\":2034:2374   */\n      jump\n        /* \"Escrow.sol\":1836:1919  require(identity == PLAYER_ROLE || identity == CHALLENGER_ROLE, \"Invalid identity\") */\n    tag_37:\n      sub(shl(0x80, 0x01), 0x01)\n        /* \"Escrow.sol\":1938:1947  msg.value */\n      callvalue\n        /* \"Escrow.sol\":1938:1968  msg.value <= type(uint128).max */\n      gt\n      iszero\n        /* \"Escrow.sol\":1930:1989  require(msg.value <= type(uint128).max, \"Amount too large\") */\n      tag_40\n      jumpi\n      mload(0x40)\n      shl(0xe5, 0x461bcd)\n      dup2\n      mstore\n        /* \"#utility.yul\":2581:2583   */\n      0x20\n        /* \"Escrow.sol\":1930:1989  require(msg.value <= type(uint128).max, \"Amount too large\") */\n      0x04\n      dup3\n      add\n        /* \"#utility.yul\":2563:2584   */\n      mstore\n        /* \"#utility.yul\":2620:2622   */\n      0x10\n        /* \"#utility.yul\":2600:2618   */\n      0x24\n      dup3\n      add\n        /* \"#utility.yul\":2593:2623   */\n      mstore\n      shl(0x80, 0x416d6f756e7420746f6f206c61726765)\n        /* \"#utility.yul\":2639:2657   */\n      0x44\n      dup3\n      add\n        /* \"#utility.yul\":2632:2678   */\n      mstore\n        /* \"#utility.yul\":2695:2713   */\n      0x64\n      add\n        /* \"Escrow.sol\":1930:1989  require(msg.value <= type(uint128).max, \"Amount too large\") */\n      tag_34\n        /* \"#utility.yul\":2379:2719   */\n      jump\n        /* \"Escrow.sol\":1930:1989  require(msg.value <= type(uint128).max, \"Amount too large\") */\n    tag_40:\n        /* \"Escrow.sol\":2022:2044  Storage storage escrow */\n      0x00\n        /* \"Escrow.sol\":2047:2071  escrowStorage[storeHash] */\n      dup3\n      dup2\n      mstore\n        /* \"Escrow.sol\":2047:2060  escrowStorage */\n      0x01\n        /* \"Escrow.sol\":2047:2071  escrowStorage[storeHash] */\n      0x20\n      mstore\n      0x40\n      swap1\n      keccak256\n        /* \"Escrow.sol\":2156:2179  identity == PLAYER_ROLE */\n      0xcd9266b3247e553347b55e09d4519c923f5506754dd0994f36ddb0e123328337\n      dup3\n      add\n        /* \"Escrow.sol\":2152:2451  if (identity == PLAYER_ROLE) {... */\n      tag_43\n      jumpi\n        /* \"Escrow.sol\":2204:2217  escrow.player */\n      0x01\n      dup2\n      add\n      sload\n      sub(shl(0xa0, 0x01), 0x01)\n      and\n        /* \"Escrow.sol\":2204:2231  escrow.player == address(0) */\n      iszero\n        /* \"Escrow.sol\":2196:2254  require(escrow.player == address(0), \"Player already set\") */\n      tag_44\n      jumpi\n      mload(0x40)\n      shl(0xe5, 0x461bcd)\n      dup2\n      mstore\n        /* \"#utility.yul\":2926:2928   */\n      0x20\n        /* \"Escrow.sol\":2196:2254  require(escrow.player == address(0), \"Player already set\") */\n      0x04\n      dup3\n      add\n        /* \"#utility.yul\":2908:2929   */\n      mstore\n        /* \"#utility.yul\":2965:2967   */\n      0x12\n        /* \"#utility.yul\":2945:2963   */\n      0x24\n      dup3\n      add\n        /* \"#utility.yul\":2938:2968   */\n      mstore\n      shl(0x72, 0x141b185e595c88185b1c9958591e481cd95d)\n        /* \"#utility.yul\":2984:3002   */\n      0x44\n      dup3\n      add\n        /* \"#utility.yul\":2977:3025   */\n      mstore\n        /* \"#utility.yul\":3042:3060   */\n      0x64\n      add\n        /* \"Escrow.sol\":2196:2254  require(escrow.player == address(0), \"Player already set\") */\n      tag_34\n        /* \"#utility.yul\":2724:3066   */\n      jump\n        /* \"Escrow.sol\":2196:2254  require(escrow.player == address(0), \"Player already set\") */\n    tag_44:\n        /* \"Escrow.sol\":2269:2282  escrow.player */\n      0x01\n      dup2\n      add\n        /* \"Escrow.sol\":2269:2295  escrow.player = msg.sender */\n      dup1\n      sload\n      not(sub(shl(0xa0, 0x01), 0x01))\n      and\n        /* \"Escrow.sol\":2285:2295  msg.sender */\n      caller\n        /* \"Escrow.sol\":2269:2295  escrow.player = msg.sender */\n      or\n      swap1\n      sstore\n        /* \"Escrow.sol\":2152:2451  if (identity == PLAYER_ROLE) {... */\n      jump(tag_47)\n    tag_43:\n        /* \"Escrow.sol\":2336:2353  escrow.challenger */\n      0x02\n      dup2\n      add\n      sload\n      sub(shl(0xa0, 0x01), 0x01)\n      and\n        /* \"Escrow.sol\":2336:2367  escrow.challenger == address(0) */\n      iszero\n        /* \"Escrow.sol\":2328:2394  require(escrow.challenger == address(0), \"Challenger already set\") */\n      tag_48\n      jumpi\n      mload(0x40)\n      shl(0xe5, 0x461bcd)\n      dup2\n      mstore\n        /* \"#utility.yul\":3273:3275   */\n      0x20\n        /* \"Escrow.sol\":2328:2394  require(escrow.challenger == address(0), \"Challenger already set\") */\n      0x04\n      dup3\n      add\n        /* \"#utility.yul\":3255:3276   */\n      mstore\n        /* \"#utility.yul\":3312:3314   */\n      0x16\n        /* \"#utility.yul\":3292:3310   */\n      0x24\n      dup3\n      add\n        /* \"#utility.yul\":3285:3315   */\n      mstore\n      shl(0x52, 0x10da185b1b195b99d95c88185b1c9958591e481cd95d)\n        /* \"#utility.yul\":3331:3349   */\n      0x44\n      dup3\n      add\n        /* \"#utility.yul\":3324:3376   */\n      mstore\n        /* \"#utility.yul\":3393:3411   */\n      0x64\n      add\n        /* \"Escrow.sol\":2328:2394  require(escrow.challenger == address(0), \"Challenger already set\") */\n      tag_34\n        /* \"#utility.yul\":3071:3417   */\n      jump\n        /* \"Escrow.sol\":2328:2394  require(escrow.challenger == address(0), \"Challenger already set\") */\n    tag_48:\n        /* \"Escrow.sol\":2409:2426  escrow.challenger */\n      0x02\n      dup2\n      add\n        /* \"Escrow.sol\":2409:2439  escrow.challenger = msg.sender */\n      dup1\n      sload\n      not(sub(shl(0xa0, 0x01), 0x01))\n      and\n        /* \"Escrow.sol\":2429:2439  msg.sender */\n      caller\n        /* \"Escrow.sol\":2409:2439  escrow.challenger = msg.sender */\n      or\n      swap1\n      sstore\n        /* \"Escrow.sol\":2152:2451  if (identity == PLAYER_ROLE) {... */\n    tag_47:\n        /* \"Escrow.sol\":2525:2565  escrow.totalAmount += uint128(msg.value) */\n      dup1\n      sload\n      not(sub(shl(0x80, 0x01), 0x01))\n      dup2\n      and\n        /* \"Escrow.sol\":2555:2564  msg.value */\n      callvalue\n      sub(shl(0x80, 0x01), 0x01)\n        /* \"Escrow.sol\":2525:2565  escrow.totalAmount += uint128(msg.value) */\n      swap3\n      dup4\n      and\n      dup2\n      add\n      swap1\n      swap3\n      and\n      or\n      dup3\n      sstore\n        /* \"Escrow.sol\":2614:2629  escrow.isActive */\n      0x02\n      dup3\n      add\n        /* \"Escrow.sol\":2614:2636  escrow.isActive = true */\n      dup1\n      sload\n      shl(0xa0, 0x01)\n      not(shl(0xa0, 0xff))\n      swap1\n      swap2\n      and\n      or\n      swap1\n      sstore\n        /* \"Escrow.sol\":2677:2733  TokensStored(storeHash, msg.sender, identity, msg.value) */\n      0x40\n      dup1\n      mload\n        /* \"#utility.yul\":3596:3621   */\n      dup5\n      dup2\n      mstore\n        /* \"#utility.yul\":3652:3654   */\n      0x20\n        /* \"#utility.yul\":3637:3655   */\n      dup2\n      add\n        /* \"#utility.yul\":3630:3664   */\n      swap3\n      swap1\n      swap3\n      mstore\n        /* \"Escrow.sol\":2701:2711  msg.sender */\n      caller\n      swap2\n        /* \"Escrow.sol\":2690:2699  storeHash */\n      dup6\n      swap2\n        /* \"Escrow.sol\":2677:2733  TokensStored(storeHash, msg.sender, identity, msg.value) */\n      0x47b2a1127ea8251f2643fef19daa05415bd86a2c7083f46f0ec1fd083e4a8a64\n      swap2\n        /* \"#utility.yul\":3569:3587   */\n      add\n        /* \"Escrow.sol\":2677:2733  TokensStored(storeHash, msg.sender, identity, msg.value) */\n      mload(0x40)\n      dup1\n      swap2\n      sub\n      swap1\n      log3\n        /* \"Escrow.sol\":1754:2741  {... */\n      pop\n        /* \"Escrow.sol\":1679:2741  function storeTokens(bytes32 storeHash, bytes32 identity) external payable {... */\n      pop\n      pop\n      jump\t// out\n        /* \"Escrow.sol\":2938:3645  function releaseFunds(bytes32 storeHash, address winner) external nonReentrant {... */\n    tag_24:\n        /* \"@openzeppelin/contracts/security/ReentrancyGuard.sol\":2261:2282  _nonReentrantBefore() */\n      tag_54\n        /* \"@openzeppelin/contracts/security/ReentrancyGuard.sol\":2261:2280  _nonReentrantBefore */\n      tag_55\n        /* \"@openzeppelin/contracts/security/ReentrancyGuard.sol\":2261:2282  _nonReentrantBefore() */\n      jump\t// in\n    tag_54:\n        /* \"Escrow.sol\":3028:3050  Storage storage escrow */\n      0x00\n        /* \"Escrow.sol\":3053:3077  escrowStorage[storeHash] */\n      dup3\n      dup2\n      mstore\n        /* \"Escrow.sol\":3053:3066  escrowStorage */\n      0x01\n        /* \"Escrow.sol\":3053:3077  escrowStorage[storeHash] */\n      0x20\n      mstore\n      0x40\n      swap1\n      keccak256\n        /* \"Escrow.sol\":3117:3132  escrow.isActive */\n      0x02\n      dup2\n      add\n      sload\n      shl(0xa0, 0x01)\n      swap1\n      div\n      0xff\n      and\n        /* \"Escrow.sol\":3109:3157  require(escrow.isActive, \"Escrow is not active\") */\n      tag_57\n      jumpi\n      mload(0x40)\n      shl(0xe5, 0x461bcd)\n      dup2\n      mstore\n        /* \"#utility.yul\":3877:3879   */\n      0x20\n        /* \"Escrow.sol\":3109:3157  require(escrow.isActive, \"Escrow is not active\") */\n      0x04\n      dup3\n      add\n        /* \"#utility.yul\":3859:3880   */\n      mstore\n        /* \"#utility.yul\":3916:3918   */\n      0x14\n        /* \"#utility.yul\":3896:3914   */\n      0x24\n      dup3\n      add\n        /* \"#utility.yul\":3889:3919   */\n      mstore\n      shl(0x60, 0x457363726f77206973206e6f7420616374697665)\n        /* \"#utility.yul\":3935:3953   */\n      0x44\n      dup3\n      add\n        /* \"#utility.yul\":3928:3978   */\n      mstore\n        /* \"#utility.yul\":3995:4013   */\n      0x64\n      add\n        /* \"Escrow.sol\":3109:3157  require(escrow.isActive, \"Escrow is not active\") */\n      tag_34\n        /* \"#utility.yul\":3675:4019   */\n      jump\n        /* \"Escrow.sol\":3109:3157  require(escrow.isActive, \"Escrow is not active\") */\n    tag_57:\n        /* \"Escrow.sol\":3176:3189  escrow.player */\n      0x01\n      dup2\n      add\n      sload\n      sub(shl(0xa0, 0x01), 0x01)\n        /* \"Escrow.sol\":3176:3199  escrow.player == winner */\n      dup4\n      dup2\n      and\n        /* \"Escrow.sol\":3176:3189  escrow.player */\n      swap2\n      and\n        /* \"Escrow.sol\":3176:3199  escrow.player == winner */\n      eq\n      dup1\n        /* \"Escrow.sol\":3176:3230  escrow.player == winner || escrow.challenger == winner */\n      tag_60\n      jumpi\n      pop\n        /* \"Escrow.sol\":3203:3220  escrow.challenger */\n      0x02\n      dup2\n      add\n      sload\n      sub(shl(0xa0, 0x01), 0x01)\n        /* \"Escrow.sol\":3203:3230  escrow.challenger == winner */\n      dup4\n      dup2\n      and\n        /* \"Escrow.sol\":3203:3220  escrow.challenger */\n      swap2\n      and\n        /* \"Escrow.sol\":3203:3230  escrow.challenger == winner */\n      eq\n        /* \"Escrow.sol\":3176:3230  escrow.player == winner || escrow.challenger == winner */\n    tag_60:\n        /* \"Escrow.sol\":3168:3249  require(escrow.player == winner || escrow.challenger == winner, \"Invalid winner\") */\n      tag_61\n      jumpi\n      mload(0x40)\n      shl(0xe5, 0x461bcd)\n      dup2\n      mstore\n        /* \"#utility.yul\":4226:4228   */\n      0x20\n        /* \"Escrow.sol\":3168:3249  require(escrow.player == winner || escrow.challenger == winner, \"Invalid winner\") */\n      0x04\n      dup3\n      add\n        /* \"#utility.yul\":4208:4229   */\n      mstore\n        /* \"#utility.yul\":4265:4267   */\n      0x0e\n        /* \"#utility.yul\":4245:4263   */\n      0x24\n      dup3\n      add\n        /* \"#utility.yul\":4238:4268   */\n      mstore\n      shl(0x91, 0x24b73b30b634b2103bb4b73732b9)\n        /* \"#utility.yul\":4284:4302   */\n      0x44\n      dup3\n      add\n        /* \"#utility.yul\":4277:4321   */\n      mstore\n        /* \"#utility.yul\":4338:4356   */\n      0x64\n      add\n        /* \"Escrow.sol\":3168:3249  require(escrow.player == winner || escrow.challenger == winner, \"Invalid winner\") */\n      tag_34\n        /* \"#utility.yul\":4024:4362   */\n      jump\n        /* \"Escrow.sol\":3168:3249  require(escrow.player == winner || escrow.challenger == winner, \"Invalid winner\") */\n    tag_61:\n        /* \"Escrow.sol\":3268:3286  escrow.totalAmount */\n      dup1\n      sload\n      sub(shl(0x80, 0x01), 0x01)\n      and\n        /* \"Escrow.sol\":3260:3314  require(escrow.totalAmount > 0, \"No funds to release\") */\n      tag_64\n      jumpi\n      mload(0x40)\n      shl(0xe5, 0x461bcd)\n      dup2\n      mstore\n        /* \"#utility.yul\":4569:4571   */\n      0x20\n        /* \"Escrow.sol\":3260:3314  require(escrow.totalAmount > 0, \"No funds to release\") */\n      0x04\n      dup3\n      add\n        /* \"#utility.yul\":4551:4572   */\n      mstore\n        /* \"#utility.yul\":4608:4610   */\n      0x13\n        /* \"#utility.yul\":4588:4606   */\n      0x24\n      dup3\n      add\n        /* \"#utility.yul\":4581:4611   */\n      mstore\n      shl(0x68, 0x4e6f2066756e647320746f2072656c65617365)\n        /* \"#utility.yul\":4627:4645   */\n      0x44\n      dup3\n      add\n        /* \"#utility.yul\":4620:4669   */\n      mstore\n        /* \"#utility.yul\":4686:4704   */\n      0x64\n      add\n        /* \"Escrow.sol\":3260:3314  require(escrow.totalAmount > 0, \"No funds to release\") */\n      tag_34\n        /* \"#utility.yul\":4367:4710   */\n      jump\n        /* \"Escrow.sol\":3260:3314  require(escrow.totalAmount > 0, \"No funds to release\") */\n    tag_64:\n        /* \"Escrow.sol\":3361:3379  escrow.totalAmount */\n      dup1\n      sload\n      not(sub(shl(0x80, 0x01), 0x01))\n        /* \"Escrow.sol\":3390:3412  escrow.totalAmount = 0 */\n      dup2\n      and\n      dup3\n      sstore\n        /* \"Escrow.sol\":3423:3438  escrow.isActive */\n      0x02\n      dup3\n      add\n        /* \"Escrow.sol\":3423:3446  escrow.isActive = false */\n      dup1\n      sload\n      not(shl(0xa0, 0xff))\n      and\n      swap1\n      sstore\n        /* \"Escrow.sol\":3489:3529  ReleasedFunds(storeHash, amount, winner) */\n      mload(0x40)\n      sub(shl(0x80, 0x01), 0x01)\n        /* \"Escrow.sol\":3361:3379  escrow.totalAmount */\n      swap1\n      swap2\n      and\n      swap1\n      sub(shl(0xa0, 0x01), 0x01)\n        /* \"Escrow.sol\":3489:3529  ReleasedFunds(storeHash, amount, winner) */\n      dup5\n      and\n      swap1\n        /* \"Escrow.sol\":3361:3379  escrow.totalAmount */\n      dup3\n      swap1\n        /* \"Escrow.sol\":3503:3512  storeHash */\n      dup7\n      swap1\n        /* \"Escrow.sol\":3489:3529  ReleasedFunds(storeHash, amount, winner) */\n      0xa20198858d673ac3cf5d6f62c85cb502c39af8269735c0ef6774aff58154a429\n      swap1\n        /* \"Escrow.sol\":3347:3358  uint amount */\n      0x00\n      swap1\n        /* \"Escrow.sol\":3489:3529  ReleasedFunds(storeHash, amount, winner) */\n      log4\n        /* \"Escrow.sol\":3543:3555  bool success */\n      0x00\n        /* \"Escrow.sol\":3561:3567  winner */\n      dup4\n      sub(shl(0xa0, 0x01), 0x01)\n        /* \"Escrow.sol\":3561:3572  winner.call */\n      and\n        /* \"Escrow.sol\":3580:3586  amount */\n      dup3\n        /* \"Escrow.sol\":3561:3591  winner.call{value: amount}(\"\") */\n      mload(0x40)\n      0x00\n      mload(0x40)\n      dup1\n      dup4\n      sub\n      dup2\n      dup6\n      dup8\n      gas\n      call\n      swap3\n      pop\n      pop\n      pop\n      returndatasize\n      dup1\n      0x00\n      dup2\n      eq\n      tag_71\n      jumpi\n      mload(0x40)\n      swap2\n      pop\n      and(add(returndatasize, 0x3f), not(0x1f))\n      dup3\n      add\n      0x40\n      mstore\n      returndatasize\n      dup3\n      mstore\n      returndatasize\n      0x00\n      0x20\n      dup5\n      add\n      returndatacopy\n      jump(tag_70)\n    tag_71:\n      0x60\n      swap2\n      pop\n    tag_70:\n      pop\n        /* \"Escrow.sol\":3542:3591  (bool success, ) = winner.call{value: amount}(\"\") */\n      pop\n      swap1\n      pop\n        /* \"Escrow.sol\":3610:3617  success */\n      dup1\n        /* \"Escrow.sol\":3602:3637  require(success, \"Transfer failed\") */\n      tag_72\n      jumpi\n      mload(0x40)\n      shl(0xe5, 0x461bcd)\n      dup2\n      mstore\n        /* \"#utility.yul\":5127:5129   */\n      0x20\n        /* \"Escrow.sol\":3602:3637  require(success, \"Transfer failed\") */\n      0x04\n      dup3\n      add\n        /* \"#utility.yul\":5109:5130   */\n      mstore\n        /* \"#utility.yul\":5166:5168   */\n      0x0f\n        /* \"#utility.yul\":5146:5164   */\n      0x24\n      dup3\n      add\n        /* \"#utility.yul\":5139:5169   */\n      mstore\n      shl(0x8a, 0x151c985b9cd9995c8819985a5b1959)\n        /* \"#utility.yul\":5185:5203   */\n      0x44\n      dup3\n      add\n        /* \"#utility.yul\":5178:5223   */\n      mstore\n        /* \"#utility.yul\":5240:5258   */\n      0x64\n      add\n        /* \"Escrow.sol\":3602:3637  require(success, \"Transfer failed\") */\n      tag_34\n        /* \"#utility.yul\":4925:5264   */\n      jump\n        /* \"Escrow.sol\":3602:3637  require(success, \"Transfer failed\") */\n    tag_72:\n        /* \"Escrow.sol\":3017:3645  {... */\n      pop\n      pop\n      pop\n        /* \"@openzeppelin/contracts/security/ReentrancyGuard.sol\":2303:2323  _nonReentrantAfter() */\n      tag_75\n        /* \"@openzeppelin/contracts/security/ReentrancyGuard.sol\":1716:1717  1 */\n      0x01\n        /* \"@openzeppelin/contracts/security/ReentrancyGuard.sol\":2809:2816  _status */\n      0x00\n        /* \"@openzeppelin/contracts/security/ReentrancyGuard.sol\":2809:2831  _status = _NOT_ENTERED */\n      sstore\n        /* \"@openzeppelin/contracts/security/ReentrancyGuard.sol\":2629:2838  function _nonReentrantAfter() private {... */\n      jump\n        /* \"@openzeppelin/contracts/security/ReentrancyGuard.sol\":2303:2323  _nonReentrantAfter() */\n    tag_75:\n        /* \"Escrow.sol\":2938:3645  function releaseFunds(bytes32 storeHash, address winner) external nonReentrant {... */\n      pop\n      pop\n      jump\t// out\n        /* \"@openzeppelin/contracts/security/ReentrancyGuard.sol\":2336:2623  function _nonReentrantBefore() private {... */\n    tag_55:\n        /* \"@openzeppelin/contracts/security/ReentrancyGuard.sol\":1759:1760  2 */\n      0x02\n        /* \"@openzeppelin/contracts/security/ReentrancyGuard.sol\":2468:2475  _status */\n      sload(0x00)\n        /* \"@openzeppelin/contracts/security/ReentrancyGuard.sol\":2468:2487  _status != _ENTERED */\n      sub\n        /* \"@openzeppelin/contracts/security/ReentrancyGuard.sol\":2460:2523  require(_status != _ENTERED, \"ReentrancyGuard: reentrant call\") */\n      tag_78\n      jumpi\n      mload(0x40)\n      shl(0xe5, 0x461bcd)\n      dup2\n      mstore\n        /* \"#utility.yul\":5471:5473   */\n      0x20\n        /* \"@openzeppelin/contracts/security/ReentrancyGuard.sol\":2460:2523  require(_status != _ENTERED, \"ReentrancyGuard: reentrant call\") */\n      0x04\n      dup3\n      add\n        /* \"#utility.yul\":5453:5474   */\n      mstore\n        /* \"#utility.yul\":5510:5512   */\n      0x1f\n        /* \"#utility.yul\":5490:5508   */\n      0x24\n      dup3\n      add\n        /* \"#utility.yul\":5483:5513   */\n      mstore\n        /* \"#utility.yul\":5549:5582   */\n      0x5265656e7472616e637947756172643a207265656e7472616e742063616c6c00\n        /* \"#utility.yul\":5529:5547   */\n      0x44\n      dup3\n      add\n        /* \"#utility.yul\":5522:5583   */\n      mstore\n        /* \"#utility.yul\":5600:5618   */\n      0x64\n      add\n        /* \"@openzeppelin/contracts/security/ReentrancyGuard.sol\":2460:2523  require(_status != _ENTERED, \"ReentrancyGuard: reentrant call\") */\n      tag_34\n        /* \"#utility.yul\":5269:5624   */\n      jump\n        /* \"@openzeppelin/contracts/security/ReentrancyGuard.sol\":2460:2523  require(_status != _ENTERED, \"ReentrancyGuard: reentrant call\") */\n    tag_78:\n        /* \"@openzeppelin/contracts/security/ReentrancyGuard.sol\":1759:1760  2 */\n      0x02\n        /* \"@openzeppelin/contracts/security/ReentrancyGuard.sol\":2598:2605  _status */\n      0x00\n        /* \"@openzeppelin/contracts/security/ReentrancyGuard.sol\":2598:2616  _status = _ENTERED */\n      sstore\n        /* \"@openzeppelin/contracts/security/ReentrancyGuard.sol\":2336:2623  function _nonReentrantBefore() private {... */\n      jump\t// out\n        /* \"#utility.yul\":196:542   */\n    tag_14:\n        /* \"#utility.yul\":264:270   */\n      0x00\n        /* \"#utility.yul\":272:278   */\n      dup1\n        /* \"#utility.yul\":325:327   */\n      0x40\n        /* \"#utility.yul\":313:322   */\n      dup4\n        /* \"#utility.yul\":304:311   */\n      dup6\n        /* \"#utility.yul\":300:323   */\n      sub\n        /* \"#utility.yul\":296:328   */\n      slt\n        /* \"#utility.yul\":293:345   */\n      iszero\n      tag_85\n      jumpi\n        /* \"#utility.yul\":341:342   */\n      0x00\n        /* \"#utility.yul\":338:339   */\n      dup1\n        /* \"#utility.yul\":331:343   */\n      revert\n        /* \"#utility.yul\":293:345   */\n    tag_85:\n      pop\n      pop\n        /* \"#utility.yul\":386:409   */\n      dup1\n      calldataload\n      swap3\n        /* \"#utility.yul\":506:508   */\n      0x20\n        /* \"#utility.yul\":491:509   */\n      swap1\n      swap2\n      add\n        /* \"#utility.yul\":478:510   */\n      calldataload\n      swap2\n      pop\n        /* \"#utility.yul\":196:542   */\n      jump\t// out\n        /* \"#utility.yul\":547:955   */\n    tag_23:\n        /* \"#utility.yul\":615:621   */\n      0x00\n        /* \"#utility.yul\":623:629   */\n      dup1\n        /* \"#utility.yul\":676:678   */\n      0x40\n        /* \"#utility.yul\":664:673   */\n      dup4\n        /* \"#utility.yul\":655:662   */\n      dup6\n        /* \"#utility.yul\":651:674   */\n      sub\n        /* \"#utility.yul\":647:679   */\n      slt\n        /* \"#utility.yul\":644:696   */\n      iszero\n      tag_87\n      jumpi\n        /* \"#utility.yul\":692:693   */\n      0x00\n        /* \"#utility.yul\":689:690   */\n      dup1\n        /* \"#utility.yul\":682:694   */\n      revert\n        /* \"#utility.yul\":644:696   */\n    tag_87:\n        /* \"#utility.yul\":737:760   */\n      dup3\n      calldataload\n      swap2\n      pop\n        /* \"#utility.yul\":836:838   */\n      0x20\n        /* \"#utility.yul\":821:839   */\n      dup4\n      add\n        /* \"#utility.yul\":808:840   */\n      calldataload\n      sub(shl(0xa0, 0x01), 0x01)\n        /* \"#utility.yul\":871:904   */\n      dup2\n      and\n        /* \"#utility.yul\":859:905   */\n      dup2\n      eq\n        /* \"#utility.yul\":849:923   */\n      tag_88\n      jumpi\n        /* \"#utility.yul\":919:920   */\n      0x00\n        /* \"#utility.yul\":916:917   */\n      dup1\n        /* \"#utility.yul\":909:921   */\n      revert\n        /* \"#utility.yul\":849:923   */\n    tag_88:\n        /* \"#utility.yul\":942:949   */\n      dup1\n        /* \"#utility.yul\":932:949   */\n      swap2\n      pop\n      pop\n        /* \"#utility.yul\":547:955   */\n      swap3\n      pop\n      swap3\n      swap1\n      pop\n      jump\t// out\n        /* \"#utility.yul\":960:1186   */\n    tag_28:\n        /* \"#utility.yul\":1019:1025   */\n      0x00\n        /* \"#utility.yul\":1072:1074   */\n      0x20\n        /* \"#utility.yul\":1060:1069   */\n      dup3\n        /* \"#utility.yul\":1051:1058   */\n      dup5\n        /* \"#utility.yul\":1047:1070   */\n      sub\n        /* \"#utility.yul\":1043:1075   */\n      slt\n        /* \"#utility.yul\":1040:1092   */\n      iszero\n      tag_90\n      jumpi\n        /* \"#utility.yul\":1088:1089   */\n      0x00\n        /* \"#utility.yul\":1085:1086   */\n      dup1\n        /* \"#utility.yul\":1078:1090   */\n      revert\n        /* \"#utility.yul\":1040:1092   */\n    tag_90:\n      pop\n        /* \"#utility.yul\":1133:1156   */\n      calldataload\n      swap2\n        /* \"#utility.yul\":960:1186   */\n      swap1\n      pop\n      jump\t// out\n\n    auxdata: 0xa2646970667358221220bf5416a95bb6fb7250297f4fcf97e8861e54bfb76100a560e015cde3a04a70b664736f6c634300081a0033\n}\n",
				"bytecode": {
					"linkReferences": {},
					"object": "6080604052348015600e575f80fd5b5060015f5561074b806100205f395ff3fe608060405260043610610049575f3560e01c806316c30ebc1461004d5780632fa0b49f14610093578063530adbb4146100a85780637d25e89d146100db578063a0946f92146100fa575b5f80fd5b348015610058575f80fd5b506100807f326d994cdb81aaccb84aa1f62bae636dc0aaf98ab22f66b0c9224f1edccd7cc981565b6040519081526020015b60405180910390f35b6100a66100a13660046106a5565b610191565b005b3480156100b3575f80fd5b506100807fae8b6f0f354448b9bed217dcbb6effc6cc52560477cd31206503fbd937f7a37881565b3480156100e6575f80fd5b506100a66100f53660046106c5565b61042e565b348015610105575f80fd5b506101586101143660046106fe565b600160208190525f91825260409091208054918101546002909101546001600160801b03909216916001600160a01b0391821691811690600160a01b900460ff1684565b604080516001600160801b039590951685526001600160a01b03938416602086015291909216908301521515606082015260800161008a565b5f34116101d75760405162461bcd60e51b815260206004820152600f60248201526e125b9d985b1a590819195c1bdcda5d608a1b60448201526064015b60405180910390fd5b7f326d994cdb81aaccb84aa1f62bae636dc0aaf98ab22f66b0c9224f1edccd7cc981148061022457507fae8b6f0f354448b9bed217dcbb6effc6cc52560477cd31206503fbd937f7a37881145b6102635760405162461bcd60e51b815260206004820152601060248201526f496e76616c6964206964656e7469747960801b60448201526064016101ce565b6001600160801b033411156102ad5760405162461bcd60e51b815260206004820152601060248201526f416d6f756e7420746f6f206c6172676560801b60448201526064016101ce565b5f8281526001602052604090207fcd9266b3247e553347b55e09d4519c923f5506754dd0994f36ddb0e123328337820161034a5760018101546001600160a01b0316156103315760405162461bcd60e51b8152602060048201526012602482015271141b185e595c88185b1c9958591e481cd95d60721b60448201526064016101ce565b6001810180546001600160a01b031916331790556103b3565b60028101546001600160a01b03161561039e5760405162461bcd60e51b815260206004820152601660248201527510da185b1b195b99d95c88185b1c9958591e481cd95d60521b60448201526064016101ce565b6002810180546001600160a01b031916331790555b80546001600160801b03198116346001600160801b039283168101909216178255600282018054600160a01b60ff60a01b19909116179055604080518481526020810192909252339185917f47b2a1127ea8251f2643fef19daa05415bd86a2c7083f46f0ec1fd083e4a8a64910160405180910390a3505050565b61043661064e565b5f8281526001602052604090206002810154600160a01b900460ff166104955760405162461bcd60e51b8152602060048201526014602482015273457363726f77206973206e6f742061637469766560601b60448201526064016101ce565b60018101546001600160a01b03838116911614806104c2575060028101546001600160a01b038381169116145b6104ff5760405162461bcd60e51b815260206004820152600e60248201526d24b73b30b634b2103bb4b73732b960911b60448201526064016101ce565b80546001600160801b031661054c5760405162461bcd60e51b81526020600482015260136024820152724e6f2066756e647320746f2072656c6561736560681b60448201526064016101ce565b80546001600160801b03198116825560028201805460ff60a01b191690556040516001600160801b03909116906001600160a01b03841690829086907fa20198858d673ac3cf5d6f62c85cb502c39af8269735c0ef6774aff58154a429905f90a45f836001600160a01b0316826040515f6040518083038185875af1925050503d805f81146105f6576040519150601f19603f3d011682016040523d82523d5f602084013e6105fb565b606091505b505090508061063e5760405162461bcd60e51b815260206004820152600f60248201526e151c985b9cd9995c8819985a5b1959608a1b60448201526064016101ce565b50505061064a60015f55565b5050565b60025f540361069f5760405162461bcd60e51b815260206004820152601f60248201527f5265656e7472616e637947756172643a207265656e7472616e742063616c6c0060448201526064016101ce565b60025f55565b5f80604083850312156106b6575f80fd5b50508035926020909101359150565b5f80604083850312156106d6575f80fd5b8235915060208301356001600160a01b03811681146106f3575f80fd5b809150509250929050565b5f6020828403121561070e575f80fd5b503591905056fea2646970667358221220bf5416a95bb6fb7250297f4fcf97e8861e54bfb76100a560e015cde3a04a70b664736f6c634300081a0033",
					"opcodes": "PUSH1 0x80 PUSH1 0x40 MSTORE CALLVALUE DUP1 ISZERO PUSH1 0xE JUMPI PUSH0 DUP1 REVERT JUMPDEST POP PUSH1 0x1 PUSH0 SSTORE PUSH2 0x74B DUP1 PUSH2 0x20 PUSH0 CODECOPY PUSH0 RETURN INVALID PUSH1 0x80 PUSH1 0x40 MSTORE PUSH1 0x4 CALLDATASIZE LT PUSH2 0x49 JUMPI PUSH0 CALLDATALOAD PUSH1 0xE0 SHR DUP1 PUSH4 0x16C30EBC EQ PUSH2 0x4D JUMPI DUP1 PUSH4 0x2FA0B49F EQ PUSH2 0x93 JUMPI DUP1 PUSH4 0x530ADBB4 EQ PUSH2 0xA8 JUMPI DUP1 PUSH4 0x7D25E89D EQ PUSH2 0xDB JUMPI DUP1 PUSH4 0xA0946F92 EQ PUSH2 0xFA JUMPI JUMPDEST PUSH0 DUP1 REVERT JUMPDEST CALLVALUE DUP1 ISZERO PUSH2 0x58 JUMPI PUSH0 DUP1 REVERT JUMPDEST POP PUSH2 0x80 PUSH32 0x326D994CDB81AACCB84AA1F62BAE636DC0AAF98AB22F66B0C9224F1EDCCD7CC9 DUP2 JUMP JUMPDEST PUSH1 0x40 MLOAD SWAP1 DUP2 MSTORE PUSH1 0x20 ADD JUMPDEST PUSH1 0x40 MLOAD DUP1 SWAP2 SUB SWAP1 RETURN JUMPDEST PUSH2 0xA6 PUSH2 0xA1 CALLDATASIZE PUSH1 0x4 PUSH2 0x6A5 JUMP JUMPDEST PUSH2 0x191 JUMP JUMPDEST STOP JUMPDEST CALLVALUE DUP1 ISZERO PUSH2 0xB3 JUMPI PUSH0 DUP1 REVERT JUMPDEST POP PUSH2 0x80 PUSH32 0xAE8B6F0F354448B9BED217DCBB6EFFC6CC52560477CD31206503FBD937F7A378 DUP2 JUMP JUMPDEST CALLVALUE DUP1 ISZERO PUSH2 0xE6 JUMPI PUSH0 DUP1 REVERT JUMPDEST POP PUSH2 0xA6 PUSH2 0xF5 CALLDATASIZE PUSH1 0x4 PUSH2 0x6C5 JUMP JUMPDEST PUSH2 0x42E JUMP JUMPDEST CALLVALUE DUP1 ISZERO PUSH2 0x105 JUMPI PUSH0 DUP1 REVERT JUMPDEST POP PUSH2 0x158 PUSH2 0x114 CALLDATASIZE PUSH1 0x4 PUSH2 0x6FE JUMP JUMPDEST PUSH1 0x1 PUSH1 0x20 DUP2 SWAP1 MSTORE PUSH0 SWAP2 DUP3 MSTORE PUSH1 0x40 SWAP1 SWAP2 KECCAK256 DUP1 SLOAD SWAP2 DUP2 ADD SLOAD PUSH1 0x2 SWAP1 SWAP2 ADD SLOAD PUSH1 0x1 PUSH1 0x1 PUSH1 0x80 SHL SUB SWAP1 SWAP3 AND SWAP2 PUSH1 0x1 PUSH1 0x1 PUSH1 0xA0 SHL SUB SWAP2 DUP3 AND SWAP2 DUP2 AND SWAP1 PUSH1 0x1 PUSH1 0xA0 SHL SWAP1 DIV PUSH1 0xFF AND DUP5 JUMP JUMPDEST PUSH1 0x40 DUP1 MLOAD PUSH1 0x1 PUSH1 0x1 PUSH1 0x80 SHL SUB SWAP6 SWAP1 SWAP6 AND DUP6 MSTORE PUSH1 0x1 PUSH1 0x1 PUSH1 0xA0 SHL SUB SWAP4 DUP5 AND PUSH1 0x20 DUP7 ADD MSTORE SWAP2 SWAP1 SWAP3 AND SWAP1 DUP4 ADD MSTORE ISZERO ISZERO PUSH1 0x60 DUP3 ADD MSTORE PUSH1 0x80 ADD PUSH2 0x8A JUMP JUMPDEST PUSH0 CALLVALUE GT PUSH2 0x1D7 JUMPI PUSH1 0x40 MLOAD PUSH3 0x461BCD PUSH1 0xE5 SHL DUP2 MSTORE PUSH1 0x20 PUSH1 0x4 DUP3 ADD MSTORE PUSH1 0xF PUSH1 0x24 DUP3 ADD MSTORE PUSH15 0x125B9D985B1A590819195C1BDCDA5D PUSH1 0x8A SHL PUSH1 0x44 DUP3 ADD MSTORE PUSH1 0x64 ADD JUMPDEST PUSH1 0x40 MLOAD DUP1 SWAP2 SUB SWAP1 REVERT JUMPDEST PUSH32 0x326D994CDB81AACCB84AA1F62BAE636DC0AAF98AB22F66B0C9224F1EDCCD7CC9 DUP2 EQ DUP1 PUSH2 0x224 JUMPI POP PUSH32 0xAE8B6F0F354448B9BED217DCBB6EFFC6CC52560477CD31206503FBD937F7A378 DUP2 EQ JUMPDEST PUSH2 0x263 JUMPI PUSH1 0x40 MLOAD PUSH3 0x461BCD PUSH1 0xE5 SHL DUP2 MSTORE PUSH1 0x20 PUSH1 0x4 DUP3 ADD MSTORE PUSH1 0x10 PUSH1 0x24 DUP3 ADD MSTORE PUSH16 0x496E76616C6964206964656E74697479 PUSH1 0x80 SHL PUSH1 0x44 DUP3 ADD MSTORE PUSH1 0x64 ADD PUSH2 0x1CE JUMP JUMPDEST PUSH1 0x1 PUSH1 0x1 PUSH1 0x80 SHL SUB CALLVALUE GT ISZERO PUSH2 0x2AD JUMPI PUSH1 0x40 MLOAD PUSH3 0x461BCD PUSH1 0xE5 SHL DUP2 MSTORE PUSH1 0x20 PUSH1 0x4 DUP3 ADD MSTORE PUSH1 0x10 PUSH1 0x24 DUP3 ADD MSTORE PUSH16 0x416D6F756E7420746F6F206C61726765 PUSH1 0x80 SHL PUSH1 0x44 DUP3 ADD MSTORE PUSH1 0x64 ADD PUSH2 0x1CE JUMP JUMPDEST PUSH0 DUP3 DUP2 MSTORE PUSH1 0x1 PUSH1 0x20 MSTORE PUSH1 0x40 SWAP1 KECCAK256 PUSH32 0xCD9266B3247E553347B55E09D4519C923F5506754DD0994F36DDB0E123328337 DUP3 ADD PUSH2 0x34A JUMPI PUSH1 0x1 DUP2 ADD SLOAD PUSH1 0x1 PUSH1 0x1 PUSH1 0xA0 SHL SUB AND ISZERO PUSH2 0x331 JUMPI PUSH1 0x40 MLOAD PUSH3 0x461BCD PUSH1 0xE5 SHL DUP2 MSTORE PUSH1 0x20 PUSH1 0x4 DUP3 ADD MSTORE PUSH1 0x12 PUSH1 0x24 DUP3 ADD MSTORE PUSH18 0x141B185E595C88185B1C9958591E481CD95D PUSH1 0x72 SHL PUSH1 0x44 DUP3 ADD MSTORE PUSH1 0x64 ADD PUSH2 0x1CE JUMP JUMPDEST PUSH1 0x1 DUP2 ADD DUP1 SLOAD PUSH1 0x1 PUSH1 0x1 PUSH1 0xA0 SHL SUB NOT AND CALLER OR SWAP1 SSTORE PUSH2 0x3B3 JUMP JUMPDEST PUSH1 0x2 DUP2 ADD SLOAD PUSH1 0x1 PUSH1 0x1 PUSH1 0xA0 SHL SUB AND ISZERO PUSH2 0x39E JUMPI PUSH1 0x40 MLOAD PUSH3 0x461BCD PUSH1 0xE5 SHL DUP2 MSTORE PUSH1 0x20 PUSH1 0x4 DUP3 ADD MSTORE PUSH1 0x16 PUSH1 0x24 DUP3 ADD MSTORE PUSH22 0x10DA185B1B195B99D95C88185B1C9958591E481CD95D PUSH1 0x52 SHL PUSH1 0x44 DUP3 ADD MSTORE PUSH1 0x64 ADD PUSH2 0x1CE JUMP JUMPDEST PUSH1 0x2 DUP2 ADD DUP1 SLOAD PUSH1 0x1 PUSH1 0x1 PUSH1 0xA0 SHL SUB NOT AND CALLER OR SWAP1 SSTORE JUMPDEST DUP1 SLOAD PUSH1 0x1 PUSH1 0x1 PUSH1 0x80 SHL SUB NOT DUP2 AND CALLVALUE PUSH1 0x1 PUSH1 0x1 PUSH1 0x80 SHL SUB SWAP3 DUP4 AND DUP2 ADD SWAP1 SWAP3 AND OR DUP3 SSTORE PUSH1 0x2 DUP3 ADD DUP1 SLOAD PUSH1 0x1 PUSH1 0xA0 SHL PUSH1 0xFF PUSH1 0xA0 SHL NOT SWAP1 SWAP2 AND OR SWAP1 SSTORE PUSH1 0x40 DUP1 MLOAD DUP5 DUP2 MSTORE PUSH1 0x20 DUP2 ADD SWAP3 SWAP1 SWAP3 MSTORE CALLER SWAP2 DUP6 SWAP2 PUSH32 0x47B2A1127EA8251F2643FEF19DAA05415BD86A2C7083F46F0EC1FD083E4A8A64 SWAP2 ADD PUSH1 0x40 MLOAD DUP1 SWAP2 SUB SWAP1 LOG3 POP POP POP JUMP JUMPDEST PUSH2 0x436 PUSH2 0x64E JUMP JUMPDEST PUSH0 DUP3 DUP2 MSTORE PUSH1 0x1 PUSH1 0x20 MSTORE PUSH1 0x40 SWAP1 KECCAK256 PUSH1 0x2 DUP2 ADD SLOAD PUSH1 0x1 PUSH1 0xA0 SHL SWAP1 DIV PUSH1 0xFF AND PUSH2 0x495 JUMPI PUSH1 0x40 MLOAD PUSH3 0x461BCD PUSH1 0xE5 SHL DUP2 MSTORE PUSH1 0x20 PUSH1 0x4 DUP3 ADD MSTORE PUSH1 0x14 PUSH1 0x24 DUP3 ADD MSTORE PUSH20 0x457363726F77206973206E6F7420616374697665 PUSH1 0x60 SHL PUSH1 0x44 DUP3 ADD MSTORE PUSH1 0x64 ADD PUSH2 0x1CE JUMP JUMPDEST PUSH1 0x1 DUP2 ADD SLOAD PUSH1 0x1 PUSH1 0x1 PUSH1 0xA0 SHL SUB DUP4 DUP2 AND SWAP2 AND EQ DUP1 PUSH2 0x4C2 JUMPI POP PUSH1 0x2 DUP2 ADD SLOAD PUSH1 0x1 PUSH1 0x1 PUSH1 0xA0 SHL SUB DUP4 DUP2 AND SWAP2 AND EQ JUMPDEST PUSH2 0x4FF JUMPI PUSH1 0x40 MLOAD PUSH3 0x461BCD PUSH1 0xE5 SHL DUP2 MSTORE PUSH1 0x20 PUSH1 0x4 DUP3 ADD MSTORE PUSH1 0xE PUSH1 0x24 DUP3 ADD MSTORE PUSH14 0x24B73B30B634B2103BB4B73732B9 PUSH1 0x91 SHL PUSH1 0x44 DUP3 ADD MSTORE PUSH1 0x64 ADD PUSH2 0x1CE JUMP JUMPDEST DUP1 SLOAD PUSH1 0x1 PUSH1 0x1 PUSH1 0x80 SHL SUB AND PUSH2 0x54C JUMPI PUSH1 0x40 MLOAD PUSH3 0x461BCD PUSH1 0xE5 SHL DUP2 MSTORE PUSH1 0x20 PUSH1 0x4 DUP3 ADD MSTORE PUSH1 0x13 PUSH1 0x24 DUP3 ADD MSTORE PUSH19 0x4E6F2066756E647320746F2072656C65617365 PUSH1 0x68 SHL PUSH1 0x44 DUP3 ADD MSTORE PUSH1 0x64 ADD PUSH2 0x1CE JUMP JUMPDEST DUP1 SLOAD PUSH1 0x1 PUSH1 0x1 PUSH1 0x80 SHL SUB NOT DUP2 AND DUP3 SSTORE PUSH1 0x2 DUP3 ADD DUP1 SLOAD PUSH1 0xFF PUSH1 0xA0 SHL NOT AND SWAP1 SSTORE PUSH1 0x40 MLOAD PUSH1 0x1 PUSH1 0x1 PUSH1 0x80 SHL SUB SWAP1 SWAP2 AND SWAP1 PUSH1 0x1 PUSH1 0x1 PUSH1 0xA0 SHL SUB DUP5 AND SWAP1 DUP3 SWAP1 DUP7 SWAP1 PUSH32 0xA20198858D673AC3CF5D6F62C85CB502C39AF8269735C0EF6774AFF58154A429 SWAP1 PUSH0 SWAP1 LOG4 PUSH0 DUP4 PUSH1 0x1 PUSH1 0x1 PUSH1 0xA0 SHL SUB AND DUP3 PUSH1 0x40 MLOAD PUSH0 PUSH1 0x40 MLOAD DUP1 DUP4 SUB DUP2 DUP6 DUP8 GAS CALL SWAP3 POP POP POP RETURNDATASIZE DUP1 PUSH0 DUP2 EQ PUSH2 0x5F6 JUMPI PUSH1 0x40 MLOAD SWAP2 POP PUSH1 0x1F NOT PUSH1 0x3F RETURNDATASIZE ADD AND DUP3 ADD PUSH1 0x40 MSTORE RETURNDATASIZE DUP3 MSTORE RETURNDATASIZE PUSH0 PUSH1 0x20 DUP5 ADD RETURNDATACOPY PUSH2 0x5FB JUMP JUMPDEST PUSH1 0x60 SWAP2 POP JUMPDEST POP POP SWAP1 POP DUP1 PUSH2 0x63E JUMPI PUSH1 0x40 MLOAD PUSH3 0x461BCD PUSH1 0xE5 SHL DUP2 MSTORE PUSH1 0x20 PUSH1 0x4 DUP3 ADD MSTORE PUSH1 0xF PUSH1 0x24 DUP3 ADD MSTORE PUSH15 0x151C985B9CD9995C8819985A5B1959 PUSH1 0x8A SHL PUSH1 0x44 DUP3 ADD MSTORE PUSH1 0x64 ADD PUSH2 0x1CE JUMP JUMPDEST POP POP POP PUSH2 0x64A PUSH1 0x1 PUSH0 SSTORE JUMP JUMPDEST POP POP JUMP JUMPDEST PUSH1 0x2 PUSH0 SLOAD SUB PUSH2 0x69F JUMPI PUSH1 0x40 MLOAD PUSH3 0x461BCD PUSH1 0xE5 SHL DUP2 MSTORE PUSH1 0x20 PUSH1 0x4 DUP3 ADD MSTORE PUSH1 0x1F PUSH1 0x24 DUP3 ADD MSTORE PUSH32 0x5265656E7472616E637947756172643A207265656E7472616E742063616C6C00 PUSH1 0x44 DUP3 ADD MSTORE PUSH1 0x64 ADD PUSH2 0x1CE JUMP JUMPDEST PUSH1 0x2 PUSH0 SSTORE JUMP JUMPDEST PUSH0 DUP1 PUSH1 0x40 DUP4 DUP6 SUB SLT ISZERO PUSH2 0x6B6 JUMPI PUSH0 DUP1 REVERT JUMPDEST POP POP DUP1 CALLDATALOAD SWAP3 PUSH1 0x20 SWAP1 SWAP2 ADD CALLDATALOAD SWAP2 POP JUMP JUMPDEST PUSH0 DUP1 PUSH1 0x40 DUP4 DUP6 SUB SLT ISZERO PUSH2 0x6D6 JUMPI PUSH0 DUP1 REVERT JUMPDEST DUP3 CALLDATALOAD SWAP2 POP PUSH1 0x20 DUP4 ADD CALLDATALOAD PUSH1 0x1 PUSH1 0x1 PUSH1 0xA0 SHL SUB DUP2 AND DUP2 EQ PUSH2 0x6F3 JUMPI PUSH0 DUP1 REVERT JUMPDEST DUP1 SWAP2 POP POP SWAP3 POP SWAP3 SWAP1 POP JUMP JUMPDEST PUSH0 PUSH1 0x20 DUP3 DUP5 SUB SLT ISZERO PUSH2 0x70E JUMPI PUSH0 DUP1 REVERT JUMPDEST POP CALLDATALOAD SWAP2 SWAP1 POP JUMP INVALID LOG2 PUSH5 0x6970667358 0x22 SLT KECCAK256 0xBF SLOAD AND 0xA9 JUMPDEST 0xB6 0xFB PUSH19 0x50297F4FCF97E8861E54BFB76100A560E015CD 0xE3 LOG0 BLOBBASEFEE PUSH17 0xB664736F6C634300081A00330000000000 "
				},
				"gasEstimates": {
					"creation": {
						"codeDepositCost": "373400",
						"executionCost": "22514",
						"totalCost": "395914"
					},
					"external": {
						"CHALLENGER_ROLE()": "205",
						"PLAYER_ROLE()": "161",
						"escrowStorage(bytes32)": "6934",
						"releaseFunds(bytes32,address)": "infinite",
						"storeTokens(bytes32,bytes32)": "77440"
					}
				},
				"methodIdentifiers": {
					"CHALLENGER_ROLE()": "530adbb4",
					"PLAYER_ROLE()": "16c30ebc",
					"escrowStorage(bytes32)": "a0946f92",
					"releaseFunds(bytes32,address)": "7d25e89d",
					"storeTokens(bytes32,bytes32)": "2fa0b49f"
				}
			},
			"storageLayout": {
				"storage": [
					{
						"astId": 10,
						"contract": "Escrow.sol:Escrow",
						"label": "_status",
						"offset": 0,
						"slot": "0",
						"type": "t_uint256"
					},
					{
						"astId": 95,
						"contract": "Escrow.sol:Escrow",
						"label": "escrowStorage",
						"offset": 0,
						"slot": "1",
						"type": "t_mapping(t_bytes32,t_struct(Storage)90_storage)"
					}
				],
				"types": {
					"t_address": {
						"encoding": "inplace",
						"label": "address",
						"numberOfBytes": "20"
					},
					"t_bool": {
						"encoding": "inplace",
						"label": "bool",
						"numberOfBytes": "1"
					},
					"t_bytes32": {
						"encoding": "inplace",
						"label": "bytes32",
						"numberOfBytes": "32"
					},
					"t_mapping(t_bytes32,t_struct(Storage)90_storage)": {
						"encoding": "mapping",
						"key": "t_bytes32",
						"label": "mapping(bytes32 => struct Escrow.Storage)",
						"numberOfBytes": "32",
						"value": "t_struct(Storage)90_storage"
					},
					"t_struct(Storage)90_storage": {
						"encoding": "inplace",
						"label": "struct Escrow.Storage",
						"members": [
							{
								"astId": 83,
								"contract": "Escrow.sol:Escrow",
								"label": "totalAmount",
								"offset": 0,
								"slot": "0",
								"type": "t_uint128"
							},
							{
								"astId": 85,
								"contract": "Escrow.sol:Escrow",
								"label": "player",
								"offset": 0,
								"slot": "1",
								"type": "t_address"
							},
							{
								"astId": 87,
								"contract": "Escrow.sol:Escrow",
								"label": "challenger",
								"offset": 0,
								"slot": "2",
								"type": "t_address"
							},
							{
								"astId": 89,
								"contract": "Escrow.sol:Escrow",
								"label": "isActive",
								"offset": 20,
								"slot": "2",
								"type": "t_bool"
							}
						],
						"numberOfBytes": "96"
					},
					"t_uint128": {
						"encoding": "inplace",
						"label": "uint128",
						"numberOfBytes": "16"
					},
					"t_uint256": {
						"encoding": "inplace",
						"label": "uint256",
						"numberOfBytes": "32"
					}
				}
			},
			"userdoc": {
				"events": {
					"ReleasedFunds(bytes32,uint256,address)": {
						"notice": "Emitted when funds are released from an escrow"
					},
					"TokensStored(bytes32,address,bytes32,uint256)": {
						"notice": "Emitted when a deposit is made to an escrow"
					}
				},
				"kind": "user",
				"methods": {
					"releaseFunds(bytes32,address)": {
						"notice": "Release funds to the winner"
					},
					"storeTokens(bytes32,bytes32)": {
						"notice": "Store tokens in the escrow"
					}
				},
				"version": 1
			}
		}
	}
}