{
	"Escrow.sol": {
		"Escrow": {
			"abi": [
				{
					"inputs": [
						{
							"internalType": "address",
							"name": "_oracleAddress",
							"type": "address"
						}
					],
					"stateMutability": "nonpayable",
					"type": "constructor"
				},
				{
					"inputs": [
						{
							"internalType": "address",
							"name": "owner",
							"type": "address"
						}
					],
					"name": "OwnableInvalidOwner",
					"type": "error"
				},
				{
					"inputs": [
						{
							"internalType": "address",
							"name": "account",
							"type": "address"
						}
					],
					"name": "OwnableUnauthorizedAccount",
					"type": "error"
				},
				{
					"anonymous": false,
					"inputs": [
						{
							"indexed": true,
							"internalType": "bytes32",
							"name": "storeHash",
							"type": "bytes32"
						},
						{
							"indexed": true,
							"internalType": "address",
							"name": "acceptor",
							"type": "address"
						},
						{
							"indexed": false,
							"internalType": "bytes32",
							"name": "choice",
							"type": "bytes32"
						}
					],
					"name": "BetAccepted",
					"type": "event"
				},
				{
					"anonymous": false,
					"inputs": [
						{
							"indexed": true,
							"internalType": "bytes32",
							"name": "storeHash",
							"type": "bytes32"
						}
					],
					"name": "DrawDeclared",
					"type": "event"
				},
				{
					"anonymous": false,
					"inputs": [
						{
							"indexed": true,
							"internalType": "address",
							"name": "oldOracle",
							"type": "address"
						},
						{
							"indexed": true,
							"internalType": "address",
							"name": "newOracle",
							"type": "address"
						}
					],
					"name": "OracleUpdated",
					"type": "event"
				},
				{
					"anonymous": false,
					"inputs": [
						{
							"indexed": true,
							"internalType": "address",
							"name": "previousOwner",
							"type": "address"
						},
						{
							"indexed": true,
							"internalType": "address",
							"name": "newOwner",
							"type": "address"
						}
					],
					"name": "OwnershipTransferred",
					"type": "event"
				},
				{
					"anonymous": false,
					"inputs": [
						{
							"indexed": true,
							"internalType": "bytes32",
							"name": "storeHash",
							"type": "bytes32"
						},
						{
							"indexed": true,
							"internalType": "uint256",
							"name": "amount",
							"type": "uint256"
						},
						{
							"indexed": true,
							"internalType": "address",
							"name": "winner",
							"type": "address"
						}
					],
					"name": "ReleasedFunds",
					"type": "event"
				},
				{
					"anonymous": false,
					"inputs": [
						{
							"indexed": true,
							"internalType": "bytes32",
							"name": "storeHash",
							"type": "bytes32"
						},
						{
							"indexed": true,
							"internalType": "address",
							"name": "depositor",
							"type": "address"
						},
						{
							"indexed": false,
							"internalType": "bytes32",
							"name": "identity",
							"type": "bytes32"
						},
						{
							"indexed": false,
							"internalType": "bytes32",
							"name": "matchId",
							"type": "bytes32"
						},
						{
							"indexed": false,
							"internalType": "bytes32",
							"name": "choice",
							"type": "bytes32"
						},
						{
							"indexed": false,
							"internalType": "uint256",
							"name": "amount",
							"type": "uint256"
						}
					],
					"name": "TokensStored",
					"type": "event"
				},
				{
					"inputs": [],
					"name": "CHALLENGER_ROLE",
					"outputs": [
						{
							"internalType": "bytes32",
							"name": "",
							"type": "bytes32"
						}
					],
					"stateMutability": "view",
					"type": "function"
				},
				{
					"inputs": [],
					"name": "PLAYER_ROLE",
					"outputs": [
						{
							"internalType": "bytes32",
							"name": "",
							"type": "bytes32"
						}
					],
					"stateMutability": "view",
					"type": "function"
				},
				{
					"inputs": [
						{
							"internalType": "bytes32",
							"name": "storeHash",
							"type": "bytes32"
						},
						{
							"internalType": "bytes32",
							"name": "choice",
							"type": "bytes32"
						}
					],
					"name": "acceptBet",
					"outputs": [],
					"stateMutability": "payable",
					"type": "function"
				},
				{
					"inputs": [],
					"name": "betCounter",
					"outputs": [
						{
							"internalType": "uint256",
							"name": "",
							"type": "uint256"
						}
					],
					"stateMutability": "view",
					"type": "function"
				},
				{
					"inputs": [
						{
							"internalType": "bytes32",
							"name": "storeHash",
							"type": "bytes32"
						}
					],
					"name": "declareDraw",
					"outputs": [],
					"stateMutability": "nonpayable",
					"type": "function"
				},
				{
					"inputs": [
						{
							"internalType": "bytes32",
							"name": "",
							"type": "bytes32"
						}
					],
					"name": "escrowStorage",
					"outputs": [
						{
							"internalType": "bytes32",
							"name": "matchId",
							"type": "bytes32"
						},
						{
							"internalType": "address",
							"name": "player",
							"type": "address"
						},
						{
							"internalType": "address",
							"name": "challenger",
							"type": "address"
						},
						{
							"internalType": "bytes32",
							"name": "choiceA",
							"type": "bytes32"
						},
						{
							"internalType": "bytes32",
							"name": "choiceB",
							"type": "bytes32"
						},
						{
							"internalType": "uint128",
							"name": "totalAmount",
							"type": "uint128"
						},
						{
							"internalType": "bool",
							"name": "isActive",
							"type": "bool"
						},
						{
							"internalType": "bool",
							"name": "isResolved",
							"type": "bool"
						}
					],
					"stateMutability": "view",
					"type": "function"
				},
				{
					"inputs": [
						{
							"internalType": "bytes32",
							"name": "storeHash",
							"type": "bytes32"
						}
					],
					"name": "getCurrentBalance",
					"outputs": [
						{
							"internalType": "uint256",
							"name": "",
							"type": "uint256"
						}
					],
					"stateMutability": "view",
					"type": "function"
				},
				{
					"inputs": [],
					"name": "oracleAddress",
					"outputs": [
						{
							"internalType": "address",
							"name": "",
							"type": "address"
						}
					],
					"stateMutability": "view",
					"type": "function"
				},
				{
					"inputs": [],
					"name": "owner",
					"outputs": [
						{
							"internalType": "address",
							"name": "",
							"type": "address"
						}
					],
					"stateMutability": "view",
					"type": "function"
				},
				{
					"inputs": [
						{
							"internalType": "bytes32",
							"name": "storeHash",
							"type": "bytes32"
						},
						{
							"internalType": "address",
							"name": "winner",
							"type": "address"
						}
					],
					"name": "releaseFunds",
					"outputs": [],
					"stateMutability": "nonpayable",
					"type": "function"
				},
				{
					"inputs": [],
					"name": "renounceOwnership",
					"outputs": [],
					"stateMutability": "nonpayable",
					"type": "function"
				},
				{
					"inputs": [
						{
							"internalType": "bytes32",
							"name": "matchId",
							"type": "bytes32"
						},
						{
							"internalType": "bytes32",
							"name": "choice",
							"type": "bytes32"
						},
						{
							"internalType": "address",
							"name": "acceptor",
							"type": "address"
						}
					],
					"name": "storeTokens",
					"outputs": [],
					"stateMutability": "payable",
					"type": "function"
				},
				{
					"inputs": [
						{
							"internalType": "address",
							"name": "newOwner",
							"type": "address"
						}
					],
					"name": "transferOwnership",
					"outputs": [],
					"stateMutability": "nonpayable",
					"type": "function"
				},
				{
					"inputs": [
						{
							"internalType": "address",
							"name": "_newOracleAddress",
							"type": "address"
						}
					],
					"name": "updateOracle",
					"outputs": [],
					"stateMutability": "nonpayable",
					"type": "function"
				}
			],
			"devdoc": {
				"errors": {
					"OwnableInvalidOwner(address)": [
						{
							"details": "The owner is not a valid owner account. (eg. `address(0)`)"
						}
					],
					"OwnableUnauthorizedAccount(address)": [
						{
							"details": "The caller account is not authorized to perform an operation."
						}
					]
				},
				"kind": "dev",
				"methods": {
					"owner()": {
						"details": "Returns the address of the current owner."
					},
					"renounceOwnership()": {
						"details": "Leaves the contract without owner. It will not be possible to call `onlyOwner` functions. Can only be called by the current owner. NOTE: Renouncing ownership will leave the contract without an owner, thereby disabling any functionality that is only available to the owner."
					},
					"transferOwnership(address)": {
						"details": "Transfers ownership of the contract to a new account (`newOwner`). Can only be called by the current owner."
					}
				},
				"version": 1
			},
			"evm": {
				"assembly": "    /* \"Escrow.sol\":218:5228  contract Escrow is ReentrancyGuard, Ownable {... */\n  mstore(0x40, 0x80)\n    /* \"Escrow.sol\":1234:1470  constructor(address _oracleAddress) Ownable(msg.sender) {... */\n  callvalue\n  dup1\n  iszero\n  tag_1\n  jumpi\n  0x00\n  dup1\n  revert\ntag_1:\n  pop\n  mload(0x40)\n  sub(codesize, bytecodeSize)\n  dup1\n  bytecodeSize\n  dup4\n  codecopy\n  dup2\n  add\n  0x40\n  dup2\n  swap1\n  mstore\n  tag_2\n  swap2\n  tag_3\n  jump\t// in\ntag_2:\n    /* \"@openzeppelin/contracts/security/ReentrancyGuard.sol\":1716:1717  1 */\n  0x01\n    /* \"@openzeppelin/contracts/security/ReentrancyGuard.sol\":1821:1828  _status */\n  0x00\n    /* \"@openzeppelin/contracts/security/ReentrancyGuard.sol\":1821:1843  _status = _NOT_ENTERED */\n  sstore\n    /* \"Escrow.sol\":1278:1288  msg.sender */\n  caller\n  dup1\n    /* \"@openzeppelin/contracts/access/Ownable.sol\":1269:1364  if (initialOwner == address(0)) {... */\n  tag_9\n  jumpi\n    /* \"@openzeppelin/contracts/access/Ownable.sol\":1322:1353  OwnableInvalidOwner(address(0)) */\n  mload(0x40)\n  shl(0xe0, 0x1e4fbdf7)\n  dup2\n  mstore\n    /* \"@openzeppelin/contracts/access/Ownable.sol\":1350:1351  0 */\n  0x00\n    /* \"@openzeppelin/contracts/access/Ownable.sol\":1322:1353  OwnableInvalidOwner(address(0)) */\n  0x04\n  dup3\n  add\n    /* \"#utility.yul\":455:506   */\n  mstore\n    /* \"#utility.yul\":428:446   */\n  0x24\n  add\n    /* \"@openzeppelin/contracts/access/Ownable.sol\":1322:1353  OwnableInvalidOwner(address(0)) */\ntag_10:\n  mload(0x40)\n  dup1\n  swap2\n  sub\n  swap1\n  revert\n    /* \"@openzeppelin/contracts/access/Ownable.sol\":1269:1364  if (initialOwner == address(0)) {... */\ntag_9:\n    /* \"@openzeppelin/contracts/access/Ownable.sol\":1373:1405  _transferOwnership(initialOwner) */\n  tag_12\n    /* \"@openzeppelin/contracts/access/Ownable.sol\":1392:1404  initialOwner */\n  dup2\n    /* \"@openzeppelin/contracts/access/Ownable.sol\":1373:1391  _transferOwnership */\n  tag_13\n    /* \"@openzeppelin/contracts/access/Ownable.sol\":1373:1405  _transferOwnership(initialOwner) */\n  jump\t// in\ntag_12:\n  pop\n  sub(shl(0xa0, 0x01), 0x01)\n    /* \"Escrow.sol\":1309:1337  _oracleAddress != address(0) */\n  dup2\n  and\n    /* \"Escrow.sol\":1301:1364  require(_oracleAddress != address(0), \"Invalid oracle address\") */\n  tag_15\n  jumpi\n  mload(0x40)\n  shl(0xe5, 0x461bcd)\n  dup2\n  mstore\n    /* \"#utility.yul\":719:721   */\n  0x20\n    /* \"Escrow.sol\":1301:1364  require(_oracleAddress != address(0), \"Invalid oracle address\") */\n  0x04\n  dup3\n  add\n    /* \"#utility.yul\":701:722   */\n  mstore\n    /* \"#utility.yul\":758:760   */\n  0x16\n    /* \"#utility.yul\":738:756   */\n  0x24\n  dup3\n  add\n    /* \"#utility.yul\":731:761   */\n  mstore\n    /* \"#utility.yul\":797:821   */\n  0x496e76616c6964206f7261636c65206164647265737300000000000000000000\n    /* \"#utility.yul\":777:795   */\n  0x44\n  dup3\n  add\n    /* \"#utility.yul\":770:822   */\n  mstore\n    /* \"#utility.yul\":839:857   */\n  0x64\n  add\n    /* \"Escrow.sol\":1301:1364  require(_oracleAddress != address(0), \"Invalid oracle address\") */\n  tag_10\n    /* \"#utility.yul\":517:863   */\n  jump\n    /* \"Escrow.sol\":1301:1364  require(_oracleAddress != address(0), \"Invalid oracle address\") */\ntag_15:\n    /* \"Escrow.sol\":1375:1388  oracleAddress */\n  0x02\n    /* \"Escrow.sol\":1375:1405  oracleAddress = _oracleAddress */\n  dup1\n  sload\n  not(sub(shl(0xa0, 0x01), 0x01))\n  and\n  sub(shl(0xa0, 0x01), 0x01)\n  dup4\n  and\n  swap1\n  dup2\n  or\n  swap1\n  swap2\n  sstore\n    /* \"Escrow.sol\":1421:1462  OracleUpdated(address(0), _oracleAddress) */\n  mload(0x40)\n  0x00\n  swap1\n  0x078c3b417dadf69374a59793b829c52001247130433427049317bde56607b1b7\n  swap1\n  dup3\n  swap1\n  log3\n    /* \"Escrow.sol\":1234:1470  constructor(address _oracleAddress) Ownable(msg.sender) {... */\n  pop\n    /* \"Escrow.sol\":218:5228  contract Escrow is ReentrancyGuard, Ownable {... */\n  jump(tag_20)\n    /* \"@openzeppelin/contracts/access/Ownable.sol\":2912:3099  function _transferOwnership(address newOwner) internal virtual {... */\ntag_13:\n    /* \"@openzeppelin/contracts/access/Ownable.sol\":3004:3010  _owner */\n  0x01\n  dup1\n  sload\n  sub(shl(0xa0, 0x01), 0x01)\n    /* \"@openzeppelin/contracts/access/Ownable.sol\":3020:3037  _owner = newOwner */\n  dup4\n  dup2\n  and\n  not(sub(shl(0xa0, 0x01), 0x01))\n  dup4\n  and\n  dup2\n  or\n  swap1\n  swap4\n  sstore\n    /* \"@openzeppelin/contracts/access/Ownable.sol\":3052:3092  OwnershipTransferred(oldOwner, newOwner) */\n  mload(0x40)\n    /* \"@openzeppelin/contracts/access/Ownable.sol\":3004:3010  _owner */\n  swap2\n  and\n  swap2\n    /* \"@openzeppelin/contracts/access/Ownable.sol\":3020:3037  _owner = newOwner */\n  swap1\n    /* \"@openzeppelin/contracts/access/Ownable.sol\":3004:3010  _owner */\n  dup3\n  swap1\n    /* \"@openzeppelin/contracts/access/Ownable.sol\":3052:3092  OwnershipTransferred(oldOwner, newOwner) */\n  0x8be0079c531659141344cd1fd0a4f28419497f9722a3daafe3b4186f6b6457e0\n  swap1\n    /* \"@openzeppelin/contracts/access/Ownable.sol\":2985:3001  address oldOwner */\n  0x00\n  swap1\n    /* \"@openzeppelin/contracts/access/Ownable.sol\":3052:3092  OwnershipTransferred(oldOwner, newOwner) */\n  log3\n    /* \"@openzeppelin/contracts/access/Ownable.sol\":2975:3099  {... */\n  pop\n    /* \"@openzeppelin/contracts/access/Ownable.sol\":2912:3099  function _transferOwnership(address newOwner) internal virtual {... */\n  pop\n  jump\t// out\n    /* \"#utility.yul\":14:304   */\ntag_3:\n    /* \"#utility.yul\":84:90   */\n  0x00\n    /* \"#utility.yul\":137:139   */\n  0x20\n    /* \"#utility.yul\":125:134   */\n  dup3\n    /* \"#utility.yul\":116:123   */\n  dup5\n    /* \"#utility.yul\":112:135   */\n  sub\n    /* \"#utility.yul\":108:140   */\n  slt\n    /* \"#utility.yul\":105:157   */\n  iszero\n  tag_22\n  jumpi\n    /* \"#utility.yul\":153:154   */\n  0x00\n    /* \"#utility.yul\":150:151   */\n  dup1\n    /* \"#utility.yul\":143:155   */\n  revert\n    /* \"#utility.yul\":105:157   */\ntag_22:\n    /* \"#utility.yul\":179:195   */\n  dup2\n  mload\n  sub(shl(0xa0, 0x01), 0x01)\n    /* \"#utility.yul\":224:255   */\n  dup2\n  and\n    /* \"#utility.yul\":214:256   */\n  dup2\n  eq\n    /* \"#utility.yul\":204:274   */\n  tag_23\n  jumpi\n    /* \"#utility.yul\":270:271   */\n  0x00\n    /* \"#utility.yul\":267:268   */\n  dup1\n    /* \"#utility.yul\":260:272   */\n  revert\n    /* \"#utility.yul\":204:274   */\ntag_23:\n    /* \"#utility.yul\":293:298   */\n  swap4\n    /* \"#utility.yul\":14:304   */\n  swap3\n  pop\n  pop\n  pop\n  jump\t// out\n    /* \"#utility.yul\":517:863   */\ntag_20:\n    /* \"Escrow.sol\":218:5228  contract Escrow is ReentrancyGuard, Ownable {... */\n  dataSize(sub_0)\n  dup1\n  dataOffset(sub_0)\n  0x00\n  codecopy\n  0x00\n  return\nstop\n\nsub_0: assembly {\n        /* \"Escrow.sol\":218:5228  contract Escrow is ReentrancyGuard, Ownable {... */\n      mstore(0x40, 0x80)\n      jumpi(tag_1, lt(calldatasize, 0x04))\n      shr(0xe0, calldataload(0x00))\n      dup1\n      0x8da5cb5b\n      gt\n      tag_16\n      jumpi\n      dup1\n      0xa89ae4ba\n      gt\n      tag_17\n      jumpi\n      dup1\n      0xa89ae4ba\n      eq\n      tag_12\n      jumpi\n      dup1\n      0xf2fde38b\n      eq\n      tag_13\n      jumpi\n      dup1\n      0xf4aa99df\n      eq\n      tag_14\n      jumpi\n      dup1\n      0xfffc7801\n      eq\n      tag_15\n      jumpi\n      0x00\n      dup1\n      revert\n    tag_17:\n      dup1\n      0x8da5cb5b\n      eq\n      tag_9\n      jumpi\n      dup1\n      0xa0946f92\n      eq\n      tag_10\n      jumpi\n      dup1\n      0xa416f5ab\n      eq\n      tag_11\n      jumpi\n      0x00\n      dup1\n      revert\n    tag_16:\n      dup1\n      0x56fcb255\n      gt\n      tag_18\n      jumpi\n      dup1\n      0x56fcb255\n      eq\n      tag_5\n      jumpi\n      dup1\n      0x6d4e0c8e\n      eq\n      tag_6\n      jumpi\n      dup1\n      0x715018a6\n      eq\n      tag_7\n      jumpi\n      dup1\n      0x7d25e89d\n      eq\n      tag_8\n      jumpi\n      0x00\n      dup1\n      revert\n    tag_18:\n      dup1\n      0x16c30ebc\n      eq\n      tag_2\n      jumpi\n      dup1\n      0x1cb44dfc\n      eq\n      tag_3\n      jumpi\n      dup1\n      0x530adbb4\n      eq\n      tag_4\n      jumpi\n    tag_1:\n      0x00\n      dup1\n      revert\n        /* \"Escrow.sol\":269:326  bytes32 public constant PLAYER_ROLE = keccak256(\"player\") */\n    tag_2:\n      callvalue\n      dup1\n      iszero\n      tag_19\n      jumpi\n      0x00\n      dup1\n      revert\n    tag_19:\n      pop\n      tag_20\n        /* \"Escrow.sol\":307:326  keccak256(\"player\") */\n      0x326d994cdb81aaccb84aa1f62bae636dc0aaf98ab22f66b0c9224f1edccd7cc9\n        /* \"Escrow.sol\":269:326  bytes32 public constant PLAYER_ROLE = keccak256(\"player\") */\n      dup2\n      jump\n    tag_20:\n      mload(0x40)\n        /* \"#utility.yul\":160:185   */\n      swap1\n      dup2\n      mstore\n        /* \"#utility.yul\":148:150   */\n      0x20\n        /* \"#utility.yul\":133:151   */\n      add\n        /* \"Escrow.sol\":269:326  bytes32 public constant PLAYER_ROLE = keccak256(\"player\") */\n    tag_22:\n      mload(0x40)\n      dup1\n      swap2\n      sub\n      swap1\n      return\n        /* \"Escrow.sol\":1599:1899  function updateOracle(address _newOracleAddress) external onlyOwner {... */\n    tag_3:\n      callvalue\n      dup1\n      iszero\n      tag_24\n      jumpi\n      0x00\n      dup1\n      revert\n    tag_24:\n      pop\n      tag_25\n      tag_26\n      calldatasize\n      0x04\n      tag_27\n      jump\t// in\n    tag_26:\n      tag_28\n      jump\t// in\n    tag_25:\n      stop\n        /* \"Escrow.sol\":333:398  bytes32 public constant CHALLENGER_ROLE = keccak256(\"challenger\") */\n    tag_4:\n      callvalue\n      dup1\n      iszero\n      tag_29\n      jumpi\n      0x00\n      dup1\n      revert\n    tag_29:\n      pop\n      tag_20\n        /* \"Escrow.sol\":375:398  keccak256(\"challenger\") */\n      0xae8b6f0f354448b9bed217dcbb6effc6cc52560477cd31206503fbd937f7a378\n        /* \"Escrow.sol\":333:398  bytes32 public constant CHALLENGER_ROLE = keccak256(\"challenger\") */\n      dup2\n      jump\n        /* \"Escrow.sol\":4114:5031  function declareDraw(bytes32 storeHash) external nonReentrant onlyOracle {... */\n    tag_5:\n      callvalue\n      dup1\n      iszero\n      tag_33\n      jumpi\n      0x00\n      dup1\n      revert\n    tag_33:\n      pop\n      tag_25\n      tag_35\n      calldatasize\n      0x04\n      tag_36\n      jump\t// in\n    tag_35:\n      tag_37\n      jump\t// in\n        /* \"Escrow.sol\":1905:2686  function storeTokens(bytes32 matchId, bytes32 choice, address acceptor) external payable {... */\n    tag_6:\n      tag_25\n      tag_39\n      calldatasize\n      0x04\n      tag_40\n      jump\t// in\n    tag_39:\n      tag_41\n      jump\t// in\n        /* \"@openzeppelin/contracts/access/Ownable.sol\":2293:2394  function renounceOwnership() public virtual onlyOwner {... */\n    tag_7:\n      callvalue\n      dup1\n      iszero\n      tag_42\n      jumpi\n      0x00\n      dup1\n      revert\n    tag_42:\n      pop\n      tag_25\n      tag_44\n      jump\t// in\n        /* \"Escrow.sol\":3294:4108  function releaseFunds(bytes32 storeHash, address winner) external nonReentrant onlyOracle {... */\n    tag_8:\n      callvalue\n      dup1\n      iszero\n      tag_45\n      jumpi\n      0x00\n      dup1\n      revert\n    tag_45:\n      pop\n      tag_25\n      tag_47\n      calldatasize\n      0x04\n      tag_48\n      jump\t// in\n    tag_47:\n      tag_49\n      jump\t// in\n        /* \"@openzeppelin/contracts/access/Ownable.sol\":1638:1723  function owner() public view virtual returns (address) {... */\n    tag_9:\n      callvalue\n      dup1\n      iszero\n      tag_50\n      jumpi\n      0x00\n      dup1\n      revert\n    tag_50:\n      pop\n        /* \"@openzeppelin/contracts/access/Ownable.sol\":1710:1716  _owner */\n      and(sub(shl(0xa0, 0x01), 0x01), sload(0x01))\n        /* \"@openzeppelin/contracts/access/Ownable.sol\":1638:1723  function owner() public view virtual returns (address) {... */\n    tag_51:\n      mload(0x40)\n      sub(shl(0xa0, 0x01), 0x01)\n        /* \"#utility.yul\":1690:1722   */\n      swap1\n      swap2\n      and\n        /* \"#utility.yul\":1672:1723   */\n      dup2\n      mstore\n        /* \"#utility.yul\":1660:1662   */\n      0x20\n        /* \"#utility.yul\":1645:1663   */\n      add\n        /* \"@openzeppelin/contracts/access/Ownable.sol\":1638:1723  function owner() public view virtual returns (address) {... */\n      tag_22\n        /* \"#utility.yul\":1526:1729   */\n      jump\n        /* \"Escrow.sol\":681:729  mapping(bytes32 => Storage) public escrowStorage */\n    tag_10:\n      callvalue\n      dup1\n      iszero\n      tag_55\n      jumpi\n      0x00\n      dup1\n      revert\n    tag_55:\n      pop\n      tag_56\n      tag_57\n      calldatasize\n      0x04\n      tag_36\n      jump\t// in\n    tag_57:\n      0x03\n      0x20\n      dup2\n      swap1\n      mstore\n      0x00\n      swap2\n      dup3\n      mstore\n      0x40\n      swap1\n      swap2\n      keccak256\n      dup1\n      sload\n      0x01\n      dup3\n      add\n      sload\n      0x02\n      dup4\n      add\n      sload\n      swap4\n      dup4\n      add\n      sload\n      0x04\n      dup5\n      add\n      sload\n      0x05\n      swap1\n      swap5\n      add\n      sload\n      swap3\n      swap5\n      sub(shl(0xa0, 0x01), 0x01)\n      swap3\n      dup4\n      and\n      swap5\n      swap3\n      and\n      swap3\n      swap1\n      swap2\n      swap1\n      sub(shl(0x80, 0x01), 0x01)\n      dup2\n      and\n      swap1\n      0xff\n      shl(0x80, 0x01)\n      dup3\n      div\n      dup2\n      and\n      swap2\n      shl(0x88, 0x01)\n      swap1\n      div\n      and\n      dup9\n      jump\n    tag_56:\n      0x40\n      dup1\n      mload\n        /* \"#utility.yul\":2065:2090   */\n      swap9\n      dup10\n      mstore\n      sub(shl(0xa0, 0x01), 0x01)\n        /* \"#utility.yul\":2126:2158   */\n      swap8\n      dup9\n      and\n        /* \"#utility.yul\":2121:2123   */\n      0x20\n        /* \"#utility.yul\":2106:2124   */\n      dup11\n      add\n        /* \"#utility.yul\":2099:2159   */\n      mstore\n        /* \"#utility.yul\":2195:2227   */\n      swap6\n      swap1\n      swap7\n      and\n        /* \"#utility.yul\":2175:2193   */\n      swap5\n      dup8\n      add\n        /* \"#utility.yul\":2168:2228   */\n      swap5\n      swap1\n      swap5\n      mstore\n        /* \"#utility.yul\":2259:2261   */\n      0x60\n        /* \"#utility.yul\":2244:2262   */\n      dup7\n      add\n        /* \"#utility.yul\":2237:2271   */\n      swap3\n      swap1\n      swap3\n      mstore\n        /* \"#utility.yul\":2302:2305   */\n      0x80\n        /* \"#utility.yul\":2287:2306   */\n      dup6\n      add\n        /* \"#utility.yul\":2280:2315   */\n      mstore\n      sub(shl(0x80, 0x01), 0x01)\n        /* \"#utility.yul\":2352:2399   */\n      and\n        /* \"#utility.yul\":2146:2149   */\n      0xa0\n        /* \"#utility.yul\":2331:2350   */\n      dup5\n      add\n        /* \"#utility.yul\":2324:2400   */\n      mstore\n        /* \"#utility.yul\":2444:2458   */\n      iszero\n        /* \"#utility.yul\":2437:2459   */\n      iszero\n        /* \"#utility.yul\":2431:2434   */\n      0xc0\n        /* \"#utility.yul\":2416:2435   */\n      dup4\n      add\n        /* \"#utility.yul\":2409:2460   */\n      mstore\n        /* \"#utility.yul\":2504:2518   */\n      iszero\n        /* \"#utility.yul\":2497:2519   */\n      iszero\n        /* \"#utility.yul\":2491:2494   */\n      0xe0\n        /* \"#utility.yul\":2476:2495   */\n      dup3\n      add\n        /* \"#utility.yul\":2469:2520   */\n      mstore\n        /* \"#utility.yul\":2052:2055   */\n      0x0100\n        /* \"#utility.yul\":2037:2056   */\n      add\n        /* \"Escrow.sol\":681:729  mapping(bytes32 => Storage) public escrowStorage */\n      tag_22\n        /* \"#utility.yul\":1734:2526   */\n      jump\n        /* \"Escrow.sol\":736:761  uint256 public betCounter */\n    tag_11:\n      callvalue\n      dup1\n      iszero\n      tag_61\n      jumpi\n      0x00\n      dup1\n      revert\n    tag_61:\n      pop\n      tag_20\n      sload(0x04)\n      dup2\n      jump\n        /* \"Escrow.sol\":405:433  address public oracleAddress */\n    tag_12:\n      callvalue\n      dup1\n      iszero\n      tag_66\n      jumpi\n      0x00\n      dup1\n      revert\n    tag_66:\n      pop\n      sload(0x02)\n      tag_51\n      swap1\n      sub(shl(0xa0, 0x01), 0x01)\n      and\n      dup2\n      jump\n        /* \"@openzeppelin/contracts/access/Ownable.sol\":2543:2758  function transferOwnership(address newOwner) public virtual onlyOwner {... */\n    tag_13:\n      callvalue\n      dup1\n      iszero\n      tag_70\n      jumpi\n      0x00\n      dup1\n      revert\n    tag_70:\n      pop\n      tag_25\n      tag_72\n      calldatasize\n      0x04\n      tag_27\n      jump\t// in\n    tag_72:\n      tag_73\n      jump\t// in\n        /* \"Escrow.sol\":2692:3288  function acceptBet(bytes32 storeHash, bytes32 choice) external payable {... */\n    tag_14:\n      tag_25\n      tag_75\n      calldatasize\n      0x04\n      tag_76\n      jump\t// in\n    tag_75:\n      tag_77\n      jump\t// in\n        /* \"Escrow.sol\":5037:5225  function getCurrentBalance(bytes32 storeHash) external view returns (uint) {... */\n    tag_15:\n      callvalue\n      dup1\n      iszero\n      tag_78\n      jumpi\n      0x00\n      dup1\n      revert\n    tag_78:\n      pop\n      tag_20\n      tag_80\n      calldatasize\n      0x04\n      tag_36\n      jump\t// in\n    tag_80:\n        /* \"Escrow.sol\":5106:5110  uint */\n      0x00\n        /* \"Escrow.sol\":5148:5172  escrowStorage[storeHash] */\n      swap1\n      dup2\n      mstore\n        /* \"Escrow.sol\":5148:5161  escrowStorage */\n      0x03\n        /* \"Escrow.sol\":5148:5172  escrowStorage[storeHash] */\n      0x20\n      mstore\n      0x40\n      swap1\n      keccak256\n        /* \"Escrow.sol\":5198:5216  escrow.totalAmount */\n      0x05\n      add\n      sload\n      sub(shl(0x80, 0x01), 0x01)\n      and\n      swap1\n        /* \"Escrow.sol\":5037:5225  function getCurrentBalance(bytes32 storeHash) external view returns (uint) {... */\n      jump\n        /* \"Escrow.sol\":1599:1899  function updateOracle(address _newOracleAddress) external onlyOwner {... */\n    tag_28:\n        /* \"@openzeppelin/contracts/access/Ownable.sol\":1531:1544  _checkOwner() */\n      tag_84\n        /* \"@openzeppelin/contracts/access/Ownable.sol\":1531:1542  _checkOwner */\n      tag_85\n        /* \"@openzeppelin/contracts/access/Ownable.sol\":1531:1544  _checkOwner() */\n      jump\t// in\n    tag_84:\n      sub(shl(0xa0, 0x01), 0x01)\n        /* \"Escrow.sol\":1686:1717  _newOracleAddress != address(0) */\n      dup2\n      and\n        /* \"Escrow.sol\":1678:1744  require(_newOracleAddress != address(0), \"Invalid oracle address\") */\n      tag_87\n      jumpi\n      mload(0x40)\n      shl(0xe5, 0x461bcd)\n      dup2\n      mstore\n        /* \"#utility.yul\":3266:3268   */\n      0x20\n        /* \"Escrow.sol\":1678:1744  require(_newOracleAddress != address(0), \"Invalid oracle address\") */\n      0x04\n      dup3\n      add\n        /* \"#utility.yul\":3248:3269   */\n      mstore\n        /* \"#utility.yul\":3305:3307   */\n      0x16\n        /* \"#utility.yul\":3285:3303   */\n      0x24\n      dup3\n      add\n        /* \"#utility.yul\":3278:3308   */\n      mstore\n      shl(0x50, 0x496e76616c6964206f7261636c652061646472657373)\n        /* \"#utility.yul\":3324:3342   */\n      0x44\n      dup3\n      add\n        /* \"#utility.yul\":3317:3369   */\n      mstore\n        /* \"#utility.yul\":3386:3404   */\n      0x64\n      add\n        /* \"Escrow.sol\":1678:1744  require(_newOracleAddress != address(0), \"Invalid oracle address\") */\n    tag_88:\n      mload(0x40)\n      dup1\n      swap2\n      sub\n      swap1\n      revert\n    tag_87:\n        /* \"Escrow.sol\":1775:1788  oracleAddress */\n      0x02\n      dup1\n      sload\n      sub(shl(0xa0, 0x01), 0x01)\n        /* \"Escrow.sol\":1799:1832  oracleAddress = _newOracleAddress */\n      dup4\n      dup2\n      and\n      not(sub(shl(0xa0, 0x01), 0x01))\n      dup4\n      and\n      dup2\n      or\n      swap1\n      swap4\n      sstore\n        /* \"Escrow.sol\":1848:1891  OracleUpdated(oldOracle, _newOracleAddress) */\n      mload(0x40)\n        /* \"Escrow.sol\":1775:1788  oracleAddress */\n      swap2\n      and\n      swap2\n        /* \"Escrow.sol\":1799:1832  oracleAddress = _newOracleAddress */\n      swap1\n        /* \"Escrow.sol\":1775:1788  oracleAddress */\n      dup3\n      swap1\n        /* \"Escrow.sol\":1848:1891  OracleUpdated(oldOracle, _newOracleAddress) */\n      0x078c3b417dadf69374a59793b829c52001247130433427049317bde56607b1b7\n      swap1\n        /* \"Escrow.sol\":1755:1772  address oldOracle */\n      0x00\n      swap1\n        /* \"Escrow.sol\":1848:1891  OracleUpdated(oldOracle, _newOracleAddress) */\n      log3\n        /* \"Escrow.sol\":1667:1899  {... */\n      pop\n        /* \"Escrow.sol\":1599:1899  function updateOracle(address _newOracleAddress) external onlyOwner {... */\n      pop\n      jump\t// out\n        /* \"Escrow.sol\":4114:5031  function declareDraw(bytes32 storeHash) external nonReentrant onlyOracle {... */\n    tag_37:\n        /* \"@openzeppelin/contracts/security/ReentrancyGuard.sol\":2261:2282  _nonReentrantBefore() */\n      tag_91\n        /* \"@openzeppelin/contracts/security/ReentrancyGuard.sol\":2261:2280  _nonReentrantBefore */\n      tag_92\n        /* \"@openzeppelin/contracts/security/ReentrancyGuard.sol\":2261:2282  _nonReentrantBefore() */\n      jump\t// in\n    tag_91:\n        /* \"Escrow.sol\":1531:1544  oracleAddress */\n      and(sub(shl(0xa0, 0x01), 0x01), sload(0x02))\n        /* \"Escrow.sol\":1517:1527  msg.sender */\n      caller\n        /* \"Escrow.sol\":1517:1544  msg.sender == oracleAddress */\n      eq\n        /* \"Escrow.sol\":1509:1573  require(msg.sender == oracleAddress, \"Caller is not the oracle\") */\n      tag_94\n      jumpi\n      mload(0x40)\n      shl(0xe5, 0x461bcd)\n      dup2\n      mstore\n        /* \"#utility.yul\":3617:3619   */\n      0x20\n        /* \"Escrow.sol\":1509:1573  require(msg.sender == oracleAddress, \"Caller is not the oracle\") */\n      0x04\n      dup3\n      add\n        /* \"#utility.yul\":3599:3620   */\n      mstore\n        /* \"#utility.yul\":3656:3658   */\n      0x18\n        /* \"#utility.yul\":3636:3654   */\n      0x24\n      dup3\n      add\n        /* \"#utility.yul\":3629:3659   */\n      mstore\n      shl(0x40, 0x43616c6c6572206973206e6f7420746865206f7261636c65)\n        /* \"#utility.yul\":3675:3693   */\n      0x44\n      dup3\n      add\n        /* \"#utility.yul\":3668:3722   */\n      mstore\n        /* \"#utility.yul\":3739:3757   */\n      0x64\n      add\n        /* \"Escrow.sol\":1509:1573  require(msg.sender == oracleAddress, \"Caller is not the oracle\") */\n      tag_88\n        /* \"#utility.yul\":3415:3763   */\n      jump\n        /* \"Escrow.sol\":1509:1573  require(msg.sender == oracleAddress, \"Caller is not the oracle\") */\n    tag_94:\n        /* \"Escrow.sol\":4198:4220  Storage storage escrow */\n      0x00\n        /* \"Escrow.sol\":4223:4247  escrowStorage[storeHash] */\n      dup2\n      dup2\n      mstore\n        /* \"Escrow.sol\":4223:4236  escrowStorage */\n      0x03\n        /* \"Escrow.sol\":4223:4247  escrowStorage[storeHash] */\n      0x20\n      mstore\n      0x40\n      swap1\n      keccak256\n        /* \"Escrow.sol\":4266:4281  escrow.isActive */\n      0x05\n      dup2\n      add\n      sload\n      shl(0x80, 0x01)\n      swap1\n      div\n      0xff\n      and\n        /* \"Escrow.sol\":4258:4306  require(escrow.isActive, \"Escrow is not active\") */\n      tag_98\n      jumpi\n      mload(0x40)\n      shl(0xe5, 0x461bcd)\n      dup2\n      mstore\n        /* \"#utility.yul\":3970:3972   */\n      0x20\n        /* \"Escrow.sol\":4258:4306  require(escrow.isActive, \"Escrow is not active\") */\n      0x04\n      dup3\n      add\n        /* \"#utility.yul\":3952:3973   */\n      mstore\n        /* \"#utility.yul\":4009:4011   */\n      0x14\n        /* \"#utility.yul\":3989:4007   */\n      0x24\n      dup3\n      add\n        /* \"#utility.yul\":3982:4012   */\n      mstore\n      shl(0x60, 0x457363726f77206973206e6f7420616374697665)\n        /* \"#utility.yul\":4028:4046   */\n      0x44\n      dup3\n      add\n        /* \"#utility.yul\":4021:4071   */\n      mstore\n        /* \"#utility.yul\":4088:4106   */\n      0x64\n      add\n        /* \"Escrow.sol\":4258:4306  require(escrow.isActive, \"Escrow is not active\") */\n      tag_88\n        /* \"#utility.yul\":3768:4112   */\n      jump\n        /* \"Escrow.sol\":4258:4306  require(escrow.isActive, \"Escrow is not active\") */\n    tag_98:\n        /* \"Escrow.sol\":4326:4343  escrow.isResolved */\n      0x05\n      dup2\n      add\n      sload\n      shl(0x88, 0x01)\n      swap1\n      div\n      0xff\n      and\n        /* \"Escrow.sol\":4325:4343  !escrow.isResolved */\n      iszero\n        /* \"Escrow.sol\":4317:4368  require(!escrow.isResolved, \"Bet already resolved\") */\n      tag_101\n      jumpi\n      mload(0x40)\n      shl(0xe5, 0x461bcd)\n      dup2\n      mstore\n        /* \"#utility.yul\":4319:4321   */\n      0x20\n        /* \"Escrow.sol\":4317:4368  require(!escrow.isResolved, \"Bet already resolved\") */\n      0x04\n      dup3\n      add\n        /* \"#utility.yul\":4301:4322   */\n      mstore\n        /* \"#utility.yul\":4358:4360   */\n      0x14\n        /* \"#utility.yul\":4338:4356   */\n      0x24\n      dup3\n      add\n        /* \"#utility.yul\":4331:4361   */\n      mstore\n      shl(0x62, 0x10995d08185b1c9958591e481c995cdbdb1d9959)\n        /* \"#utility.yul\":4377:4395   */\n      0x44\n      dup3\n      add\n        /* \"#utility.yul\":4370:4420   */\n      mstore\n        /* \"#utility.yul\":4437:4455   */\n      0x64\n      add\n        /* \"Escrow.sol\":4317:4368  require(!escrow.isResolved, \"Bet already resolved\") */\n      tag_88\n        /* \"#utility.yul\":4117:4461   */\n      jump\n        /* \"Escrow.sol\":4317:4368  require(!escrow.isResolved, \"Bet already resolved\") */\n    tag_101:\n        /* \"Escrow.sol\":4387:4404  escrow.challenger */\n      0x02\n      dup2\n      add\n      sload\n      sub(shl(0xa0, 0x01), 0x01)\n      and\n        /* \"Escrow.sol\":4379:4439  require(escrow.challenger != address(0), \"Bet not accepted\") */\n      tag_104\n      jumpi\n      mload(0x40)\n      shl(0xe5, 0x461bcd)\n      dup2\n      mstore\n        /* \"#utility.yul\":4668:4670   */\n      0x20\n        /* \"Escrow.sol\":4379:4439  require(escrow.challenger != address(0), \"Bet not accepted\") */\n      0x04\n      dup3\n      add\n        /* \"#utility.yul\":4650:4671   */\n      mstore\n        /* \"#utility.yul\":4707:4709   */\n      0x10\n        /* \"#utility.yul\":4687:4705   */\n      0x24\n      dup3\n      add\n        /* \"#utility.yul\":4680:4710   */\n      mstore\n      shl(0x82, 0x10995d081b9bdd081858d8d95c1d1959)\n        /* \"#utility.yul\":4726:4744   */\n      0x44\n      dup3\n      add\n        /* \"#utility.yul\":4719:4765   */\n      mstore\n        /* \"#utility.yul\":4782:4800   */\n      0x64\n      add\n        /* \"Escrow.sol\":4379:4439  require(escrow.challenger != address(0), \"Bet not accepted\") */\n      tag_88\n        /* \"#utility.yul\":4466:4806   */\n      jump\n        /* \"Escrow.sol\":4379:4439  require(escrow.challenger != address(0), \"Bet not accepted\") */\n    tag_104:\n        /* \"Escrow.sol\":4458:4476  escrow.totalAmount */\n      0x05\n      dup2\n      add\n      sload\n      sub(shl(0x80, 0x01), 0x01)\n      and\n        /* \"Escrow.sol\":4450:4504  require(escrow.totalAmount > 0, \"No funds to release\") */\n      tag_107\n      jumpi\n      mload(0x40)\n      shl(0xe5, 0x461bcd)\n      dup2\n      mstore\n        /* \"#utility.yul\":5013:5015   */\n      0x20\n        /* \"Escrow.sol\":4450:4504  require(escrow.totalAmount > 0, \"No funds to release\") */\n      0x04\n      dup3\n      add\n        /* \"#utility.yul\":4995:5016   */\n      mstore\n        /* \"#utility.yul\":5052:5054   */\n      0x13\n        /* \"#utility.yul\":5032:5050   */\n      0x24\n      dup3\n      add\n        /* \"#utility.yul\":5025:5055   */\n      mstore\n      shl(0x68, 0x4e6f2066756e647320746f2072656c65617365)\n        /* \"#utility.yul\":5071:5089   */\n      0x44\n      dup3\n      add\n        /* \"#utility.yul\":5064:5113   */\n      mstore\n        /* \"#utility.yul\":5130:5148   */\n      0x64\n      add\n        /* \"Escrow.sol\":4450:4504  require(escrow.totalAmount > 0, \"No funds to release\") */\n      tag_88\n        /* \"#utility.yul\":4811:5154   */\n      jump\n        /* \"Escrow.sol\":4450:4504  require(escrow.totalAmount > 0, \"No funds to release\") */\n    tag_107:\n        /* \"Escrow.sol\":4515:4532  escrow.isResolved */\n      0x05\n      dup2\n      add\n        /* \"Escrow.sol\":4515:4539  escrow.isResolved = true */\n      dup1\n      sload\n      not(shl(0x80, 0xffff))\n        /* \"Escrow.sol\":4550:4573  escrow.isActive = false */\n      dup2\n      and\n      shl(0x88, 0x01)\n      or\n      swap1\n      swap2\n      sstore\n      sub(shl(0x80, 0x01), 0x01)\n        /* \"Escrow.sol\":4597:4615  escrow.totalAmount */\n      and\n        /* \"Escrow.sol\":4515:4539  escrow.isResolved = true */\n      0x00\n        /* \"Escrow.sol\":4646:4655  total / 2 */\n      tag_110\n        /* \"Escrow.sol\":4654:4655  2 */\n      0x02\n        /* \"Escrow.sol\":4597:4615  escrow.totalAmount */\n      dup4\n        /* \"Escrow.sol\":4646:4655  total / 2 */\n      tag_111\n      jump\t// in\n    tag_110:\n        /* \"Escrow.sol\":4626:4655  uint playerAmount = total / 2 */\n      swap1\n      pop\n        /* \"Escrow.sol\":4666:4687  uint challengerAmount */\n      0x00\n        /* \"Escrow.sol\":4690:4710  total - playerAmount */\n      tag_112\n        /* \"Escrow.sol\":4626:4655  uint playerAmount = total / 2 */\n      dup3\n        /* \"Escrow.sol\":4690:4695  total */\n      dup5\n        /* \"Escrow.sol\":4690:4710  total - playerAmount */\n      tag_113\n      jump\t// in\n    tag_112:\n        /* \"Escrow.sol\":4721:4739  escrow.totalAmount */\n      0x05\n      dup6\n      add\n        /* \"Escrow.sol\":4721:4743  escrow.totalAmount = 0 */\n      dup1\n      sload\n      not(0xffffffffffffffffffffffffffffffff)\n      and\n      swap1\n      sstore\n        /* \"Escrow.sol\":4759:4782  DrawDeclared(storeHash) */\n      mload(0x40)\n        /* \"Escrow.sol\":4666:4710  uint challengerAmount = total - playerAmount */\n      swap1\n      swap2\n      pop\n        /* \"Escrow.sol\":4772:4781  storeHash */\n      dup6\n      swap1\n        /* \"Escrow.sol\":4759:4782  DrawDeclared(storeHash) */\n      0x57b2458f42361feee979da84b5231c7cdaa26d4bb556d06accb1eca7eec98ada\n      swap1\n        /* \"Escrow.sol\":4742:4743  0 */\n      0x00\n      swap1\n        /* \"Escrow.sol\":4759:4782  DrawDeclared(storeHash) */\n      log2\n        /* \"Escrow.sol\":4818:4831  escrow.player */\n      0x01\n      dup5\n      add\n      sload\n        /* \"Escrow.sol\":4818:4861  escrow.player.call{value: playerAmount}(\"\") */\n      mload(0x40)\n        /* \"Escrow.sol\":4794:4812  bool successPlayer */\n      0x00\n      swap2\n      sub(shl(0xa0, 0x01), 0x01)\n        /* \"Escrow.sol\":4818:4831  escrow.player */\n      and\n      swap1\n        /* \"Escrow.sol\":4844:4856  playerAmount */\n      dup5\n      swap1\n        /* \"Escrow.sol\":4794:4812  bool successPlayer */\n      dup4\n        /* \"Escrow.sol\":4818:4861  escrow.player.call{value: playerAmount}(\"\") */\n      dup2\n        /* \"Escrow.sol\":4794:4812  bool successPlayer */\n      dup2\n        /* \"Escrow.sol\":4818:4861  escrow.player.call{value: playerAmount}(\"\") */\n      dup2\n        /* \"Escrow.sol\":4844:4856  playerAmount */\n      dup6\n        /* \"Escrow.sol\":4818:4831  escrow.player */\n      dup8\n        /* \"Escrow.sol\":4818:4861  escrow.player.call{value: playerAmount}(\"\") */\n      gas\n      call\n      swap3\n      pop\n      pop\n      pop\n      returndatasize\n      dup1\n      0x00\n      dup2\n      eq\n      tag_118\n      jumpi\n      mload(0x40)\n      swap2\n      pop\n      and(add(returndatasize, 0x3f), not(0x1f))\n      dup3\n      add\n      0x40\n      mstore\n      returndatasize\n      dup3\n      mstore\n      returndatasize\n      0x00\n      0x20\n      dup5\n      add\n      returndatacopy\n      jump(tag_117)\n    tag_118:\n      0x60\n      swap2\n      pop\n    tag_117:\n      pop\n      pop\n        /* \"Escrow.sol\":4901:4918  escrow.challenger */\n      0x02\n      dup7\n      add\n      sload\n        /* \"Escrow.sol\":4901:4952  escrow.challenger.call{value: challengerAmount}(\"\") */\n      mload(0x40)\n        /* \"Escrow.sol\":4793:4861  (bool successPlayer, ) = escrow.player.call{value: playerAmount}(\"\") */\n      swap2\n      swap3\n      pop\n        /* \"Escrow.sol\":4873:4895  bool successChallenger */\n      0x00\n      swap2\n      sub(shl(0xa0, 0x01), 0x01)\n        /* \"Escrow.sol\":4901:4918  escrow.challenger */\n      swap1\n      swap2\n      and\n      swap1\n        /* \"Escrow.sol\":4931:4947  challengerAmount */\n      dup5\n      swap1\n        /* \"Escrow.sol\":4873:4895  bool successChallenger */\n      dup4\n        /* \"Escrow.sol\":4901:4952  escrow.challenger.call{value: challengerAmount}(\"\") */\n      dup2\n        /* \"Escrow.sol\":4873:4895  bool successChallenger */\n      dup2\n        /* \"Escrow.sol\":4901:4952  escrow.challenger.call{value: challengerAmount}(\"\") */\n      dup2\n        /* \"Escrow.sol\":4931:4947  challengerAmount */\n      dup6\n        /* \"Escrow.sol\":4901:4918  escrow.challenger */\n      dup8\n        /* \"Escrow.sol\":4901:4952  escrow.challenger.call{value: challengerAmount}(\"\") */\n      gas\n      call\n      swap3\n      pop\n      pop\n      pop\n      returndatasize\n      dup1\n      0x00\n      dup2\n      eq\n      tag_122\n      jumpi\n      mload(0x40)\n      swap2\n      pop\n      and(add(returndatasize, 0x3f), not(0x1f))\n      dup3\n      add\n      0x40\n      mstore\n      returndatasize\n      dup3\n      mstore\n      returndatasize\n      0x00\n      0x20\n      dup5\n      add\n      returndatacopy\n      jump(tag_121)\n    tag_122:\n      0x60\n      swap2\n      pop\n    tag_121:\n      pop\n        /* \"Escrow.sol\":4872:4952  (bool successChallenger, ) = escrow.challenger.call{value: challengerAmount}(\"\") */\n      pop\n      swap1\n      pop\n        /* \"Escrow.sol\":4971:4984  successPlayer */\n      dup2\n        /* \"Escrow.sol\":4971:5005  successPlayer && successChallenger */\n      dup1\n      iszero\n      tag_123\n      jumpi\n      pop\n        /* \"Escrow.sol\":4988:5005  successChallenger */\n      dup1\n        /* \"Escrow.sol\":4971:5005  successPlayer && successChallenger */\n    tag_123:\n        /* \"Escrow.sol\":4963:5023  require(successPlayer && successChallenger, \"Refund failed\") */\n      tag_124\n      jumpi\n      mload(0x40)\n      shl(0xe5, 0x461bcd)\n      dup2\n      mstore\n        /* \"#utility.yul\":6058:6060   */\n      0x20\n        /* \"Escrow.sol\":4963:5023  require(successPlayer && successChallenger, \"Refund failed\") */\n      0x04\n      dup3\n      add\n        /* \"#utility.yul\":6040:6061   */\n      mstore\n        /* \"#utility.yul\":6097:6099   */\n      0x0d\n        /* \"#utility.yul\":6077:6095   */\n      0x24\n      dup3\n      add\n        /* \"#utility.yul\":6070:6100   */\n      mstore\n      shl(0x9a, 0x1499599d5b990819985a5b1959)\n        /* \"#utility.yul\":6116:6134   */\n      0x44\n      dup3\n      add\n        /* \"#utility.yul\":6109:6152   */\n      mstore\n        /* \"#utility.yul\":6169:6187   */\n      0x64\n      add\n        /* \"Escrow.sol\":4963:5023  require(successPlayer && successChallenger, \"Refund failed\") */\n      tag_88\n        /* \"#utility.yul\":5856:6193   */\n      jump\n        /* \"Escrow.sol\":4963:5023  require(successPlayer && successChallenger, \"Refund failed\") */\n    tag_124:\n        /* \"Escrow.sol\":4187:5031  {... */\n      pop\n      pop\n      pop\n      pop\n      pop\n      pop\n        /* \"@openzeppelin/contracts/security/ReentrancyGuard.sol\":2303:2323  _nonReentrantAfter() */\n      tag_127\n        /* \"@openzeppelin/contracts/security/ReentrancyGuard.sol\":1716:1717  1 */\n      0x01\n        /* \"@openzeppelin/contracts/security/ReentrancyGuard.sol\":2809:2816  _status */\n      0x00\n        /* \"@openzeppelin/contracts/security/ReentrancyGuard.sol\":2809:2831  _status = _NOT_ENTERED */\n      sstore\n        /* \"@openzeppelin/contracts/security/ReentrancyGuard.sol\":2629:2838  function _nonReentrantAfter() private {... */\n      jump\n        /* \"@openzeppelin/contracts/security/ReentrancyGuard.sol\":2303:2323  _nonReentrantAfter() */\n    tag_127:\n        /* \"Escrow.sol\":4114:5031  function declareDraw(bytes32 storeHash) external nonReentrant onlyOracle {... */\n      pop\n      jump\t// out\n        /* \"Escrow.sol\":1905:2686  function storeTokens(bytes32 matchId, bytes32 choice, address acceptor) external payable {... */\n    tag_41:\n        /* \"Escrow.sol\":2025:2026  0 */\n      0x00\n        /* \"Escrow.sol\":2013:2022  msg.value */\n      callvalue\n        /* \"Escrow.sol\":2013:2026  msg.value > 0 */\n      gt\n        /* \"Escrow.sol\":2005:2046  require(msg.value > 0, \"Invalid deposit\") */\n      tag_130\n      jumpi\n      mload(0x40)\n      shl(0xe5, 0x461bcd)\n      dup2\n      mstore\n        /* \"#utility.yul\":6400:6402   */\n      0x20\n        /* \"Escrow.sol\":2005:2046  require(msg.value > 0, \"Invalid deposit\") */\n      0x04\n      dup3\n      add\n        /* \"#utility.yul\":6382:6403   */\n      mstore\n        /* \"#utility.yul\":6439:6441   */\n      0x0f\n        /* \"#utility.yul\":6419:6437   */\n      0x24\n      dup3\n      add\n        /* \"#utility.yul\":6412:6442   */\n      mstore\n      shl(0x8a, 0x125b9d985b1a590819195c1bdcda5d)\n        /* \"#utility.yul\":6458:6476   */\n      0x44\n      dup3\n      add\n        /* \"#utility.yul\":6451:6496   */\n      mstore\n        /* \"#utility.yul\":6513:6531   */\n      0x64\n      add\n        /* \"Escrow.sol\":2005:2046  require(msg.value > 0, \"Invalid deposit\") */\n      tag_88\n        /* \"#utility.yul\":6198:6537   */\n      jump\n        /* \"Escrow.sol\":2005:2046  require(msg.value > 0, \"Invalid deposit\") */\n    tag_130:\n      sub(shl(0x80, 0x01), 0x01)\n        /* \"Escrow.sol\":2065:2074  msg.value */\n      callvalue\n        /* \"Escrow.sol\":2065:2095  msg.value <= type(uint128).max */\n      gt\n      iszero\n        /* \"Escrow.sol\":2057:2116  require(msg.value <= type(uint128).max, \"Amount too large\") */\n      tag_133\n      jumpi\n      mload(0x40)\n      shl(0xe5, 0x461bcd)\n      dup2\n      mstore\n        /* \"#utility.yul\":6744:6746   */\n      0x20\n        /* \"Escrow.sol\":2057:2116  require(msg.value <= type(uint128).max, \"Amount too large\") */\n      0x04\n      dup3\n      add\n        /* \"#utility.yul\":6726:6747   */\n      mstore\n        /* \"#utility.yul\":6783:6785   */\n      0x10\n        /* \"#utility.yul\":6763:6781   */\n      0x24\n      dup3\n      add\n        /* \"#utility.yul\":6756:6786   */\n      mstore\n      shl(0x80, 0x416d6f756e7420746f6f206c61726765)\n        /* \"#utility.yul\":6802:6820   */\n      0x44\n      dup3\n      add\n        /* \"#utility.yul\":6795:6841   */\n      mstore\n        /* \"#utility.yul\":6858:6876   */\n      0x64\n      add\n        /* \"Escrow.sol\":2057:2116  require(msg.value <= type(uint128).max, \"Amount too large\") */\n      tag_88\n        /* \"#utility.yul\":6542:6882   */\n      jump\n        /* \"Escrow.sol\":2057:2116  require(msg.value <= type(uint128).max, \"Amount too large\") */\n    tag_133:\n      sub(shl(0xa0, 0x01), 0x01)\n        /* \"Escrow.sol\":2135:2157  acceptor != address(0) */\n      dup2\n      and\n        /* \"Escrow.sol\":2127:2186  require(acceptor != address(0), \"Invalid acceptor address\") */\n      tag_136\n      jumpi\n      mload(0x40)\n      shl(0xe5, 0x461bcd)\n      dup2\n      mstore\n        /* \"#utility.yul\":7089:7091   */\n      0x20\n        /* \"Escrow.sol\":2127:2186  require(acceptor != address(0), \"Invalid acceptor address\") */\n      0x04\n      dup3\n      add\n        /* \"#utility.yul\":7071:7092   */\n      mstore\n        /* \"#utility.yul\":7128:7130   */\n      0x18\n        /* \"#utility.yul\":7108:7126   */\n      0x24\n      dup3\n      add\n        /* \"#utility.yul\":7101:7131   */\n      mstore\n        /* \"#utility.yul\":7167:7193   */\n      0x496e76616c6964206163636570746f7220616464726573730000000000000000\n        /* \"#utility.yul\":7147:7165   */\n      0x44\n      dup3\n      add\n        /* \"#utility.yul\":7140:7194   */\n      mstore\n        /* \"#utility.yul\":7211:7229   */\n      0x64\n      add\n        /* \"Escrow.sol\":2127:2186  require(acceptor != address(0), \"Invalid acceptor address\") */\n      tag_88\n        /* \"#utility.yul\":6887:7235   */\n      jump\n        /* \"Escrow.sol\":2127:2186  require(acceptor != address(0), \"Invalid acceptor address\") */\n    tag_136:\n        /* \"Escrow.sol\":2217:2227  msg.sender */\n      caller\n      sub(shl(0xa0, 0x01), 0x01)\n        /* \"Escrow.sol\":2205:2227  acceptor != msg.sender */\n      dup3\n      and\n      sub\n        /* \"Escrow.sol\":2197:2253  require(acceptor != msg.sender, \"Cannot accept own bet\") */\n      tag_139\n      jumpi\n      mload(0x40)\n      shl(0xe5, 0x461bcd)\n      dup2\n      mstore\n        /* \"#utility.yul\":7442:7444   */\n      0x20\n        /* \"Escrow.sol\":2197:2253  require(acceptor != msg.sender, \"Cannot accept own bet\") */\n      0x04\n      dup3\n      add\n        /* \"#utility.yul\":7424:7445   */\n      mstore\n        /* \"#utility.yul\":7481:7483   */\n      0x15\n        /* \"#utility.yul\":7461:7479   */\n      0x24\n      dup3\n      add\n        /* \"#utility.yul\":7454:7484   */\n      mstore\n      shl(0x5a, 0x10d85b9b9bdd081858d8d95c1d081bdddb8818995d)\n        /* \"#utility.yul\":7500:7518   */\n      0x44\n      dup3\n      add\n        /* \"#utility.yul\":7493:7544   */\n      mstore\n        /* \"#utility.yul\":7561:7579   */\n      0x64\n      add\n        /* \"Escrow.sol\":2197:2253  require(acceptor != msg.sender, \"Cannot accept own bet\") */\n      tag_88\n        /* \"#utility.yul\":7240:7585   */\n      jump\n        /* \"Escrow.sol\":2197:2253  require(acceptor != msg.sender, \"Cannot accept own bet\") */\n    tag_139:\n        /* \"Escrow.sol\":2311:2321  betCounter */\n      0x04\n        /* \"Escrow.sol\":2311:2323  betCounter++ */\n      dup1\n      sload\n        /* \"Escrow.sol\":2264:2281  bytes32 storeHash */\n      0x00\n      swap2\n      dup3\n        /* \"Escrow.sol\":2311:2323  betCounter++ */\n      tag_142\n      dup4\n      tag_143\n      jump\t// in\n    tag_142:\n      swap1\n      swap2\n      sstore\n      pop\n        /* \"Escrow.sol\":2294:2336  abi.encodePacked(betCounter++, msg.sender) */\n      0x40\n      dup1\n      mload\n      0x20\n      dup2\n      add\n        /* \"#utility.yul\":7887:7906   */\n      swap3\n      swap1\n      swap3\n      mstore\n      not(0xffffffffffffffffffffffff)\n        /* \"Escrow.sol\":2325:2335  msg.sender */\n      caller\n        /* \"#utility.yul\":7944:7946   */\n      0x60\n        /* \"#utility.yul\":7940:7955   */\n      shl\n        /* \"#utility.yul\":7936:7989   */\n      and\n        /* \"#utility.yul\":7922:7934   */\n      swap1\n      dup3\n      add\n        /* \"#utility.yul\":7915:7990   */\n      mstore\n        /* \"#utility.yul\":8006:8018   */\n      0x54\n      add\n        /* \"Escrow.sol\":2294:2336  abi.encodePacked(betCounter++, msg.sender) */\n      0x40\n      dup1\n      mload\n      not(0x1f)\n      dup2\n      dup5\n      sub\n      add\n      dup2\n      mstore\n      dup3\n      dup3\n      mstore\n        /* \"Escrow.sol\":2284:2337  keccak256(abi.encodePacked(betCounter++, msg.sender)) */\n      dup1\n      mload\n        /* \"Escrow.sol\":2294:2336  abi.encodePacked(betCounter++, msg.sender) */\n      0x20\n        /* \"Escrow.sol\":2284:2337  keccak256(abi.encodePacked(betCounter++, msg.sender)) */\n      swap2\n      dup3\n      add\n      keccak256\n        /* \"Escrow.sol\":2348:2370  Storage storage escrow */\n      0x00\n        /* \"Escrow.sol\":2373:2397  escrowStorage[storeHash] */\n      dup2\n      dup2\n      mstore\n        /* \"Escrow.sol\":2373:2386  escrowStorage */\n      0x03\n        /* \"Escrow.sol\":2373:2397  escrowStorage[storeHash] */\n      dup1\n      dup5\n      mstore\n      swap1\n      dup5\n      swap1\n      keccak256\n        /* \"Escrow.sol\":2408:2432  escrow.matchId = matchId */\n      dup10\n      dup2\n      sstore\n        /* \"Escrow.sol\":2443:2456  escrow.player */\n      0x01\n      dup2\n      add\n        /* \"Escrow.sol\":2443:2469  escrow.player = msg.sender */\n      dup1\n      sload\n      not(sub(shl(0xa0, 0x01), 0x01))\n      and\n        /* \"Escrow.sol\":2459:2469  msg.sender */\n      caller\n        /* \"Escrow.sol\":2443:2469  escrow.player = msg.sender */\n      swap1\n      dup2\n      or\n      swap1\n      swap2\n      sstore\n        /* \"Escrow.sol\":2480:2494  escrow.choiceA */\n      swap2\n      dup2\n      add\n        /* \"Escrow.sol\":2480:2503  escrow.choiceA = choice */\n      dup10\n      swap1\n      sstore\n        /* \"Escrow.sol\":2514:2532  escrow.totalAmount */\n      0x05\n      dup2\n      add\n        /* \"Escrow.sol\":2514:2553  escrow.totalAmount = uint128(msg.value) */\n      dup1\n      sload\n      not(0xffffffffffffffffffffffffffffffffff)\n        /* \"Escrow.sol\":2564:2586  escrow.isActive = true */\n      and\n      sub(shl(0x80, 0x01), 0x01)\n        /* \"Escrow.sol\":2543:2552  msg.value */\n      callvalue\n        /* \"Escrow.sol\":2514:2553  escrow.totalAmount = uint128(msg.value) */\n      swap1\n      dup2\n      and\n        /* \"Escrow.sol\":2564:2586  escrow.isActive = true */\n      swap2\n      swap1\n      swap2\n      or\n      shl(0x80, 0x01)\n      or\n      swap1\n      swap2\n      sstore\n        /* \"Escrow.sol\":307:326  keccak256(\"player\") */\n      0x326d994cdb81aaccb84aa1f62bae636dc0aaf98ab22f66b0c9224f1edccd7cc9\n        /* \"#utility.yul\":8260:8285   */\n      dup8\n      mstore\n        /* \"#utility.yul\":8301:8319   */\n      swap4\n      dup7\n      add\n        /* \"#utility.yul\":8294:8328   */\n      dup11\n      swap1\n      mstore\n        /* \"#utility.yul\":8344:8362   */\n      swap4\n      dup6\n      add\n        /* \"#utility.yul\":8337:8371   */\n      dup9\n      swap1\n      mstore\n        /* \"#utility.yul\":8402:8404   */\n      0x60\n        /* \"#utility.yul\":8387:8405   */\n      dup6\n      add\n        /* \"#utility.yul\":8380:8414   */\n      swap3\n      swap1\n      swap3\n      mstore\n        /* \"Escrow.sol\":2284:2337  keccak256(abi.encodePacked(betCounter++, msg.sender)) */\n      swap4\n      pop\n        /* \"Escrow.sol\":2373:2397  escrowStorage[storeHash] */\n      swap1\n      swap2\n        /* \"Escrow.sol\":2284:2337  keccak256(abi.encodePacked(betCounter++, msg.sender)) */\n      dup4\n      swap1\n        /* \"Escrow.sol\":2602:2678  TokensStored(storeHash, msg.sender, PLAYER_ROLE, matchId, choice, msg.value) */\n      0x9d5e739e1c9fc40e31321ed7800925b6c7a9a458fc4c4708a66f96aa00778d9c\n      swap1\n        /* \"#utility.yul\":8247:8250   */\n      0x80\n        /* \"#utility.yul\":8232:8251   */\n      add\n        /* \"Escrow.sol\":2602:2678  TokensStored(storeHash, msg.sender, PLAYER_ROLE, matchId, choice, msg.value) */\n      mload(0x40)\n      dup1\n      swap2\n      sub\n      swap1\n      log3\n        /* \"Escrow.sol\":1994:2686  {... */\n      pop\n      pop\n        /* \"Escrow.sol\":1905:2686  function storeTokens(bytes32 matchId, bytes32 choice, address acceptor) external payable {... */\n      pop\n      pop\n      pop\n      jump\t// out\n        /* \"@openzeppelin/contracts/access/Ownable.sol\":2293:2394  function renounceOwnership() public virtual onlyOwner {... */\n    tag_44:\n        /* \"@openzeppelin/contracts/access/Ownable.sol\":1531:1544  _checkOwner() */\n      tag_149\n        /* \"@openzeppelin/contracts/access/Ownable.sol\":1531:1542  _checkOwner */\n      tag_85\n        /* \"@openzeppelin/contracts/access/Ownable.sol\":1531:1544  _checkOwner() */\n      jump\t// in\n    tag_149:\n        /* \"@openzeppelin/contracts/access/Ownable.sol\":2357:2387  _transferOwnership(address(0)) */\n      tag_151\n        /* \"@openzeppelin/contracts/access/Ownable.sol\":2384:2385  0 */\n      0x00\n        /* \"@openzeppelin/contracts/access/Ownable.sol\":2357:2375  _transferOwnership */\n      tag_152\n        /* \"@openzeppelin/contracts/access/Ownable.sol\":2357:2387  _transferOwnership(address(0)) */\n      jump\t// in\n    tag_151:\n        /* \"@openzeppelin/contracts/access/Ownable.sol\":2293:2394  function renounceOwnership() public virtual onlyOwner {... */\n      jump\t// out\n        /* \"Escrow.sol\":3294:4108  function releaseFunds(bytes32 storeHash, address winner) external nonReentrant onlyOracle {... */\n    tag_49:\n        /* \"@openzeppelin/contracts/security/ReentrancyGuard.sol\":2261:2282  _nonReentrantBefore() */\n      tag_154\n        /* \"@openzeppelin/contracts/security/ReentrancyGuard.sol\":2261:2280  _nonReentrantBefore */\n      tag_92\n        /* \"@openzeppelin/contracts/security/ReentrancyGuard.sol\":2261:2282  _nonReentrantBefore() */\n      jump\t// in\n    tag_154:\n        /* \"Escrow.sol\":1531:1544  oracleAddress */\n      and(sub(shl(0xa0, 0x01), 0x01), sload(0x02))\n        /* \"Escrow.sol\":1517:1527  msg.sender */\n      caller\n        /* \"Escrow.sol\":1517:1544  msg.sender == oracleAddress */\n      eq\n        /* \"Escrow.sol\":1509:1573  require(msg.sender == oracleAddress, \"Caller is not the oracle\") */\n      tag_156\n      jumpi\n      mload(0x40)\n      shl(0xe5, 0x461bcd)\n      dup2\n      mstore\n        /* \"#utility.yul\":3617:3619   */\n      0x20\n        /* \"Escrow.sol\":1509:1573  require(msg.sender == oracleAddress, \"Caller is not the oracle\") */\n      0x04\n      dup3\n      add\n        /* \"#utility.yul\":3599:3620   */\n      mstore\n        /* \"#utility.yul\":3656:3658   */\n      0x18\n        /* \"#utility.yul\":3636:3654   */\n      0x24\n      dup3\n      add\n        /* \"#utility.yul\":3629:3659   */\n      mstore\n      shl(0x40, 0x43616c6c6572206973206e6f7420746865206f7261636c65)\n        /* \"#utility.yul\":3675:3693   */\n      0x44\n      dup3\n      add\n        /* \"#utility.yul\":3668:3722   */\n      mstore\n        /* \"#utility.yul\":3739:3757   */\n      0x64\n      add\n        /* \"Escrow.sol\":1509:1573  require(msg.sender == oracleAddress, \"Caller is not the oracle\") */\n      tag_88\n        /* \"#utility.yul\":3415:3763   */\n      jump\n        /* \"Escrow.sol\":1509:1573  require(msg.sender == oracleAddress, \"Caller is not the oracle\") */\n    tag_156:\n        /* \"Escrow.sol\":3395:3417  Storage storage escrow */\n      0x00\n        /* \"Escrow.sol\":3420:3444  escrowStorage[storeHash] */\n      dup3\n      dup2\n      mstore\n        /* \"Escrow.sol\":3420:3433  escrowStorage */\n      0x03\n        /* \"Escrow.sol\":3420:3444  escrowStorage[storeHash] */\n      0x20\n      mstore\n      0x40\n      swap1\n      keccak256\n        /* \"Escrow.sol\":3463:3478  escrow.isActive */\n      0x05\n      dup2\n      add\n      sload\n      shl(0x80, 0x01)\n      swap1\n      div\n      0xff\n      and\n        /* \"Escrow.sol\":3455:3503  require(escrow.isActive, \"Escrow is not active\") */\n      tag_159\n      jumpi\n      mload(0x40)\n      shl(0xe5, 0x461bcd)\n      dup2\n      mstore\n        /* \"#utility.yul\":3970:3972   */\n      0x20\n        /* \"Escrow.sol\":3455:3503  require(escrow.isActive, \"Escrow is not active\") */\n      0x04\n      dup3\n      add\n        /* \"#utility.yul\":3952:3973   */\n      mstore\n        /* \"#utility.yul\":4009:4011   */\n      0x14\n        /* \"#utility.yul\":3989:4007   */\n      0x24\n      dup3\n      add\n        /* \"#utility.yul\":3982:4012   */\n      mstore\n      shl(0x60, 0x457363726f77206973206e6f7420616374697665)\n        /* \"#utility.yul\":4028:4046   */\n      0x44\n      dup3\n      add\n        /* \"#utility.yul\":4021:4071   */\n      mstore\n        /* \"#utility.yul\":4088:4106   */\n      0x64\n      add\n        /* \"Escrow.sol\":3455:3503  require(escrow.isActive, \"Escrow is not active\") */\n      tag_88\n        /* \"#utility.yul\":3768:4112   */\n      jump\n        /* \"Escrow.sol\":3455:3503  require(escrow.isActive, \"Escrow is not active\") */\n    tag_159:\n        /* \"Escrow.sol\":3523:3540  escrow.isResolved */\n      0x05\n      dup2\n      add\n      sload\n      shl(0x88, 0x01)\n      swap1\n      div\n      0xff\n      and\n        /* \"Escrow.sol\":3522:3540  !escrow.isResolved */\n      iszero\n        /* \"Escrow.sol\":3514:3565  require(!escrow.isResolved, \"Bet already resolved\") */\n      tag_161\n      jumpi\n      mload(0x40)\n      shl(0xe5, 0x461bcd)\n      dup2\n      mstore\n        /* \"#utility.yul\":4319:4321   */\n      0x20\n        /* \"Escrow.sol\":3514:3565  require(!escrow.isResolved, \"Bet already resolved\") */\n      0x04\n      dup3\n      add\n        /* \"#utility.yul\":4301:4322   */\n      mstore\n        /* \"#utility.yul\":4358:4360   */\n      0x14\n        /* \"#utility.yul\":4338:4356   */\n      0x24\n      dup3\n      add\n        /* \"#utility.yul\":4331:4361   */\n      mstore\n      shl(0x62, 0x10995d08185b1c9958591e481c995cdbdb1d9959)\n        /* \"#utility.yul\":4377:4395   */\n      0x44\n      dup3\n      add\n        /* \"#utility.yul\":4370:4420   */\n      mstore\n        /* \"#utility.yul\":4437:4455   */\n      0x64\n      add\n        /* \"Escrow.sol\":3514:3565  require(!escrow.isResolved, \"Bet already resolved\") */\n      tag_88\n        /* \"#utility.yul\":4117:4461   */\n      jump\n        /* \"Escrow.sol\":3514:3565  require(!escrow.isResolved, \"Bet already resolved\") */\n    tag_161:\n        /* \"Escrow.sol\":3584:3601  escrow.challenger */\n      0x02\n      dup2\n      add\n      sload\n      sub(shl(0xa0, 0x01), 0x01)\n      and\n        /* \"Escrow.sol\":3576:3636  require(escrow.challenger != address(0), \"Bet not accepted\") */\n      tag_163\n      jumpi\n      mload(0x40)\n      shl(0xe5, 0x461bcd)\n      dup2\n      mstore\n        /* \"#utility.yul\":4668:4670   */\n      0x20\n        /* \"Escrow.sol\":3576:3636  require(escrow.challenger != address(0), \"Bet not accepted\") */\n      0x04\n      dup3\n      add\n        /* \"#utility.yul\":4650:4671   */\n      mstore\n        /* \"#utility.yul\":4707:4709   */\n      0x10\n        /* \"#utility.yul\":4687:4705   */\n      0x24\n      dup3\n      add\n        /* \"#utility.yul\":4680:4710   */\n      mstore\n      shl(0x82, 0x10995d081b9bdd081858d8d95c1d1959)\n        /* \"#utility.yul\":4726:4744   */\n      0x44\n      dup3\n      add\n        /* \"#utility.yul\":4719:4765   */\n      mstore\n        /* \"#utility.yul\":4782:4800   */\n      0x64\n      add\n        /* \"Escrow.sol\":3576:3636  require(escrow.challenger != address(0), \"Bet not accepted\") */\n      tag_88\n        /* \"#utility.yul\":4466:4806   */\n      jump\n        /* \"Escrow.sol\":3576:3636  require(escrow.challenger != address(0), \"Bet not accepted\") */\n    tag_163:\n        /* \"Escrow.sol\":3655:3673  escrow.totalAmount */\n      0x05\n      dup2\n      add\n      sload\n      sub(shl(0x80, 0x01), 0x01)\n      and\n        /* \"Escrow.sol\":3647:3701  require(escrow.totalAmount > 0, \"No funds to release\") */\n      tag_165\n      jumpi\n      mload(0x40)\n      shl(0xe5, 0x461bcd)\n      dup2\n      mstore\n        /* \"#utility.yul\":5013:5015   */\n      0x20\n        /* \"Escrow.sol\":3647:3701  require(escrow.totalAmount > 0, \"No funds to release\") */\n      0x04\n      dup3\n      add\n        /* \"#utility.yul\":4995:5016   */\n      mstore\n        /* \"#utility.yul\":5052:5054   */\n      0x13\n        /* \"#utility.yul\":5032:5050   */\n      0x24\n      dup3\n      add\n        /* \"#utility.yul\":5025:5055   */\n      mstore\n      shl(0x68, 0x4e6f2066756e647320746f2072656c65617365)\n        /* \"#utility.yul\":5071:5089   */\n      0x44\n      dup3\n      add\n        /* \"#utility.yul\":5064:5113   */\n      mstore\n        /* \"#utility.yul\":5130:5148   */\n      0x64\n      add\n        /* \"Escrow.sol\":3647:3701  require(escrow.totalAmount > 0, \"No funds to release\") */\n      tag_88\n        /* \"#utility.yul\":4811:5154   */\n      jump\n        /* \"Escrow.sol\":3647:3701  require(escrow.totalAmount > 0, \"No funds to release\") */\n    tag_165:\n        /* \"Escrow.sol\":3730:3743  escrow.player */\n      0x01\n      dup2\n      add\n      sload\n      sub(shl(0xa0, 0x01), 0x01)\n        /* \"Escrow.sol\":3720:3743  winner == escrow.player */\n      dup4\n      dup2\n      and\n        /* \"Escrow.sol\":3730:3743  escrow.player */\n      swap2\n      and\n        /* \"Escrow.sol\":3720:3743  winner == escrow.player */\n      eq\n      dup1\n        /* \"Escrow.sol\":3720:3774  winner == escrow.player || winner == escrow.challenger */\n      tag_167\n      jumpi\n      pop\n        /* \"Escrow.sol\":3757:3774  escrow.challenger */\n      0x02\n      dup2\n      add\n      sload\n      sub(shl(0xa0, 0x01), 0x01)\n        /* \"Escrow.sol\":3747:3774  winner == escrow.challenger */\n      dup4\n      dup2\n      and\n        /* \"Escrow.sol\":3757:3774  escrow.challenger */\n      swap2\n      and\n        /* \"Escrow.sol\":3747:3774  winner == escrow.challenger */\n      eq\n        /* \"Escrow.sol\":3720:3774  winner == escrow.player || winner == escrow.challenger */\n    tag_167:\n        /* \"Escrow.sol\":3712:3793  require(winner == escrow.player || winner == escrow.challenger, \"Invalid winner\") */\n      tag_168\n      jumpi\n      mload(0x40)\n      shl(0xe5, 0x461bcd)\n      dup2\n      mstore\n        /* \"#utility.yul\":8627:8629   */\n      0x20\n        /* \"Escrow.sol\":3712:3793  require(winner == escrow.player || winner == escrow.challenger, \"Invalid winner\") */\n      0x04\n      dup3\n      add\n        /* \"#utility.yul\":8609:8630   */\n      mstore\n        /* \"#utility.yul\":8666:8668   */\n      0x0e\n        /* \"#utility.yul\":8646:8664   */\n      0x24\n      dup3\n      add\n        /* \"#utility.yul\":8639:8669   */\n      mstore\n      shl(0x91, 0x24b73b30b634b2103bb4b73732b9)\n        /* \"#utility.yul\":8685:8703   */\n      0x44\n      dup3\n      add\n        /* \"#utility.yul\":8678:8722   */\n      mstore\n        /* \"#utility.yul\":8739:8757   */\n      0x64\n      add\n        /* \"Escrow.sol\":3712:3793  require(winner == escrow.player || winner == escrow.challenger, \"Invalid winner\") */\n      tag_88\n        /* \"#utility.yul\":8425:8763   */\n      jump\n        /* \"Escrow.sol\":3712:3793  require(winner == escrow.player || winner == escrow.challenger, \"Invalid winner\") */\n    tag_168:\n        /* \"Escrow.sol\":3804:3821  escrow.isResolved */\n      0x05\n      dup2\n      add\n        /* \"Escrow.sol\":3804:3828  escrow.isResolved = true */\n      dup1\n      sload\n      not(0xffffffffffffffffffffffffffffffffffff)\n        /* \"Escrow.sol\":3916:3938  escrow.totalAmount = 0 */\n      dup2\n      and\n      shl(0x88, 0x01)\n      or\n      swap1\n      swap2\n      sstore\n        /* \"Escrow.sol\":3954:3994  ReleasedFunds(storeHash, amount, winner) */\n      mload(0x40)\n      sub(shl(0x80, 0x01), 0x01)\n        /* \"Escrow.sol\":3887:3905  escrow.totalAmount */\n      swap1\n      swap2\n      and\n      swap1\n      sub(shl(0xa0, 0x01), 0x01)\n        /* \"Escrow.sol\":3954:3994  ReleasedFunds(storeHash, amount, winner) */\n      dup5\n      and\n      swap1\n        /* \"Escrow.sol\":3887:3905  escrow.totalAmount */\n      dup3\n      swap1\n        /* \"Escrow.sol\":3968:3977  storeHash */\n      dup7\n      swap1\n        /* \"Escrow.sol\":3954:3994  ReleasedFunds(storeHash, amount, winner) */\n      0xa20198858d673ac3cf5d6f62c85cb502c39af8269735c0ef6774aff58154a429\n      swap1\n        /* \"Escrow.sol\":3804:3828  escrow.isResolved = true */\n      0x00\n      swap1\n        /* \"Escrow.sol\":3954:3994  ReleasedFunds(storeHash, amount, winner) */\n      log4\n        /* \"Escrow.sol\":4006:4018  bool success */\n      0x00\n        /* \"Escrow.sol\":4024:4030  winner */\n      dup4\n      sub(shl(0xa0, 0x01), 0x01)\n        /* \"Escrow.sol\":4024:4035  winner.call */\n      and\n        /* \"Escrow.sol\":4043:4049  amount */\n      dup3\n        /* \"Escrow.sol\":4024:4054  winner.call{value: amount}(\"\") */\n      mload(0x40)\n      0x00\n      mload(0x40)\n      dup1\n      dup4\n      sub\n      dup2\n      dup6\n      dup8\n      gas\n      call\n      swap3\n      pop\n      pop\n      pop\n      returndatasize\n      dup1\n      0x00\n      dup2\n      eq\n      tag_174\n      jumpi\n      mload(0x40)\n      swap2\n      pop\n      and(add(returndatasize, 0x3f), not(0x1f))\n      dup3\n      add\n      0x40\n      mstore\n      returndatasize\n      dup3\n      mstore\n      returndatasize\n      0x00\n      0x20\n      dup5\n      add\n      returndatacopy\n      jump(tag_173)\n    tag_174:\n      0x60\n      swap2\n      pop\n    tag_173:\n      pop\n        /* \"Escrow.sol\":4005:4054  (bool success, ) = winner.call{value: amount}(\"\") */\n      pop\n      swap1\n      pop\n        /* \"Escrow.sol\":4073:4080  success */\n      dup1\n        /* \"Escrow.sol\":4065:4100  require(success, \"Transfer failed\") */\n      tag_175\n      jumpi\n      mload(0x40)\n      shl(0xe5, 0x461bcd)\n      dup2\n      mstore\n        /* \"#utility.yul\":8970:8972   */\n      0x20\n        /* \"Escrow.sol\":4065:4100  require(success, \"Transfer failed\") */\n      0x04\n      dup3\n      add\n        /* \"#utility.yul\":8952:8973   */\n      mstore\n        /* \"#utility.yul\":9009:9011   */\n      0x0f\n        /* \"#utility.yul\":8989:9007   */\n      0x24\n      dup3\n      add\n        /* \"#utility.yul\":8982:9012   */\n      mstore\n      shl(0x8a, 0x151c985b9cd9995c8819985a5b1959)\n        /* \"#utility.yul\":9028:9046   */\n      0x44\n      dup3\n      add\n        /* \"#utility.yul\":9021:9066   */\n      mstore\n        /* \"#utility.yul\":9083:9101   */\n      0x64\n      add\n        /* \"Escrow.sol\":4065:4100  require(success, \"Transfer failed\") */\n      tag_88\n        /* \"#utility.yul\":8768:9107   */\n      jump\n        /* \"Escrow.sol\":4065:4100  require(success, \"Transfer failed\") */\n    tag_175:\n        /* \"Escrow.sol\":3384:4108  {... */\n      pop\n      pop\n      pop\n        /* \"@openzeppelin/contracts/security/ReentrancyGuard.sol\":2303:2323  _nonReentrantAfter() */\n      tag_178\n        /* \"@openzeppelin/contracts/security/ReentrancyGuard.sol\":1716:1717  1 */\n      0x01\n        /* \"@openzeppelin/contracts/security/ReentrancyGuard.sol\":2809:2816  _status */\n      0x00\n        /* \"@openzeppelin/contracts/security/ReentrancyGuard.sol\":2809:2831  _status = _NOT_ENTERED */\n      sstore\n        /* \"@openzeppelin/contracts/security/ReentrancyGuard.sol\":2629:2838  function _nonReentrantAfter() private {... */\n      jump\n        /* \"@openzeppelin/contracts/security/ReentrancyGuard.sol\":2303:2323  _nonReentrantAfter() */\n    tag_178:\n        /* \"Escrow.sol\":3294:4108  function releaseFunds(bytes32 storeHash, address winner) external nonReentrant onlyOracle {... */\n      pop\n      pop\n      jump\t// out\n        /* \"@openzeppelin/contracts/access/Ownable.sol\":2543:2758  function transferOwnership(address newOwner) public virtual onlyOwner {... */\n    tag_73:\n        /* \"@openzeppelin/contracts/access/Ownable.sol\":1531:1544  _checkOwner() */\n      tag_181\n        /* \"@openzeppelin/contracts/access/Ownable.sol\":1531:1542  _checkOwner */\n      tag_85\n        /* \"@openzeppelin/contracts/access/Ownable.sol\":1531:1544  _checkOwner() */\n      jump\t// in\n    tag_181:\n      sub(shl(0xa0, 0x01), 0x01)\n        /* \"@openzeppelin/contracts/access/Ownable.sol\":2627:2649  newOwner == address(0) */\n      dup2\n      and\n        /* \"@openzeppelin/contracts/access/Ownable.sol\":2623:2714  if (newOwner == address(0)) {... */\n      tag_183\n      jumpi\n        /* \"@openzeppelin/contracts/access/Ownable.sol\":2672:2703  OwnableInvalidOwner(address(0)) */\n      mload(0x40)\n      shl(0xe0, 0x1e4fbdf7)\n      dup2\n      mstore\n        /* \"@openzeppelin/contracts/access/Ownable.sol\":2700:2701  0 */\n      0x00\n        /* \"@openzeppelin/contracts/access/Ownable.sol\":2672:2703  OwnableInvalidOwner(address(0)) */\n      0x04\n      dup3\n      add\n        /* \"#utility.yul\":1672:1723   */\n      mstore\n        /* \"#utility.yul\":1645:1663   */\n      0x24\n      add\n        /* \"@openzeppelin/contracts/access/Ownable.sol\":2672:2703  OwnableInvalidOwner(address(0)) */\n      tag_88\n        /* \"#utility.yul\":1526:1729   */\n      jump\n        /* \"@openzeppelin/contracts/access/Ownable.sol\":2623:2714  if (newOwner == address(0)) {... */\n    tag_183:\n        /* \"@openzeppelin/contracts/access/Ownable.sol\":2723:2751  _transferOwnership(newOwner) */\n      tag_127\n        /* \"@openzeppelin/contracts/access/Ownable.sol\":2742:2750  newOwner */\n      dup2\n        /* \"@openzeppelin/contracts/access/Ownable.sol\":2723:2741  _transferOwnership */\n      tag_152\n        /* \"@openzeppelin/contracts/access/Ownable.sol\":2723:2751  _transferOwnership(newOwner) */\n      jump\t// in\n        /* \"Escrow.sol\":2692:3288  function acceptBet(bytes32 storeHash, bytes32 choice) external payable {... */\n    tag_77:\n        /* \"Escrow.sol\":2774:2796  Storage storage escrow */\n      0x00\n        /* \"Escrow.sol\":2799:2823  escrowStorage[storeHash] */\n      dup3\n      dup2\n      mstore\n        /* \"Escrow.sol\":2799:2812  escrowStorage */\n      0x03\n        /* \"Escrow.sol\":2799:2823  escrowStorage[storeHash] */\n      0x20\n      mstore\n      0x40\n      swap1\n      keccak256\n        /* \"Escrow.sol\":2842:2857  escrow.isActive */\n      0x05\n      dup2\n      add\n      sload\n      shl(0x80, 0x01)\n      swap1\n      div\n      0xff\n      and\n        /* \"Escrow.sol\":2834:2879  require(escrow.isActive, \"Bet is not active\") */\n      tag_187\n      jumpi\n      mload(0x40)\n      shl(0xe5, 0x461bcd)\n      dup2\n      mstore\n        /* \"#utility.yul\":9314:9316   */\n      0x20\n        /* \"Escrow.sol\":2834:2879  require(escrow.isActive, \"Bet is not active\") */\n      0x04\n      dup3\n      add\n        /* \"#utility.yul\":9296:9317   */\n      mstore\n        /* \"#utility.yul\":9353:9355   */\n      0x11\n        /* \"#utility.yul\":9333:9351   */\n      0x24\n      dup3\n      add\n        /* \"#utility.yul\":9326:9356   */\n      mstore\n      shl(0x78, 0x426574206973206e6f7420616374697665)\n        /* \"#utility.yul\":9372:9390   */\n      0x44\n      dup3\n      add\n        /* \"#utility.yul\":9365:9412   */\n      mstore\n        /* \"#utility.yul\":9429:9447   */\n      0x64\n      add\n        /* \"Escrow.sol\":2834:2879  require(escrow.isActive, \"Bet is not active\") */\n      tag_88\n        /* \"#utility.yul\":9112:9453   */\n      jump\n        /* \"Escrow.sol\":2834:2879  require(escrow.isActive, \"Bet is not active\") */\n    tag_187:\n        /* \"Escrow.sol\":2898:2915  escrow.challenger */\n      0x02\n      dup2\n      add\n      sload\n      sub(shl(0xa0, 0x01), 0x01)\n      and\n        /* \"Escrow.sol\":2898:2929  escrow.challenger == address(0) */\n      iszero\n        /* \"Escrow.sol\":2890:2954  require(escrow.challenger == address(0), \"Bet already accepted\") */\n      tag_190\n      jumpi\n      mload(0x40)\n      shl(0xe5, 0x461bcd)\n      dup2\n      mstore\n        /* \"#utility.yul\":9660:9662   */\n      0x20\n        /* \"Escrow.sol\":2890:2954  require(escrow.challenger == address(0), \"Bet already accepted\") */\n      0x04\n      dup3\n      add\n        /* \"#utility.yul\":9642:9663   */\n      mstore\n        /* \"#utility.yul\":9699:9701   */\n      0x14\n        /* \"#utility.yul\":9679:9697   */\n      0x24\n      dup3\n      add\n        /* \"#utility.yul\":9672:9702   */\n      mstore\n      shl(0x62, 0x10995d08185b1c9958591e481858d8d95c1d1959)\n        /* \"#utility.yul\":9718:9736   */\n      0x44\n      dup3\n      add\n        /* \"#utility.yul\":9711:9761   */\n      mstore\n        /* \"#utility.yul\":9778:9796   */\n      0x64\n      add\n        /* \"Escrow.sol\":2890:2954  require(escrow.challenger == address(0), \"Bet already accepted\") */\n      tag_88\n        /* \"#utility.yul\":9458:9802   */\n      jump\n        /* \"Escrow.sol\":2890:2954  require(escrow.challenger == address(0), \"Bet already accepted\") */\n    tag_190:\n        /* \"Escrow.sol\":2986:3004  escrow.totalAmount */\n      0x05\n      dup2\n      add\n      sload\n      sub(shl(0x80, 0x01), 0x01)\n      and\n        /* \"Escrow.sol\":2973:2982  msg.value */\n      callvalue\n        /* \"Escrow.sol\":2973:3004  msg.value == escrow.totalAmount */\n      eq\n        /* \"Escrow.sol\":2965:3025  require(msg.value == escrow.totalAmount, \"Stake must match\") */\n      tag_193\n      jumpi\n      mload(0x40)\n      shl(0xe5, 0x461bcd)\n      dup2\n      mstore\n        /* \"#utility.yul\":10009:10011   */\n      0x20\n        /* \"Escrow.sol\":2965:3025  require(msg.value == escrow.totalAmount, \"Stake must match\") */\n      0x04\n      dup3\n      add\n        /* \"#utility.yul\":9991:10012   */\n      mstore\n        /* \"#utility.yul\":10048:10050   */\n      0x10\n        /* \"#utility.yul\":10028:10046   */\n      0x24\n      dup3\n      add\n        /* \"#utility.yul\":10021:10051   */\n      mstore\n      shl(0x83, 0x0a6e8c2d6ca40daeae6e840dac2e8c6d)\n        /* \"#utility.yul\":10067:10085   */\n      0x44\n      dup3\n      add\n        /* \"#utility.yul\":10060:10106   */\n      mstore\n        /* \"#utility.yul\":10123:10141   */\n      0x64\n      add\n        /* \"Escrow.sol\":2965:3025  require(msg.value == escrow.totalAmount, \"Stake must match\") */\n      tag_88\n        /* \"#utility.yul\":9807:10147   */\n      jump\n        /* \"Escrow.sol\":2965:3025  require(msg.value == escrow.totalAmount, \"Stake must match\") */\n    tag_193:\n        /* \"Escrow.sol\":3054:3060  escrow */\n      dup1\n        /* \"Escrow.sol\":3054:3068  escrow.choiceA */\n      0x03\n      add\n      sload\n        /* \"Escrow.sol\":3044:3050  choice */\n      dup3\n        /* \"Escrow.sol\":3044:3068  choice != escrow.choiceA */\n      sub\n        /* \"Escrow.sol\":3036:3096  require(choice != escrow.choiceA, \"Choice must be opposite\") */\n      tag_196\n      jumpi\n      mload(0x40)\n      shl(0xe5, 0x461bcd)\n      dup2\n      mstore\n        /* \"#utility.yul\":10354:10356   */\n      0x20\n        /* \"Escrow.sol\":3036:3096  require(choice != escrow.choiceA, \"Choice must be opposite\") */\n      0x04\n      dup3\n      add\n        /* \"#utility.yul\":10336:10357   */\n      mstore\n        /* \"#utility.yul\":10393:10395   */\n      0x17\n        /* \"#utility.yul\":10373:10391   */\n      0x24\n      dup3\n      add\n        /* \"#utility.yul\":10366:10396   */\n      mstore\n        /* \"#utility.yul\":10432:10457   */\n      0x43686f696365206d757374206265206f70706f73697465000000000000000000\n        /* \"#utility.yul\":10412:10430   */\n      0x44\n      dup3\n      add\n        /* \"#utility.yul\":10405:10458   */\n      mstore\n        /* \"#utility.yul\":10475:10493   */\n      0x64\n      add\n        /* \"Escrow.sol\":3036:3096  require(choice != escrow.choiceA, \"Choice must be opposite\") */\n      tag_88\n        /* \"#utility.yul\":10152:10499   */\n      jump\n        /* \"Escrow.sol\":3036:3096  require(choice != escrow.choiceA, \"Choice must be opposite\") */\n    tag_196:\n        /* \"Escrow.sol\":3107:3124  escrow.challenger */\n      0x02\n      dup2\n      add\n        /* \"Escrow.sol\":3107:3137  escrow.challenger = msg.sender */\n      dup1\n      sload\n      not(sub(shl(0xa0, 0x01), 0x01))\n      and\n        /* \"Escrow.sol\":3127:3137  msg.sender */\n      caller\n        /* \"Escrow.sol\":3107:3137  escrow.challenger = msg.sender */\n      or\n      swap1\n      sstore\n        /* \"Escrow.sol\":3148:3162  escrow.choiceB */\n      0x04\n      dup2\n      add\n        /* \"Escrow.sol\":3148:3171  escrow.choiceB = choice */\n      dup3\n      swap1\n      sstore\n        /* \"Escrow.sol\":3182:3200  escrow.totalAmount */\n      0x05\n      dup2\n      add\n        /* \"Escrow.sol\":3182:3222  escrow.totalAmount += uint128(msg.value) */\n      dup1\n      sload\n        /* \"Escrow.sol\":3212:3221  msg.value */\n      callvalue\n      swap2\n        /* \"Escrow.sol\":3182:3200  escrow.totalAmount */\n      swap1\n        /* \"Escrow.sol\":3107:3124  escrow.challenger */\n      0x00\n      swap1\n        /* \"Escrow.sol\":3182:3222  escrow.totalAmount += uint128(msg.value) */\n      tag_199\n      swap1\n        /* \"Escrow.sol\":3212:3221  msg.value */\n      dup5\n      swap1\n      sub(shl(0x80, 0x01), 0x01)\n        /* \"Escrow.sol\":3182:3222  escrow.totalAmount += uint128(msg.value) */\n      and\n      tag_200\n      jump\t// in\n    tag_199:\n      swap3\n      pop\n      0x0100\n      exp\n      dup2\n      sload\n      dup2\n      sub(shl(0x80, 0x01), 0x01)\n      mul\n      not\n      and\n      swap1\n      dup4\n      sub(shl(0x80, 0x01), 0x01)\n      and\n      mul\n      or\n      swap1\n      sstore\n      pop\n        /* \"Escrow.sol\":3261:3271  msg.sender */\n      caller\n      sub(shl(0xa0, 0x01), 0x01)\n        /* \"Escrow.sol\":3238:3280  BetAccepted(storeHash, msg.sender, choice) */\n      and\n        /* \"Escrow.sol\":3250:3259  storeHash */\n      dup4\n        /* \"Escrow.sol\":3238:3280  BetAccepted(storeHash, msg.sender, choice) */\n      0x2210b79a525b03013b38fa6844f45ce06146f62c5f2a8beafc1605f4f87e17b5\n        /* \"Escrow.sol\":3273:3279  choice */\n      dup5\n        /* \"Escrow.sol\":3238:3280  BetAccepted(storeHash, msg.sender, choice) */\n      mload(0x40)\n      tag_201\n      swap2\n        /* \"#utility.yul\":160:185   */\n      dup2\n      mstore\n        /* \"#utility.yul\":148:150   */\n      0x20\n        /* \"#utility.yul\":133:151   */\n      add\n      swap1\n        /* \"#utility.yul\":14:191   */\n      jump\n        /* \"Escrow.sol\":3238:3280  BetAccepted(storeHash, msg.sender, choice) */\n    tag_201:\n      mload(0x40)\n      dup1\n      swap2\n      sub\n      swap1\n      log3\n        /* \"Escrow.sol\":2763:3288  {... */\n      pop\n        /* \"Escrow.sol\":2692:3288  function acceptBet(bytes32 storeHash, bytes32 choice) external payable {... */\n      pop\n      pop\n      jump\t// out\n        /* \"@openzeppelin/contracts/access/Ownable.sol\":1796:1958  function _checkOwner() internal view virtual {... */\n    tag_85:\n        /* \"@openzeppelin/contracts/access/Ownable.sol\":1710:1716  _owner */\n      and(sub(shl(0xa0, 0x01), 0x01), sload(0x01))\n        /* \"@openzeppelin/contracts/utils/Context.sol\":735:745  msg.sender */\n      caller\n        /* \"@openzeppelin/contracts/access/Ownable.sol\":1855:1878  owner() != _msgSender() */\n      eq\n        /* \"@openzeppelin/contracts/access/Ownable.sol\":1851:1952  if (owner() != _msgSender()) {... */\n      tag_151\n      jumpi\n        /* \"@openzeppelin/contracts/access/Ownable.sol\":1901:1941  OwnableUnauthorizedAccount(_msgSender()) */\n      mload(0x40)\n      shl(0xe0, 0x118cdaa7)\n      dup2\n      mstore\n        /* \"@openzeppelin/contracts/utils/Context.sol\":735:745  msg.sender */\n      caller\n        /* \"@openzeppelin/contracts/access/Ownable.sol\":1901:1941  OwnableUnauthorizedAccount(_msgSender()) */\n      0x04\n      dup3\n      add\n        /* \"#utility.yul\":1672:1723   */\n      mstore\n        /* \"#utility.yul\":1645:1663   */\n      0x24\n      add\n        /* \"@openzeppelin/contracts/access/Ownable.sol\":1901:1941  OwnableUnauthorizedAccount(_msgSender()) */\n      tag_88\n        /* \"#utility.yul\":1526:1729   */\n      jump\n        /* \"@openzeppelin/contracts/security/ReentrancyGuard.sol\":2336:2623  function _nonReentrantBefore() private {... */\n    tag_92:\n        /* \"@openzeppelin/contracts/security/ReentrancyGuard.sol\":1759:1760  2 */\n      0x02\n        /* \"@openzeppelin/contracts/security/ReentrancyGuard.sol\":2468:2475  _status */\n      sload(0x00)\n        /* \"@openzeppelin/contracts/security/ReentrancyGuard.sol\":2468:2487  _status != _ENTERED */\n      sub\n        /* \"@openzeppelin/contracts/security/ReentrancyGuard.sol\":2460:2523  require(_status != _ENTERED, \"ReentrancyGuard: reentrant call\") */\n      tag_211\n      jumpi\n      mload(0x40)\n      shl(0xe5, 0x461bcd)\n      dup2\n      mstore\n        /* \"#utility.yul\":10951:10953   */\n      0x20\n        /* \"@openzeppelin/contracts/security/ReentrancyGuard.sol\":2460:2523  require(_status != _ENTERED, \"ReentrancyGuard: reentrant call\") */\n      0x04\n      dup3\n      add\n        /* \"#utility.yul\":10933:10954   */\n      mstore\n        /* \"#utility.yul\":10990:10992   */\n      0x1f\n        /* \"#utility.yul\":10970:10988   */\n      0x24\n      dup3\n      add\n        /* \"#utility.yul\":10963:10993   */\n      mstore\n        /* \"#utility.yul\":11029:11062   */\n      0x5265656e7472616e637947756172643a207265656e7472616e742063616c6c00\n        /* \"#utility.yul\":11009:11027   */\n      0x44\n      dup3\n      add\n        /* \"#utility.yul\":11002:11063   */\n      mstore\n        /* \"#utility.yul\":11080:11098   */\n      0x64\n      add\n        /* \"@openzeppelin/contracts/security/ReentrancyGuard.sol\":2460:2523  require(_status != _ENTERED, \"ReentrancyGuard: reentrant call\") */\n      tag_88\n        /* \"#utility.yul\":10749:11104   */\n      jump\n        /* \"@openzeppelin/contracts/security/ReentrancyGuard.sol\":2460:2523  require(_status != _ENTERED, \"ReentrancyGuard: reentrant call\") */\n    tag_211:\n        /* \"@openzeppelin/contracts/security/ReentrancyGuard.sol\":1759:1760  2 */\n      0x02\n        /* \"@openzeppelin/contracts/security/ReentrancyGuard.sol\":2598:2605  _status */\n      0x00\n        /* \"@openzeppelin/contracts/security/ReentrancyGuard.sol\":2598:2616  _status = _ENTERED */\n      sstore\n        /* \"@openzeppelin/contracts/security/ReentrancyGuard.sol\":2336:2623  function _nonReentrantBefore() private {... */\n      jump\t// out\n        /* \"@openzeppelin/contracts/access/Ownable.sol\":2912:3099  function _transferOwnership(address newOwner) internal virtual {... */\n    tag_152:\n        /* \"@openzeppelin/contracts/access/Ownable.sol\":3004:3010  _owner */\n      0x01\n      dup1\n      sload\n      sub(shl(0xa0, 0x01), 0x01)\n        /* \"@openzeppelin/contracts/access/Ownable.sol\":3020:3037  _owner = newOwner */\n      dup4\n      dup2\n      and\n      not(sub(shl(0xa0, 0x01), 0x01))\n      dup4\n      and\n      dup2\n      or\n      swap1\n      swap4\n      sstore\n        /* \"@openzeppelin/contracts/access/Ownable.sol\":3052:3092  OwnershipTransferred(oldOwner, newOwner) */\n      mload(0x40)\n        /* \"@openzeppelin/contracts/access/Ownable.sol\":3004:3010  _owner */\n      swap2\n      and\n      swap2\n        /* \"@openzeppelin/contracts/access/Ownable.sol\":3020:3037  _owner = newOwner */\n      swap1\n        /* \"@openzeppelin/contracts/access/Ownable.sol\":3004:3010  _owner */\n      dup3\n      swap1\n        /* \"@openzeppelin/contracts/access/Ownable.sol\":3052:3092  OwnershipTransferred(oldOwner, newOwner) */\n      0x8be0079c531659141344cd1fd0a4f28419497f9722a3daafe3b4186f6b6457e0\n      swap1\n        /* \"@openzeppelin/contracts/access/Ownable.sol\":2985:3001  address oldOwner */\n      0x00\n      swap1\n        /* \"@openzeppelin/contracts/access/Ownable.sol\":3052:3092  OwnershipTransferred(oldOwner, newOwner) */\n      log3\n        /* \"@openzeppelin/contracts/access/Ownable.sol\":2975:3099  {... */\n      pop\n        /* \"@openzeppelin/contracts/access/Ownable.sol\":2912:3099  function _transferOwnership(address newOwner) internal virtual {... */\n      pop\n      jump\t// out\n        /* \"#utility.yul\":196:369   */\n    tag_217:\n        /* \"#utility.yul\":264:284   */\n      dup1\n      calldataload\n      sub(shl(0xa0, 0x01), 0x01)\n        /* \"#utility.yul\":313:344   */\n      dup2\n      and\n        /* \"#utility.yul\":303:345   */\n      dup2\n      eq\n        /* \"#utility.yul\":293:363   */\n      tag_222\n      jumpi\n        /* \"#utility.yul\":359:360   */\n      0x00\n        /* \"#utility.yul\":356:357   */\n      dup1\n        /* \"#utility.yul\":349:361   */\n      revert\n        /* \"#utility.yul\":293:363   */\n    tag_222:\n        /* \"#utility.yul\":196:369   */\n      swap2\n      swap1\n      pop\n      jump\t// out\n        /* \"#utility.yul\":374:560   */\n    tag_27:\n        /* \"#utility.yul\":433:439   */\n      0x00\n        /* \"#utility.yul\":486:488   */\n      0x20\n        /* \"#utility.yul\":474:483   */\n      dup3\n        /* \"#utility.yul\":465:472   */\n      dup5\n        /* \"#utility.yul\":461:484   */\n      sub\n        /* \"#utility.yul\":457:489   */\n      slt\n        /* \"#utility.yul\":454:506   */\n      iszero\n      tag_224\n      jumpi\n        /* \"#utility.yul\":502:503   */\n      0x00\n        /* \"#utility.yul\":499:500   */\n      dup1\n        /* \"#utility.yul\":492:504   */\n      revert\n        /* \"#utility.yul\":454:506   */\n    tag_224:\n        /* \"#utility.yul\":525:554   */\n      tag_225\n        /* \"#utility.yul\":544:553   */\n      dup3\n        /* \"#utility.yul\":525:554   */\n      tag_217\n      jump\t// in\n    tag_225:\n        /* \"#utility.yul\":515:554   */\n      swap4\n        /* \"#utility.yul\":374:560   */\n      swap3\n      pop\n      pop\n      pop\n      jump\t// out\n        /* \"#utility.yul\":565:791   */\n    tag_36:\n        /* \"#utility.yul\":624:630   */\n      0x00\n        /* \"#utility.yul\":677:679   */\n      0x20\n        /* \"#utility.yul\":665:674   */\n      dup3\n        /* \"#utility.yul\":656:663   */\n      dup5\n        /* \"#utility.yul\":652:675   */\n      sub\n        /* \"#utility.yul\":648:680   */\n      slt\n        /* \"#utility.yul\":645:697   */\n      iszero\n      tag_227\n      jumpi\n        /* \"#utility.yul\":693:694   */\n      0x00\n        /* \"#utility.yul\":690:691   */\n      dup1\n        /* \"#utility.yul\":683:695   */\n      revert\n        /* \"#utility.yul\":645:697   */\n    tag_227:\n      pop\n        /* \"#utility.yul\":738:761   */\n      calldataload\n      swap2\n        /* \"#utility.yul\":565:791   */\n      swap1\n      pop\n      jump\t// out\n        /* \"#utility.yul\":796:1216   */\n    tag_40:\n        /* \"#utility.yul\":873:879   */\n      0x00\n        /* \"#utility.yul\":881:887   */\n      dup1\n        /* \"#utility.yul\":889:895   */\n      0x00\n        /* \"#utility.yul\":942:944   */\n      0x60\n        /* \"#utility.yul\":930:939   */\n      dup5\n        /* \"#utility.yul\":921:928   */\n      dup7\n        /* \"#utility.yul\":917:940   */\n      sub\n        /* \"#utility.yul\":913:945   */\n      slt\n        /* \"#utility.yul\":910:962   */\n      iszero\n      tag_229\n      jumpi\n        /* \"#utility.yul\":958:959   */\n      0x00\n        /* \"#utility.yul\":955:956   */\n      dup1\n        /* \"#utility.yul\":948:960   */\n      revert\n        /* \"#utility.yul\":910:962   */\n    tag_229:\n        /* \"#utility.yul\":1003:1026   */\n      dup4\n      calldataload\n      swap3\n      pop\n        /* \"#utility.yul\":1123:1125   */\n      0x20\n        /* \"#utility.yul\":1108:1126   */\n      dup5\n      add\n        /* \"#utility.yul\":1095:1127   */\n      calldataload\n      swap2\n      pop\n        /* \"#utility.yul\":1172:1210   */\n      tag_230\n        /* \"#utility.yul\":1206:1208   */\n      0x40\n        /* \"#utility.yul\":1191:1209   */\n      dup6\n      add\n        /* \"#utility.yul\":1172:1210   */\n      tag_217\n      jump\t// in\n    tag_230:\n        /* \"#utility.yul\":1162:1210   */\n      swap1\n      pop\n        /* \"#utility.yul\":796:1216   */\n      swap3\n      pop\n      swap3\n      pop\n      swap3\n      jump\t// out\n        /* \"#utility.yul\":1221:1521   */\n    tag_48:\n        /* \"#utility.yul\":1289:1295   */\n      0x00\n        /* \"#utility.yul\":1297:1303   */\n      dup1\n        /* \"#utility.yul\":1350:1352   */\n      0x40\n        /* \"#utility.yul\":1338:1347   */\n      dup4\n        /* \"#utility.yul\":1329:1336   */\n      dup6\n        /* \"#utility.yul\":1325:1348   */\n      sub\n        /* \"#utility.yul\":1321:1353   */\n      slt\n        /* \"#utility.yul\":1318:1370   */\n      iszero\n      tag_232\n      jumpi\n        /* \"#utility.yul\":1366:1367   */\n      0x00\n        /* \"#utility.yul\":1363:1364   */\n      dup1\n        /* \"#utility.yul\":1356:1368   */\n      revert\n        /* \"#utility.yul\":1318:1370   */\n    tag_232:\n        /* \"#utility.yul\":1411:1434   */\n      dup3\n      calldataload\n      swap2\n      pop\n        /* \"#utility.yul\":1477:1515   */\n      tag_233\n        /* \"#utility.yul\":1511:1513   */\n      0x20\n        /* \"#utility.yul\":1496:1514   */\n      dup5\n      add\n        /* \"#utility.yul\":1477:1515   */\n      tag_217\n      jump\t// in\n    tag_233:\n        /* \"#utility.yul\":1467:1515   */\n      swap1\n      pop\n        /* \"#utility.yul\":1221:1521   */\n      swap3\n      pop\n      swap3\n      swap1\n      pop\n      jump\t// out\n        /* \"#utility.yul\":2713:3059   */\n    tag_76:\n        /* \"#utility.yul\":2781:2787   */\n      0x00\n        /* \"#utility.yul\":2789:2795   */\n      dup1\n        /* \"#utility.yul\":2842:2844   */\n      0x40\n        /* \"#utility.yul\":2830:2839   */\n      dup4\n        /* \"#utility.yul\":2821:2828   */\n      dup6\n        /* \"#utility.yul\":2817:2840   */\n      sub\n        /* \"#utility.yul\":2813:2845   */\n      slt\n        /* \"#utility.yul\":2810:2862   */\n      iszero\n      tag_238\n      jumpi\n        /* \"#utility.yul\":2858:2859   */\n      0x00\n        /* \"#utility.yul\":2855:2856   */\n      dup1\n        /* \"#utility.yul\":2848:2860   */\n      revert\n        /* \"#utility.yul\":2810:2862   */\n    tag_238:\n      pop\n      pop\n        /* \"#utility.yul\":2903:2926   */\n      dup1\n      calldataload\n      swap3\n        /* \"#utility.yul\":3023:3025   */\n      0x20\n        /* \"#utility.yul\":3008:3026   */\n      swap1\n      swap2\n      add\n        /* \"#utility.yul\":2995:3027   */\n      calldataload\n      swap2\n      pop\n        /* \"#utility.yul\":2713:3059   */\n      jump\t// out\n        /* \"#utility.yul\":5159:5286   */\n    tag_218:\n        /* \"#utility.yul\":5220:5230   */\n      0x4e487b71\n        /* \"#utility.yul\":5215:5218   */\n      0xe0\n        /* \"#utility.yul\":5211:5231   */\n      shl\n        /* \"#utility.yul\":5208:5209   */\n      0x00\n        /* \"#utility.yul\":5201:5232   */\n      mstore\n        /* \"#utility.yul\":5251:5255   */\n      0x11\n        /* \"#utility.yul\":5248:5249   */\n      0x04\n        /* \"#utility.yul\":5241:5256   */\n      mstore\n        /* \"#utility.yul\":5275:5279   */\n      0x24\n        /* \"#utility.yul\":5272:5273   */\n      0x00\n        /* \"#utility.yul\":5265:5280   */\n      revert\n        /* \"#utility.yul\":5291:5508   */\n    tag_111:\n        /* \"#utility.yul\":5331:5332   */\n      0x00\n        /* \"#utility.yul\":5357:5358   */\n      dup3\n        /* \"#utility.yul\":5347:5479   */\n      tag_247\n      jumpi\n        /* \"#utility.yul\":5401:5411   */\n      0x4e487b71\n        /* \"#utility.yul\":5396:5399   */\n      0xe0\n        /* \"#utility.yul\":5392:5412   */\n      shl\n        /* \"#utility.yul\":5389:5390   */\n      0x00\n        /* \"#utility.yul\":5382:5413   */\n      mstore\n        /* \"#utility.yul\":5436:5440   */\n      0x12\n        /* \"#utility.yul\":5433:5434   */\n      0x04\n        /* \"#utility.yul\":5426:5441   */\n      mstore\n        /* \"#utility.yul\":5464:5468   */\n      0x24\n        /* \"#utility.yul\":5461:5462   */\n      0x00\n        /* \"#utility.yul\":5454:5469   */\n      revert\n        /* \"#utility.yul\":5347:5479   */\n    tag_247:\n      pop\n        /* \"#utility.yul\":5493:5502   */\n      div\n      swap1\n        /* \"#utility.yul\":5291:5508   */\n      jump\t// out\n        /* \"#utility.yul\":5513:5641   */\n    tag_113:\n        /* \"#utility.yul\":5580:5589   */\n      dup2\n      dup2\n      sub\n        /* \"#utility.yul\":5601:5612   */\n      dup2\n      dup2\n      gt\n        /* \"#utility.yul\":5598:5635   */\n      iszero\n      tag_250\n      jumpi\n        /* \"#utility.yul\":5615:5633   */\n      tag_250\n      tag_218\n      jump\t// in\n    tag_250:\n        /* \"#utility.yul\":5513:5641   */\n      swap3\n      swap2\n      pop\n      pop\n      jump\t// out\n        /* \"#utility.yul\":7590:7725   */\n    tag_143:\n        /* \"#utility.yul\":7629:7632   */\n      0x00\n        /* \"#utility.yul\":7650:7667   */\n      0x01\n      dup3\n      add\n        /* \"#utility.yul\":7647:7690   */\n      tag_259\n      jumpi\n        /* \"#utility.yul\":7670:7688   */\n      tag_259\n      tag_218\n      jump\t// in\n    tag_259:\n      pop\n        /* \"#utility.yul\":7717:7718   */\n      0x01\n        /* \"#utility.yul\":7706:7719   */\n      add\n      swap1\n        /* \"#utility.yul\":7590:7725   */\n      jump\t// out\n        /* \"#utility.yul\":10504:10744   */\n    tag_200:\n      sub(shl(0x80, 0x01), 0x01)\n        /* \"#utility.yul\":10573:10615   */\n      dup2\n      dup2\n      and\n        /* \"#utility.yul\":10617:10659   */\n      dup4\n      dup3\n      and\n        /* \"#utility.yul\":10569:10660   */\n      add\n      swap1\n        /* \"#utility.yul\":10672:10715   */\n      dup2\n      gt\n        /* \"#utility.yul\":10669:10738   */\n      iszero\n      tag_250\n      jumpi\n        /* \"#utility.yul\":10718:10736   */\n      tag_250\n      tag_218\n      jump\t// in\n\n    auxdata: 0xa2646970667358221220fa8b50602ea45cc898c979cc0232d57679610f1001ba28026305e223c5b38e3264736f6c634300081a0033\n}\n",
				"bytecode": {
					"linkReferences": {},
					"object": "608060405234801561000f575f80fd5b506040516112fd3803806112fd83398101604081905261002e91610157565b60015f55338061005857604051631e4fbdf760e01b81525f60048201526024015b60405180910390fd5b61006181610106565b506001600160a01b0381166100b85760405162461bcd60e51b815260206004820152601660248201527f496e76616c6964206f7261636c65206164647265737300000000000000000000604482015260640161004f565b600280546001600160a01b0319166001600160a01b0383169081179091556040515f907f078c3b417dadf69374a59793b829c52001247130433427049317bde56607b1b7908290a350610184565b600180546001600160a01b038381166001600160a01b0319831681179093556040519116919082907f8be0079c531659141344cd1fd0a4f28419497f9722a3daafe3b4186f6b6457e0905f90a35050565b5f60208284031215610167575f80fd5b81516001600160a01b038116811461017d575f80fd5b9392505050565b61116c806101915f395ff3fe6080604052600436106100d9575f3560e01c80638da5cb5b1161007c578063a89ae4ba11610057578063a89ae4ba146102f1578063f2fde38b14610310578063f4aa99df1461032f578063fffc780114610342575f80fd5b80638da5cb5b146101dc578063a0946f921461020d578063a416f5ab146102dc575f80fd5b806356fcb255116100b757806356fcb255146101775780636d4e0c8e14610196578063715018a6146101a95780637d25e89d146101bd575f80fd5b806316c30ebc146100dd5780631cb44dfc14610123578063530adbb414610144575b5f80fd5b3480156100e8575f80fd5b506101107f326d994cdb81aaccb84aa1f62bae636dc0aaf98ab22f66b0c9224f1edccd7cc981565b6040519081526020015b60405180910390f35b34801561012e575f80fd5b5061014261013d366004611000565b610379565b005b34801561014f575f80fd5b506101107fae8b6f0f354448b9bed217dcbb6effc6cc52560477cd31206503fbd937f7a37881565b348015610182575f80fd5b50610142610191366004611020565b610426565b6101426101a4366004611037565b610759565b3480156101b4575f80fd5b506101426109ad565b3480156101c8575f80fd5b506101426101d7366004611069565b6109c0565b3480156101e7575f80fd5b506001546001600160a01b03165b6040516001600160a01b03909116815260200161011a565b348015610218575f80fd5b50610288610227366004611020565b600360208190525f918252604090912080546001820154600283015493830154600484015460059094015492946001600160a01b03928316949216929091906001600160801b0381169060ff600160801b8204811691600160881b90041688565b604080519889526001600160a01b0397881660208a01529590961694870194909452606086019290925260808501526001600160801b031660a0840152151560c0830152151560e08201526101000161011a565b3480156102e7575f80fd5b5061011060045481565b3480156102fc575f80fd5b506002546101f5906001600160a01b031681565b34801561031b575f80fd5b5061014261032a366004611000565b610cdf565b61014261033d366004611093565b610d19565b34801561034d575f80fd5b5061011061035c366004611020565b5f908152600360205260409020600501546001600160801b031690565b610381610f10565b6001600160a01b0381166103d55760405162461bcd60e51b8152602060048201526016602482015275496e76616c6964206f7261636c65206164647265737360501b60448201526064015b60405180910390fd5b600280546001600160a01b038381166001600160a01b0319831681179093556040519116919082907f078c3b417dadf69374a59793b829c52001247130433427049317bde56607b1b7905f90a35050565b61042e610f3d565b6002546001600160a01b031633146104835760405162461bcd60e51b815260206004820152601860248201527743616c6c6572206973206e6f7420746865206f7261636c6560401b60448201526064016103cc565b5f8181526003602052604090206005810154600160801b900460ff166104e25760405162461bcd60e51b8152602060048201526014602482015273457363726f77206973206e6f742061637469766560601b60448201526064016103cc565b6005810154600160881b900460ff16156105355760405162461bcd60e51b815260206004820152601460248201527310995d08185b1c9958591e481c995cdbdb1d995960621b60448201526064016103cc565b60028101546001600160a01b03166105825760405162461bcd60e51b815260206004820152601060248201526f10995d081b9bdd081858d8d95c1d195960821b60448201526064016103cc565b60058101546001600160801b03166105d25760405162461bcd60e51b81526020600482015260136024820152724e6f2066756e647320746f2072656c6561736560681b60448201526064016103cc565b60058101805461ffff60801b198116600160881b179091556001600160801b03165f6105ff6002836110c7565b90505f61060c82846110e6565b6005850180546fffffffffffffffffffffffffffffffff1916905560405190915085907f57b2458f42361feee979da84b5231c7cdaa26d4bb556d06accb1eca7eec98ada905f90a260018401546040515f916001600160a01b03169084908381818185875af1925050503d805f81146106a0576040519150601f19603f3d011682016040523d82523d5f602084013e6106a5565b606091505b505060028601546040519192505f916001600160a01b039091169084908381818185875af1925050503d805f81146106f8576040519150601f19603f3d011682016040523d82523d5f602084013e6106fd565b606091505b5050905081801561070b5750805b6107475760405162461bcd60e51b815260206004820152600d60248201526c1499599d5b990819985a5b1959609a1b60448201526064016103cc565b50505050505061075660015f55565b50565b5f341161079a5760405162461bcd60e51b815260206004820152600f60248201526e125b9d985b1a590819195c1bdcda5d608a1b60448201526064016103cc565b6001600160801b033411156107e45760405162461bcd60e51b815260206004820152601060248201526f416d6f756e7420746f6f206c6172676560801b60448201526064016103cc565b6001600160a01b03811661083a5760405162461bcd60e51b815260206004820152601860248201527f496e76616c6964206163636570746f722061646472657373000000000000000060448201526064016103cc565b336001600160a01b0382160361088a5760405162461bcd60e51b815260206004820152601560248201527410d85b9b9bdd081858d8d95c1d081bdddb8818995d605a1b60448201526064016103cc565b600480545f918261089a836110ff565b909155506040805160208101929092526bffffffffffffffffffffffff193360601b169082015260540160408051601f1981840301815282825280516020918201205f8181526003808452908490208981556001810180546001600160a01b0319163390811790915591810189905560058101805470ffffffffffffffffffffffffffffffffff19166001600160801b033490811691909117600160801b179091557f326d994cdb81aaccb84aa1f62bae636dc0aaf98ab22f66b0c9224f1edccd7cc987529386018a905293850188905260608501929092529350909183907f9d5e739e1c9fc40e31321ed7800925b6c7a9a458fc4c4708a66f96aa00778d9c9060800160405180910390a35050505050565b6109b5610f10565b6109be5f610f94565b565b6109c8610f3d565b6002546001600160a01b03163314610a1d5760405162461bcd60e51b815260206004820152601860248201527743616c6c6572206973206e6f7420746865206f7261636c6560401b60448201526064016103cc565b5f8281526003602052604090206005810154600160801b900460ff16610a7c5760405162461bcd60e51b8152602060048201526014602482015273457363726f77206973206e6f742061637469766560601b60448201526064016103cc565b6005810154600160881b900460ff1615610acf5760405162461bcd60e51b815260206004820152601460248201527310995d08185b1c9958591e481c995cdbdb1d995960621b60448201526064016103cc565b60028101546001600160a01b0316610b1c5760405162461bcd60e51b815260206004820152601060248201526f10995d081b9bdd081858d8d95c1d195960821b60448201526064016103cc565b60058101546001600160801b0316610b6c5760405162461bcd60e51b81526020600482015260136024820152724e6f2066756e647320746f2072656c6561736560681b60448201526064016103cc565b60018101546001600160a01b0383811691161480610b99575060028101546001600160a01b038381169116145b610bd65760405162461bcd60e51b815260206004820152600e60248201526d24b73b30b634b2103bb4b73732b960911b60448201526064016103cc565b60058101805471ffffffffffffffffffffffffffffffffffff198116600160881b179091556040516001600160801b03909116906001600160a01b03841690829086907fa20198858d673ac3cf5d6f62c85cb502c39af8269735c0ef6774aff58154a429905f90a45f836001600160a01b0316826040515f6040518083038185875af1925050503d805f8114610c87576040519150601f19603f3d011682016040523d82523d5f602084013e610c8c565b606091505b5050905080610ccf5760405162461bcd60e51b815260206004820152600f60248201526e151c985b9cd9995c8819985a5b1959608a1b60448201526064016103cc565b505050610cdb60015f55565b5050565b610ce7610f10565b6001600160a01b038116610d1057604051631e4fbdf760e01b81525f60048201526024016103cc565b61075681610f94565b5f8281526003602052604090206005810154600160801b900460ff16610d755760405162461bcd60e51b8152602060048201526011602482015270426574206973206e6f742061637469766560781b60448201526064016103cc565b60028101546001600160a01b031615610dc75760405162461bcd60e51b815260206004820152601460248201527310995d08185b1c9958591e481858d8d95c1d195960621b60448201526064016103cc565b60058101546001600160801b03163414610e165760405162461bcd60e51b815260206004820152601060248201526f0a6e8c2d6ca40daeae6e840dac2e8c6d60831b60448201526064016103cc565b80600301548203610e695760405162461bcd60e51b815260206004820152601760248201527f43686f696365206d757374206265206f70706f7369746500000000000000000060448201526064016103cc565b6002810180546001600160a01b03191633179055600481018290556005810180543491905f90610ea39084906001600160801b0316611117565b92506101000a8154816001600160801b0302191690836001600160801b03160217905550336001600160a01b0316837f2210b79a525b03013b38fa6844f45ce06146f62c5f2a8beafc1605f4f87e17b584604051610f0391815260200190565b60405180910390a3505050565b6001546001600160a01b031633146109be5760405163118cdaa760e01b81523360048201526024016103cc565b60025f5403610f8e5760405162461bcd60e51b815260206004820152601f60248201527f5265656e7472616e637947756172643a207265656e7472616e742063616c6c0060448201526064016103cc565b60025f55565b600180546001600160a01b038381166001600160a01b0319831681179093556040519116919082907f8be0079c531659141344cd1fd0a4f28419497f9722a3daafe3b4186f6b6457e0905f90a35050565b80356001600160a01b0381168114610ffb575f80fd5b919050565b5f60208284031215611010575f80fd5b61101982610fe5565b9392505050565b5f60208284031215611030575f80fd5b5035919050565b5f805f60608486031215611049575f80fd5b833592506020840135915061106060408501610fe5565b90509250925092565b5f806040838503121561107a575f80fd5b8235915061108a60208401610fe5565b90509250929050565b5f80604083850312156110a4575f80fd5b50508035926020909101359150565b634e487b7160e01b5f52601160045260245ffd5b5f826110e157634e487b7160e01b5f52601260045260245ffd5b500490565b818103818111156110f9576110f96110b3565b92915050565b5f60018201611110576111106110b3565b5060010190565b6001600160801b0381811683821601908111156110f9576110f96110b356fea2646970667358221220fa8b50602ea45cc898c979cc0232d57679610f1001ba28026305e223c5b38e3264736f6c634300081a0033",
					"opcodes": "PUSH1 0x80 PUSH1 0x40 MSTORE CALLVALUE DUP1 ISZERO PUSH2 0xF JUMPI PUSH0 DUP1 REVERT JUMPDEST POP PUSH1 0x40 MLOAD PUSH2 0x12FD CODESIZE SUB DUP1 PUSH2 0x12FD DUP4 CODECOPY DUP2 ADD PUSH1 0x40 DUP2 SWAP1 MSTORE PUSH2 0x2E SWAP2 PUSH2 0x157 JUMP JUMPDEST PUSH1 0x1 PUSH0 SSTORE CALLER DUP1 PUSH2 0x58 JUMPI PUSH1 0x40 MLOAD PUSH4 0x1E4FBDF7 PUSH1 0xE0 SHL DUP2 MSTORE PUSH0 PUSH1 0x4 DUP3 ADD MSTORE PUSH1 0x24 ADD JUMPDEST PUSH1 0x40 MLOAD DUP1 SWAP2 SUB SWAP1 REVERT JUMPDEST PUSH2 0x61 DUP2 PUSH2 0x106 JUMP JUMPDEST POP PUSH1 0x1 PUSH1 0x1 PUSH1 0xA0 SHL SUB DUP2 AND PUSH2 0xB8 JUMPI PUSH1 0x40 MLOAD PUSH3 0x461BCD PUSH1 0xE5 SHL DUP2 MSTORE PUSH1 0x20 PUSH1 0x4 DUP3 ADD MSTORE PUSH1 0x16 PUSH1 0x24 DUP3 ADD MSTORE PUSH32 0x496E76616C6964206F7261636C65206164647265737300000000000000000000 PUSH1 0x44 DUP3 ADD MSTORE PUSH1 0x64 ADD PUSH2 0x4F JUMP JUMPDEST PUSH1 0x2 DUP1 SLOAD PUSH1 0x1 PUSH1 0x1 PUSH1 0xA0 SHL SUB NOT AND PUSH1 0x1 PUSH1 0x1 PUSH1 0xA0 SHL SUB DUP4 AND SWAP1 DUP2 OR SWAP1 SWAP2 SSTORE PUSH1 0x40 MLOAD PUSH0 SWAP1 PUSH32 0x78C3B417DADF69374A59793B829C52001247130433427049317BDE56607B1B7 SWAP1 DUP3 SWAP1 LOG3 POP PUSH2 0x184 JUMP JUMPDEST PUSH1 0x1 DUP1 SLOAD PUSH1 0x1 PUSH1 0x1 PUSH1 0xA0 SHL SUB DUP4 DUP2 AND PUSH1 0x1 PUSH1 0x1 PUSH1 0xA0 SHL SUB NOT DUP4 AND DUP2 OR SWAP1 SWAP4 SSTORE PUSH1 0x40 MLOAD SWAP2 AND SWAP2 SWAP1 DUP3 SWAP1 PUSH32 0x8BE0079C531659141344CD1FD0A4F28419497F9722A3DAAFE3B4186F6B6457E0 SWAP1 PUSH0 SWAP1 LOG3 POP POP JUMP JUMPDEST PUSH0 PUSH1 0x20 DUP3 DUP5 SUB SLT ISZERO PUSH2 0x167 JUMPI PUSH0 DUP1 REVERT JUMPDEST DUP2 MLOAD PUSH1 0x1 PUSH1 0x1 PUSH1 0xA0 SHL SUB DUP2 AND DUP2 EQ PUSH2 0x17D JUMPI PUSH0 DUP1 REVERT JUMPDEST SWAP4 SWAP3 POP POP POP JUMP JUMPDEST PUSH2 0x116C DUP1 PUSH2 0x191 PUSH0 CODECOPY PUSH0 RETURN INVALID PUSH1 0x80 PUSH1 0x40 MSTORE PUSH1 0x4 CALLDATASIZE LT PUSH2 0xD9 JUMPI PUSH0 CALLDATALOAD PUSH1 0xE0 SHR DUP1 PUSH4 0x8DA5CB5B GT PUSH2 0x7C JUMPI DUP1 PUSH4 0xA89AE4BA GT PUSH2 0x57 JUMPI DUP1 PUSH4 0xA89AE4BA EQ PUSH2 0x2F1 JUMPI DUP1 PUSH4 0xF2FDE38B EQ PUSH2 0x310 JUMPI DUP1 PUSH4 0xF4AA99DF EQ PUSH2 0x32F JUMPI DUP1 PUSH4 0xFFFC7801 EQ PUSH2 0x342 JUMPI PUSH0 DUP1 REVERT JUMPDEST DUP1 PUSH4 0x8DA5CB5B EQ PUSH2 0x1DC JUMPI DUP1 PUSH4 0xA0946F92 EQ PUSH2 0x20D JUMPI DUP1 PUSH4 0xA416F5AB EQ PUSH2 0x2DC JUMPI PUSH0 DUP1 REVERT JUMPDEST DUP1 PUSH4 0x56FCB255 GT PUSH2 0xB7 JUMPI DUP1 PUSH4 0x56FCB255 EQ PUSH2 0x177 JUMPI DUP1 PUSH4 0x6D4E0C8E EQ PUSH2 0x196 JUMPI DUP1 PUSH4 0x715018A6 EQ PUSH2 0x1A9 JUMPI DUP1 PUSH4 0x7D25E89D EQ PUSH2 0x1BD JUMPI PUSH0 DUP1 REVERT JUMPDEST DUP1 PUSH4 0x16C30EBC EQ PUSH2 0xDD JUMPI DUP1 PUSH4 0x1CB44DFC EQ PUSH2 0x123 JUMPI DUP1 PUSH4 0x530ADBB4 EQ PUSH2 0x144 JUMPI JUMPDEST PUSH0 DUP1 REVERT JUMPDEST CALLVALUE DUP1 ISZERO PUSH2 0xE8 JUMPI PUSH0 DUP1 REVERT JUMPDEST POP PUSH2 0x110 PUSH32 0x326D994CDB81AACCB84AA1F62BAE636DC0AAF98AB22F66B0C9224F1EDCCD7CC9 DUP2 JUMP JUMPDEST PUSH1 0x40 MLOAD SWAP1 DUP2 MSTORE PUSH1 0x20 ADD JUMPDEST PUSH1 0x40 MLOAD DUP1 SWAP2 SUB SWAP1 RETURN JUMPDEST CALLVALUE DUP1 ISZERO PUSH2 0x12E JUMPI PUSH0 DUP1 REVERT JUMPDEST POP PUSH2 0x142 PUSH2 0x13D CALLDATASIZE PUSH1 0x4 PUSH2 0x1000 JUMP JUMPDEST PUSH2 0x379 JUMP JUMPDEST STOP JUMPDEST CALLVALUE DUP1 ISZERO PUSH2 0x14F JUMPI PUSH0 DUP1 REVERT JUMPDEST POP PUSH2 0x110 PUSH32 0xAE8B6F0F354448B9BED217DCBB6EFFC6CC52560477CD31206503FBD937F7A378 DUP2 JUMP JUMPDEST CALLVALUE DUP1 ISZERO PUSH2 0x182 JUMPI PUSH0 DUP1 REVERT JUMPDEST POP PUSH2 0x142 PUSH2 0x191 CALLDATASIZE PUSH1 0x4 PUSH2 0x1020 JUMP JUMPDEST PUSH2 0x426 JUMP JUMPDEST PUSH2 0x142 PUSH2 0x1A4 CALLDATASIZE PUSH1 0x4 PUSH2 0x1037 JUMP JUMPDEST PUSH2 0x759 JUMP JUMPDEST CALLVALUE DUP1 ISZERO PUSH2 0x1B4 JUMPI PUSH0 DUP1 REVERT JUMPDEST POP PUSH2 0x142 PUSH2 0x9AD JUMP JUMPDEST CALLVALUE DUP1 ISZERO PUSH2 0x1C8 JUMPI PUSH0 DUP1 REVERT JUMPDEST POP PUSH2 0x142 PUSH2 0x1D7 CALLDATASIZE PUSH1 0x4 PUSH2 0x1069 JUMP JUMPDEST PUSH2 0x9C0 JUMP JUMPDEST CALLVALUE DUP1 ISZERO PUSH2 0x1E7 JUMPI PUSH0 DUP1 REVERT JUMPDEST POP PUSH1 0x1 SLOAD PUSH1 0x1 PUSH1 0x1 PUSH1 0xA0 SHL SUB AND JUMPDEST PUSH1 0x40 MLOAD PUSH1 0x1 PUSH1 0x1 PUSH1 0xA0 SHL SUB SWAP1 SWAP2 AND DUP2 MSTORE PUSH1 0x20 ADD PUSH2 0x11A JUMP JUMPDEST CALLVALUE DUP1 ISZERO PUSH2 0x218 JUMPI PUSH0 DUP1 REVERT JUMPDEST POP PUSH2 0x288 PUSH2 0x227 CALLDATASIZE PUSH1 0x4 PUSH2 0x1020 JUMP JUMPDEST PUSH1 0x3 PUSH1 0x20 DUP2 SWAP1 MSTORE PUSH0 SWAP2 DUP3 MSTORE PUSH1 0x40 SWAP1 SWAP2 KECCAK256 DUP1 SLOAD PUSH1 0x1 DUP3 ADD SLOAD PUSH1 0x2 DUP4 ADD SLOAD SWAP4 DUP4 ADD SLOAD PUSH1 0x4 DUP5 ADD SLOAD PUSH1 0x5 SWAP1 SWAP5 ADD SLOAD SWAP3 SWAP5 PUSH1 0x1 PUSH1 0x1 PUSH1 0xA0 SHL SUB SWAP3 DUP4 AND SWAP5 SWAP3 AND SWAP3 SWAP1 SWAP2 SWAP1 PUSH1 0x1 PUSH1 0x1 PUSH1 0x80 SHL SUB DUP2 AND SWAP1 PUSH1 0xFF PUSH1 0x1 PUSH1 0x80 SHL DUP3 DIV DUP2 AND SWAP2 PUSH1 0x1 PUSH1 0x88 SHL SWAP1 DIV AND DUP9 JUMP JUMPDEST PUSH1 0x40 DUP1 MLOAD SWAP9 DUP10 MSTORE PUSH1 0x1 PUSH1 0x1 PUSH1 0xA0 SHL SUB SWAP8 DUP9 AND PUSH1 0x20 DUP11 ADD MSTORE SWAP6 SWAP1 SWAP7 AND SWAP5 DUP8 ADD SWAP5 SWAP1 SWAP5 MSTORE PUSH1 0x60 DUP7 ADD SWAP3 SWAP1 SWAP3 MSTORE PUSH1 0x80 DUP6 ADD MSTORE PUSH1 0x1 PUSH1 0x1 PUSH1 0x80 SHL SUB AND PUSH1 0xA0 DUP5 ADD MSTORE ISZERO ISZERO PUSH1 0xC0 DUP4 ADD MSTORE ISZERO ISZERO PUSH1 0xE0 DUP3 ADD MSTORE PUSH2 0x100 ADD PUSH2 0x11A JUMP JUMPDEST CALLVALUE DUP1 ISZERO PUSH2 0x2E7 JUMPI PUSH0 DUP1 REVERT JUMPDEST POP PUSH2 0x110 PUSH1 0x4 SLOAD DUP2 JUMP JUMPDEST CALLVALUE DUP1 ISZERO PUSH2 0x2FC JUMPI PUSH0 DUP1 REVERT JUMPDEST POP PUSH1 0x2 SLOAD PUSH2 0x1F5 SWAP1 PUSH1 0x1 PUSH1 0x1 PUSH1 0xA0 SHL SUB AND DUP2 JUMP JUMPDEST CALLVALUE DUP1 ISZERO PUSH2 0x31B JUMPI PUSH0 DUP1 REVERT JUMPDEST POP PUSH2 0x142 PUSH2 0x32A CALLDATASIZE PUSH1 0x4 PUSH2 0x1000 JUMP JUMPDEST PUSH2 0xCDF JUMP JUMPDEST PUSH2 0x142 PUSH2 0x33D CALLDATASIZE PUSH1 0x4 PUSH2 0x1093 JUMP JUMPDEST PUSH2 0xD19 JUMP JUMPDEST CALLVALUE DUP1 ISZERO PUSH2 0x34D JUMPI PUSH0 DUP1 REVERT JUMPDEST POP PUSH2 0x110 PUSH2 0x35C CALLDATASIZE PUSH1 0x4 PUSH2 0x1020 JUMP JUMPDEST PUSH0 SWAP1 DUP2 MSTORE PUSH1 0x3 PUSH1 0x20 MSTORE PUSH1 0x40 SWAP1 KECCAK256 PUSH1 0x5 ADD SLOAD PUSH1 0x1 PUSH1 0x1 PUSH1 0x80 SHL SUB AND SWAP1 JUMP JUMPDEST PUSH2 0x381 PUSH2 0xF10 JUMP JUMPDEST PUSH1 0x1 PUSH1 0x1 PUSH1 0xA0 SHL SUB DUP2 AND PUSH2 0x3D5 JUMPI PUSH1 0x40 MLOAD PUSH3 0x461BCD PUSH1 0xE5 SHL DUP2 MSTORE PUSH1 0x20 PUSH1 0x4 DUP3 ADD MSTORE PUSH1 0x16 PUSH1 0x24 DUP3 ADD MSTORE PUSH22 0x496E76616C6964206F7261636C652061646472657373 PUSH1 0x50 SHL PUSH1 0x44 DUP3 ADD MSTORE PUSH1 0x64 ADD JUMPDEST PUSH1 0x40 MLOAD DUP1 SWAP2 SUB SWAP1 REVERT JUMPDEST PUSH1 0x2 DUP1 SLOAD PUSH1 0x1 PUSH1 0x1 PUSH1 0xA0 SHL SUB DUP4 DUP2 AND PUSH1 0x1 PUSH1 0x1 PUSH1 0xA0 SHL SUB NOT DUP4 AND DUP2 OR SWAP1 SWAP4 SSTORE PUSH1 0x40 MLOAD SWAP2 AND SWAP2 SWAP1 DUP3 SWAP1 PUSH32 0x78C3B417DADF69374A59793B829C52001247130433427049317BDE56607B1B7 SWAP1 PUSH0 SWAP1 LOG3 POP POP JUMP JUMPDEST PUSH2 0x42E PUSH2 0xF3D JUMP JUMPDEST PUSH1 0x2 SLOAD PUSH1 0x1 PUSH1 0x1 PUSH1 0xA0 SHL SUB AND CALLER EQ PUSH2 0x483 JUMPI PUSH1 0x40 MLOAD PUSH3 0x461BCD PUSH1 0xE5 SHL DUP2 MSTORE PUSH1 0x20 PUSH1 0x4 DUP3 ADD MSTORE PUSH1 0x18 PUSH1 0x24 DUP3 ADD MSTORE PUSH24 0x43616C6C6572206973206E6F7420746865206F7261636C65 PUSH1 0x40 SHL PUSH1 0x44 DUP3 ADD MSTORE PUSH1 0x64 ADD PUSH2 0x3CC JUMP JUMPDEST PUSH0 DUP2 DUP2 MSTORE PUSH1 0x3 PUSH1 0x20 MSTORE PUSH1 0x40 SWAP1 KECCAK256 PUSH1 0x5 DUP2 ADD SLOAD PUSH1 0x1 PUSH1 0x80 SHL SWAP1 DIV PUSH1 0xFF AND PUSH2 0x4E2 JUMPI PUSH1 0x40 MLOAD PUSH3 0x461BCD PUSH1 0xE5 SHL DUP2 MSTORE PUSH1 0x20 PUSH1 0x4 DUP3 ADD MSTORE PUSH1 0x14 PUSH1 0x24 DUP3 ADD MSTORE PUSH20 0x457363726F77206973206E6F7420616374697665 PUSH1 0x60 SHL PUSH1 0x44 DUP3 ADD MSTORE PUSH1 0x64 ADD PUSH2 0x3CC JUMP JUMPDEST PUSH1 0x5 DUP2 ADD SLOAD PUSH1 0x1 PUSH1 0x88 SHL SWAP1 DIV PUSH1 0xFF AND ISZERO PUSH2 0x535 JUMPI PUSH1 0x40 MLOAD PUSH3 0x461BCD PUSH1 0xE5 SHL DUP2 MSTORE PUSH1 0x20 PUSH1 0x4 DUP3 ADD MSTORE PUSH1 0x14 PUSH1 0x24 DUP3 ADD MSTORE PUSH20 0x10995D08185B1C9958591E481C995CDBDB1D9959 PUSH1 0x62 SHL PUSH1 0x44 DUP3 ADD MSTORE PUSH1 0x64 ADD PUSH2 0x3CC JUMP JUMPDEST PUSH1 0x2 DUP2 ADD SLOAD PUSH1 0x1 PUSH1 0x1 PUSH1 0xA0 SHL SUB AND PUSH2 0x582 JUMPI PUSH1 0x40 MLOAD PUSH3 0x461BCD PUSH1 0xE5 SHL DUP2 MSTORE PUSH1 0x20 PUSH1 0x4 DUP3 ADD MSTORE PUSH1 0x10 PUSH1 0x24 DUP3 ADD MSTORE PUSH16 0x10995D081B9BDD081858D8D95C1D1959 PUSH1 0x82 SHL PUSH1 0x44 DUP3 ADD MSTORE PUSH1 0x64 ADD PUSH2 0x3CC JUMP JUMPDEST PUSH1 0x5 DUP2 ADD SLOAD PUSH1 0x1 PUSH1 0x1 PUSH1 0x80 SHL SUB AND PUSH2 0x5D2 JUMPI PUSH1 0x40 MLOAD PUSH3 0x461BCD PUSH1 0xE5 SHL DUP2 MSTORE PUSH1 0x20 PUSH1 0x4 DUP3 ADD MSTORE PUSH1 0x13 PUSH1 0x24 DUP3 ADD MSTORE PUSH19 0x4E6F2066756E647320746F2072656C65617365 PUSH1 0x68 SHL PUSH1 0x44 DUP3 ADD MSTORE PUSH1 0x64 ADD PUSH2 0x3CC JUMP JUMPDEST PUSH1 0x5 DUP2 ADD DUP1 SLOAD PUSH2 0xFFFF PUSH1 0x80 SHL NOT DUP2 AND PUSH1 0x1 PUSH1 0x88 SHL OR SWAP1 SWAP2 SSTORE PUSH1 0x1 PUSH1 0x1 PUSH1 0x80 SHL SUB AND PUSH0 PUSH2 0x5FF PUSH1 0x2 DUP4 PUSH2 0x10C7 JUMP JUMPDEST SWAP1 POP PUSH0 PUSH2 0x60C DUP3 DUP5 PUSH2 0x10E6 JUMP JUMPDEST PUSH1 0x5 DUP6 ADD DUP1 SLOAD PUSH16 0xFFFFFFFFFFFFFFFFFFFFFFFFFFFFFFFF NOT AND SWAP1 SSTORE PUSH1 0x40 MLOAD SWAP1 SWAP2 POP DUP6 SWAP1 PUSH32 0x57B2458F42361FEEE979DA84B5231C7CDAA26D4BB556D06ACCB1ECA7EEC98ADA SWAP1 PUSH0 SWAP1 LOG2 PUSH1 0x1 DUP5 ADD SLOAD PUSH1 0x40 MLOAD PUSH0 SWAP2 PUSH1 0x1 PUSH1 0x1 PUSH1 0xA0 SHL SUB AND SWAP1 DUP5 SWAP1 DUP4 DUP2 DUP2 DUP2 DUP6 DUP8 GAS CALL SWAP3 POP POP POP RETURNDATASIZE DUP1 PUSH0 DUP2 EQ PUSH2 0x6A0 JUMPI PUSH1 0x40 MLOAD SWAP2 POP PUSH1 0x1F NOT PUSH1 0x3F RETURNDATASIZE ADD AND DUP3 ADD PUSH1 0x40 MSTORE RETURNDATASIZE DUP3 MSTORE RETURNDATASIZE PUSH0 PUSH1 0x20 DUP5 ADD RETURNDATACOPY PUSH2 0x6A5 JUMP JUMPDEST PUSH1 0x60 SWAP2 POP JUMPDEST POP POP PUSH1 0x2 DUP7 ADD SLOAD PUSH1 0x40 MLOAD SWAP2 SWAP3 POP PUSH0 SWAP2 PUSH1 0x1 PUSH1 0x1 PUSH1 0xA0 SHL SUB SWAP1 SWAP2 AND SWAP1 DUP5 SWAP1 DUP4 DUP2 DUP2 DUP2 DUP6 DUP8 GAS CALL SWAP3 POP POP POP RETURNDATASIZE DUP1 PUSH0 DUP2 EQ PUSH2 0x6F8 JUMPI PUSH1 0x40 MLOAD SWAP2 POP PUSH1 0x1F NOT PUSH1 0x3F RETURNDATASIZE ADD AND DUP3 ADD PUSH1 0x40 MSTORE RETURNDATASIZE DUP3 MSTORE RETURNDATASIZE PUSH0 PUSH1 0x20 DUP5 ADD RETURNDATACOPY PUSH2 0x6FD JUMP JUMPDEST PUSH1 0x60 SWAP2 POP JUMPDEST POP POP SWAP1 POP DUP2 DUP1 ISZERO PUSH2 0x70B JUMPI POP DUP1 JUMPDEST PUSH2 0x747 JUMPI PUSH1 0x40 MLOAD PUSH3 0x461BCD PUSH1 0xE5 SHL DUP2 MSTORE PUSH1 0x20 PUSH1 0x4 DUP3 ADD MSTORE PUSH1 0xD PUSH1 0x24 DUP3 ADD MSTORE PUSH13 0x1499599D5B990819985A5B1959 PUSH1 0x9A SHL PUSH1 0x44 DUP3 ADD MSTORE PUSH1 0x64 ADD PUSH2 0x3CC JUMP JUMPDEST POP POP POP POP POP POP PUSH2 0x756 PUSH1 0x1 PUSH0 SSTORE JUMP JUMPDEST POP JUMP JUMPDEST PUSH0 CALLVALUE GT PUSH2 0x79A JUMPI PUSH1 0x40 MLOAD PUSH3 0x461BCD PUSH1 0xE5 SHL DUP2 MSTORE PUSH1 0x20 PUSH1 0x4 DUP3 ADD MSTORE PUSH1 0xF PUSH1 0x24 DUP3 ADD MSTORE PUSH15 0x125B9D985B1A590819195C1BDCDA5D PUSH1 0x8A SHL PUSH1 0x44 DUP3 ADD MSTORE PUSH1 0x64 ADD PUSH2 0x3CC JUMP JUMPDEST PUSH1 0x1 PUSH1 0x1 PUSH1 0x80 SHL SUB CALLVALUE GT ISZERO PUSH2 0x7E4 JUMPI PUSH1 0x40 MLOAD PUSH3 0x461BCD PUSH1 0xE5 SHL DUP2 MSTORE PUSH1 0x20 PUSH1 0x4 DUP3 ADD MSTORE PUSH1 0x10 PUSH1 0x24 DUP3 ADD MSTORE PUSH16 0x416D6F756E7420746F6F206C61726765 PUSH1 0x80 SHL PUSH1 0x44 DUP3 ADD MSTORE PUSH1 0x64 ADD PUSH2 0x3CC JUMP JUMPDEST PUSH1 0x1 PUSH1 0x1 PUSH1 0xA0 SHL SUB DUP2 AND PUSH2 0x83A JUMPI PUSH1 0x40 MLOAD PUSH3 0x461BCD PUSH1 0xE5 SHL DUP2 MSTORE PUSH1 0x20 PUSH1 0x4 DUP3 ADD MSTORE PUSH1 0x18 PUSH1 0x24 DUP3 ADD MSTORE PUSH32 0x496E76616C6964206163636570746F7220616464726573730000000000000000 PUSH1 0x44 DUP3 ADD MSTORE PUSH1 0x64 ADD PUSH2 0x3CC JUMP JUMPDEST CALLER PUSH1 0x1 PUSH1 0x1 PUSH1 0xA0 SHL SUB DUP3 AND SUB PUSH2 0x88A JUMPI PUSH1 0x40 MLOAD PUSH3 0x461BCD PUSH1 0xE5 SHL DUP2 MSTORE PUSH1 0x20 PUSH1 0x4 DUP3 ADD MSTORE PUSH1 0x15 PUSH1 0x24 DUP3 ADD MSTORE PUSH21 0x10D85B9B9BDD081858D8D95C1D081BDDDB8818995D PUSH1 0x5A SHL PUSH1 0x44 DUP3 ADD MSTORE PUSH1 0x64 ADD PUSH2 0x3CC JUMP JUMPDEST PUSH1 0x4 DUP1 SLOAD PUSH0 SWAP2 DUP3 PUSH2 0x89A DUP4 PUSH2 0x10FF JUMP JUMPDEST SWAP1 SWAP2 SSTORE POP PUSH1 0x40 DUP1 MLOAD PUSH1 0x20 DUP2 ADD SWAP3 SWAP1 SWAP3 MSTORE PUSH12 0xFFFFFFFFFFFFFFFFFFFFFFFF NOT CALLER PUSH1 0x60 SHL AND SWAP1 DUP3 ADD MSTORE PUSH1 0x54 ADD PUSH1 0x40 DUP1 MLOAD PUSH1 0x1F NOT DUP2 DUP5 SUB ADD DUP2 MSTORE DUP3 DUP3 MSTORE DUP1 MLOAD PUSH1 0x20 SWAP2 DUP3 ADD KECCAK256 PUSH0 DUP2 DUP2 MSTORE PUSH1 0x3 DUP1 DUP5 MSTORE SWAP1 DUP5 SWAP1 KECCAK256 DUP10 DUP2 SSTORE PUSH1 0x1 DUP2 ADD DUP1 SLOAD PUSH1 0x1 PUSH1 0x1 PUSH1 0xA0 SHL SUB NOT AND CALLER SWAP1 DUP2 OR SWAP1 SWAP2 SSTORE SWAP2 DUP2 ADD DUP10 SWAP1 SSTORE PUSH1 0x5 DUP2 ADD DUP1 SLOAD PUSH17 0xFFFFFFFFFFFFFFFFFFFFFFFFFFFFFFFFFF NOT AND PUSH1 0x1 PUSH1 0x1 PUSH1 0x80 SHL SUB CALLVALUE SWAP1 DUP2 AND SWAP2 SWAP1 SWAP2 OR PUSH1 0x1 PUSH1 0x80 SHL OR SWAP1 SWAP2 SSTORE PUSH32 0x326D994CDB81AACCB84AA1F62BAE636DC0AAF98AB22F66B0C9224F1EDCCD7CC9 DUP8 MSTORE SWAP4 DUP7 ADD DUP11 SWAP1 MSTORE SWAP4 DUP6 ADD DUP9 SWAP1 MSTORE PUSH1 0x60 DUP6 ADD SWAP3 SWAP1 SWAP3 MSTORE SWAP4 POP SWAP1 SWAP2 DUP4 SWAP1 PUSH32 0x9D5E739E1C9FC40E31321ED7800925B6C7A9A458FC4C4708A66F96AA00778D9C SWAP1 PUSH1 0x80 ADD PUSH1 0x40 MLOAD DUP1 SWAP2 SUB SWAP1 LOG3 POP POP POP POP POP JUMP JUMPDEST PUSH2 0x9B5 PUSH2 0xF10 JUMP JUMPDEST PUSH2 0x9BE PUSH0 PUSH2 0xF94 JUMP JUMPDEST JUMP JUMPDEST PUSH2 0x9C8 PUSH2 0xF3D JUMP JUMPDEST PUSH1 0x2 SLOAD PUSH1 0x1 PUSH1 0x1 PUSH1 0xA0 SHL SUB AND CALLER EQ PUSH2 0xA1D JUMPI PUSH1 0x40 MLOAD PUSH3 0x461BCD PUSH1 0xE5 SHL DUP2 MSTORE PUSH1 0x20 PUSH1 0x4 DUP3 ADD MSTORE PUSH1 0x18 PUSH1 0x24 DUP3 ADD MSTORE PUSH24 0x43616C6C6572206973206E6F7420746865206F7261636C65 PUSH1 0x40 SHL PUSH1 0x44 DUP3 ADD MSTORE PUSH1 0x64 ADD PUSH2 0x3CC JUMP JUMPDEST PUSH0 DUP3 DUP2 MSTORE PUSH1 0x3 PUSH1 0x20 MSTORE PUSH1 0x40 SWAP1 KECCAK256 PUSH1 0x5 DUP2 ADD SLOAD PUSH1 0x1 PUSH1 0x80 SHL SWAP1 DIV PUSH1 0xFF AND PUSH2 0xA7C JUMPI PUSH1 0x40 MLOAD PUSH3 0x461BCD PUSH1 0xE5 SHL DUP2 MSTORE PUSH1 0x20 PUSH1 0x4 DUP3 ADD MSTORE PUSH1 0x14 PUSH1 0x24 DUP3 ADD MSTORE PUSH20 0x457363726F77206973206E6F7420616374697665 PUSH1 0x60 SHL PUSH1 0x44 DUP3 ADD MSTORE PUSH1 0x64 ADD PUSH2 0x3CC JUMP JUMPDEST PUSH1 0x5 DUP2 ADD SLOAD PUSH1 0x1 PUSH1 0x88 SHL SWAP1 DIV PUSH1 0xFF AND ISZERO PUSH2 0xACF JUMPI PUSH1 0x40 MLOAD PUSH3 0x461BCD PUSH1 0xE5 SHL DUP2 MSTORE PUSH1 0x20 PUSH1 0x4 DUP3 ADD MSTORE PUSH1 0x14 PUSH1 0x24 DUP3 ADD MSTORE PUSH20 0x10995D08185B1C9958591E481C995CDBDB1D9959 PUSH1 0x62 SHL PUSH1 0x44 DUP3 ADD MSTORE PUSH1 0x64 ADD PUSH2 0x3CC JUMP JUMPDEST PUSH1 0x2 DUP2 ADD SLOAD PUSH1 0x1 PUSH1 0x1 PUSH1 0xA0 SHL SUB AND PUSH2 0xB1C JUMPI PUSH1 0x40 MLOAD PUSH3 0x461BCD PUSH1 0xE5 SHL DUP2 MSTORE PUSH1 0x20 PUSH1 0x4 DUP3 ADD MSTORE PUSH1 0x10 PUSH1 0x24 DUP3 ADD MSTORE PUSH16 0x10995D081B9BDD081858D8D95C1D1959 PUSH1 0x82 SHL PUSH1 0x44 DUP3 ADD MSTORE PUSH1 0x64 ADD PUSH2 0x3CC JUMP JUMPDEST PUSH1 0x5 DUP2 ADD SLOAD PUSH1 0x1 PUSH1 0x1 PUSH1 0x80 SHL SUB AND PUSH2 0xB6C JUMPI PUSH1 0x40 MLOAD PUSH3 0x461BCD PUSH1 0xE5 SHL DUP2 MSTORE PUSH1 0x20 PUSH1 0x4 DUP3 ADD MSTORE PUSH1 0x13 PUSH1 0x24 DUP3 ADD MSTORE PUSH19 0x4E6F2066756E647320746F2072656C65617365 PUSH1 0x68 SHL PUSH1 0x44 DUP3 ADD MSTORE PUSH1 0x64 ADD PUSH2 0x3CC JUMP JUMPDEST PUSH1 0x1 DUP2 ADD SLOAD PUSH1 0x1 PUSH1 0x1 PUSH1 0xA0 SHL SUB DUP4 DUP2 AND SWAP2 AND EQ DUP1 PUSH2 0xB99 JUMPI POP PUSH1 0x2 DUP2 ADD SLOAD PUSH1 0x1 PUSH1 0x1 PUSH1 0xA0 SHL SUB DUP4 DUP2 AND SWAP2 AND EQ JUMPDEST PUSH2 0xBD6 JUMPI PUSH1 0x40 MLOAD PUSH3 0x461BCD PUSH1 0xE5 SHL DUP2 MSTORE PUSH1 0x20 PUSH1 0x4 DUP3 ADD MSTORE PUSH1 0xE PUSH1 0x24 DUP3 ADD MSTORE PUSH14 0x24B73B30B634B2103BB4B73732B9 PUSH1 0x91 SHL PUSH1 0x44 DUP3 ADD MSTORE PUSH1 0x64 ADD PUSH2 0x3CC JUMP JUMPDEST PUSH1 0x5 DUP2 ADD DUP1 SLOAD PUSH18 0xFFFFFFFFFFFFFFFFFFFFFFFFFFFFFFFFFFFF NOT DUP2 AND PUSH1 0x1 PUSH1 0x88 SHL OR SWAP1 SWAP2 SSTORE PUSH1 0x40 MLOAD PUSH1 0x1 PUSH1 0x1 PUSH1 0x80 SHL SUB SWAP1 SWAP2 AND SWAP1 PUSH1 0x1 PUSH1 0x1 PUSH1 0xA0 SHL SUB DUP5 AND SWAP1 DUP3 SWAP1 DUP7 SWAP1 PUSH32 0xA20198858D673AC3CF5D6F62C85CB502C39AF8269735C0EF6774AFF58154A429 SWAP1 PUSH0 SWAP1 LOG4 PUSH0 DUP4 PUSH1 0x1 PUSH1 0x1 PUSH1 0xA0 SHL SUB AND DUP3 PUSH1 0x40 MLOAD PUSH0 PUSH1 0x40 MLOAD DUP1 DUP4 SUB DUP2 DUP6 DUP8 GAS CALL SWAP3 POP POP POP RETURNDATASIZE DUP1 PUSH0 DUP2 EQ PUSH2 0xC87 JUMPI PUSH1 0x40 MLOAD SWAP2 POP PUSH1 0x1F NOT PUSH1 0x3F RETURNDATASIZE ADD AND DUP3 ADD PUSH1 0x40 MSTORE RETURNDATASIZE DUP3 MSTORE RETURNDATASIZE PUSH0 PUSH1 0x20 DUP5 ADD RETURNDATACOPY PUSH2 0xC8C JUMP JUMPDEST PUSH1 0x60 SWAP2 POP JUMPDEST POP POP SWAP1 POP DUP1 PUSH2 0xCCF JUMPI PUSH1 0x40 MLOAD PUSH3 0x461BCD PUSH1 0xE5 SHL DUP2 MSTORE PUSH1 0x20 PUSH1 0x4 DUP3 ADD MSTORE PUSH1 0xF PUSH1 0x24 DUP3 ADD MSTORE PUSH15 0x151C985B9CD9995C8819985A5B1959 PUSH1 0x8A SHL PUSH1 0x44 DUP3 ADD MSTORE PUSH1 0x64 ADD PUSH2 0x3CC JUMP JUMPDEST POP POP POP PUSH2 0xCDB PUSH1 0x1 PUSH0 SSTORE JUMP JUMPDEST POP POP JUMP JUMPDEST PUSH2 0xCE7 PUSH2 0xF10 JUMP JUMPDEST PUSH1 0x1 PUSH1 0x1 PUSH1 0xA0 SHL SUB DUP2 AND PUSH2 0xD10 JUMPI PUSH1 0x40 MLOAD PUSH4 0x1E4FBDF7 PUSH1 0xE0 SHL DUP2 MSTORE PUSH0 PUSH1 0x4 DUP3 ADD MSTORE PUSH1 0x24 ADD PUSH2 0x3CC JUMP JUMPDEST PUSH2 0x756 DUP2 PUSH2 0xF94 JUMP JUMPDEST PUSH0 DUP3 DUP2 MSTORE PUSH1 0x3 PUSH1 0x20 MSTORE PUSH1 0x40 SWAP1 KECCAK256 PUSH1 0x5 DUP2 ADD SLOAD PUSH1 0x1 PUSH1 0x80 SHL SWAP1 DIV PUSH1 0xFF AND PUSH2 0xD75 JUMPI PUSH1 0x40 MLOAD PUSH3 0x461BCD PUSH1 0xE5 SHL DUP2 MSTORE PUSH1 0x20 PUSH1 0x4 DUP3 ADD MSTORE PUSH1 0x11 PUSH1 0x24 DUP3 ADD MSTORE PUSH17 0x426574206973206E6F7420616374697665 PUSH1 0x78 SHL PUSH1 0x44 DUP3 ADD MSTORE PUSH1 0x64 ADD PUSH2 0x3CC JUMP JUMPDEST PUSH1 0x2 DUP2 ADD SLOAD PUSH1 0x1 PUSH1 0x1 PUSH1 0xA0 SHL SUB AND ISZERO PUSH2 0xDC7 JUMPI PUSH1 0x40 MLOAD PUSH3 0x461BCD PUSH1 0xE5 SHL DUP2 MSTORE PUSH1 0x20 PUSH1 0x4 DUP3 ADD MSTORE PUSH1 0x14 PUSH1 0x24 DUP3 ADD MSTORE PUSH20 0x10995D08185B1C9958591E481858D8D95C1D1959 PUSH1 0x62 SHL PUSH1 0x44 DUP3 ADD MSTORE PUSH1 0x64 ADD PUSH2 0x3CC JUMP JUMPDEST PUSH1 0x5 DUP2 ADD SLOAD PUSH1 0x1 PUSH1 0x1 PUSH1 0x80 SHL SUB AND CALLVALUE EQ PUSH2 0xE16 JUMPI PUSH1 0x40 MLOAD PUSH3 0x461BCD PUSH1 0xE5 SHL DUP2 MSTORE PUSH1 0x20 PUSH1 0x4 DUP3 ADD MSTORE PUSH1 0x10 PUSH1 0x24 DUP3 ADD MSTORE PUSH16 0xA6E8C2D6CA40DAEAE6E840DAC2E8C6D PUSH1 0x83 SHL PUSH1 0x44 DUP3 ADD MSTORE PUSH1 0x64 ADD PUSH2 0x3CC JUMP JUMPDEST DUP1 PUSH1 0x3 ADD SLOAD DUP3 SUB PUSH2 0xE69 JUMPI PUSH1 0x40 MLOAD PUSH3 0x461BCD PUSH1 0xE5 SHL DUP2 MSTORE PUSH1 0x20 PUSH1 0x4 DUP3 ADD MSTORE PUSH1 0x17 PUSH1 0x24 DUP3 ADD MSTORE PUSH32 0x43686F696365206D757374206265206F70706F73697465000000000000000000 PUSH1 0x44 DUP3 ADD MSTORE PUSH1 0x64 ADD PUSH2 0x3CC JUMP JUMPDEST PUSH1 0x2 DUP2 ADD DUP1 SLOAD PUSH1 0x1 PUSH1 0x1 PUSH1 0xA0 SHL SUB NOT AND CALLER OR SWAP1 SSTORE PUSH1 0x4 DUP2 ADD DUP3 SWAP1 SSTORE PUSH1 0x5 DUP2 ADD DUP1 SLOAD CALLVALUE SWAP2 SWAP1 PUSH0 SWAP1 PUSH2 0xEA3 SWAP1 DUP5 SWAP1 PUSH1 0x1 PUSH1 0x1 PUSH1 0x80 SHL SUB AND PUSH2 0x1117 JUMP JUMPDEST SWAP3 POP PUSH2 0x100 EXP DUP2 SLOAD DUP2 PUSH1 0x1 PUSH1 0x1 PUSH1 0x80 SHL SUB MUL NOT AND SWAP1 DUP4 PUSH1 0x1 PUSH1 0x1 PUSH1 0x80 SHL SUB AND MUL OR SWAP1 SSTORE POP CALLER PUSH1 0x1 PUSH1 0x1 PUSH1 0xA0 SHL SUB AND DUP4 PUSH32 0x2210B79A525B03013B38FA6844F45CE06146F62C5F2A8BEAFC1605F4F87E17B5 DUP5 PUSH1 0x40 MLOAD PUSH2 0xF03 SWAP2 DUP2 MSTORE PUSH1 0x20 ADD SWAP1 JUMP JUMPDEST PUSH1 0x40 MLOAD DUP1 SWAP2 SUB SWAP1 LOG3 POP POP POP JUMP JUMPDEST PUSH1 0x1 SLOAD PUSH1 0x1 PUSH1 0x1 PUSH1 0xA0 SHL SUB AND CALLER EQ PUSH2 0x9BE JUMPI PUSH1 0x40 MLOAD PUSH4 0x118CDAA7 PUSH1 0xE0 SHL DUP2 MSTORE CALLER PUSH1 0x4 DUP3 ADD MSTORE PUSH1 0x24 ADD PUSH2 0x3CC JUMP JUMPDEST PUSH1 0x2 PUSH0 SLOAD SUB PUSH2 0xF8E JUMPI PUSH1 0x40 MLOAD PUSH3 0x461BCD PUSH1 0xE5 SHL DUP2 MSTORE PUSH1 0x20 PUSH1 0x4 DUP3 ADD MSTORE PUSH1 0x1F PUSH1 0x24 DUP3 ADD MSTORE PUSH32 0x5265656E7472616E637947756172643A207265656E7472616E742063616C6C00 PUSH1 0x44 DUP3 ADD MSTORE PUSH1 0x64 ADD PUSH2 0x3CC JUMP JUMPDEST PUSH1 0x2 PUSH0 SSTORE JUMP JUMPDEST PUSH1 0x1 DUP1 SLOAD PUSH1 0x1 PUSH1 0x1 PUSH1 0xA0 SHL SUB DUP4 DUP2 AND PUSH1 0x1 PUSH1 0x1 PUSH1 0xA0 SHL SUB NOT DUP4 AND DUP2 OR SWAP1 SWAP4 SSTORE PUSH1 0x40 MLOAD SWAP2 AND SWAP2 SWAP1 DUP3 SWAP1 PUSH32 0x8BE0079C531659141344CD1FD0A4F28419497F9722A3DAAFE3B4186F6B6457E0 SWAP1 PUSH0 SWAP1 LOG3 POP POP JUMP JUMPDEST DUP1 CALLDATALOAD PUSH1 0x1 PUSH1 0x1 PUSH1 0xA0 SHL SUB DUP2 AND DUP2 EQ PUSH2 0xFFB JUMPI PUSH0 DUP1 REVERT JUMPDEST SWAP2 SWAP1 POP JUMP JUMPDEST PUSH0 PUSH1 0x20 DUP3 DUP5 SUB SLT ISZERO PUSH2 0x1010 JUMPI PUSH0 DUP1 REVERT JUMPDEST PUSH2 0x1019 DUP3 PUSH2 0xFE5 JUMP JUMPDEST SWAP4 SWAP3 POP POP POP JUMP JUMPDEST PUSH0 PUSH1 0x20 DUP3 DUP5 SUB SLT ISZERO PUSH2 0x1030 JUMPI PUSH0 DUP1 REVERT JUMPDEST POP CALLDATALOAD SWAP2 SWAP1 POP JUMP JUMPDEST PUSH0 DUP1 PUSH0 PUSH1 0x60 DUP5 DUP7 SUB SLT ISZERO PUSH2 0x1049 JUMPI PUSH0 DUP1 REVERT JUMPDEST DUP4 CALLDATALOAD SWAP3 POP PUSH1 0x20 DUP5 ADD CALLDATALOAD SWAP2 POP PUSH2 0x1060 PUSH1 0x40 DUP6 ADD PUSH2 0xFE5 JUMP JUMPDEST SWAP1 POP SWAP3 POP SWAP3 POP SWAP3 JUMP JUMPDEST PUSH0 DUP1 PUSH1 0x40 DUP4 DUP6 SUB SLT ISZERO PUSH2 0x107A JUMPI PUSH0 DUP1 REVERT JUMPDEST DUP3 CALLDATALOAD SWAP2 POP PUSH2 0x108A PUSH1 0x20 DUP5 ADD PUSH2 0xFE5 JUMP JUMPDEST SWAP1 POP SWAP3 POP SWAP3 SWAP1 POP JUMP JUMPDEST PUSH0 DUP1 PUSH1 0x40 DUP4 DUP6 SUB SLT ISZERO PUSH2 0x10A4 JUMPI PUSH0 DUP1 REVERT JUMPDEST POP POP DUP1 CALLDATALOAD SWAP3 PUSH1 0x20 SWAP1 SWAP2 ADD CALLDATALOAD SWAP2 POP JUMP JUMPDEST PUSH4 0x4E487B71 PUSH1 0xE0 SHL PUSH0 MSTORE PUSH1 0x11 PUSH1 0x4 MSTORE PUSH1 0x24 PUSH0 REVERT JUMPDEST PUSH0 DUP3 PUSH2 0x10E1 JUMPI PUSH4 0x4E487B71 PUSH1 0xE0 SHL PUSH0 MSTORE PUSH1 0x12 PUSH1 0x4 MSTORE PUSH1 0x24 PUSH0 REVERT JUMPDEST POP DIV SWAP1 JUMP JUMPDEST DUP2 DUP2 SUB DUP2 DUP2 GT ISZERO PUSH2 0x10F9 JUMPI PUSH2 0x10F9 PUSH2 0x10B3 JUMP JUMPDEST SWAP3 SWAP2 POP POP JUMP JUMPDEST PUSH0 PUSH1 0x1 DUP3 ADD PUSH2 0x1110 JUMPI PUSH2 0x1110 PUSH2 0x10B3 JUMP JUMPDEST POP PUSH1 0x1 ADD SWAP1 JUMP JUMPDEST PUSH1 0x1 PUSH1 0x1 PUSH1 0x80 SHL SUB DUP2 DUP2 AND DUP4 DUP3 AND ADD SWAP1 DUP2 GT ISZERO PUSH2 0x10F9 JUMPI PUSH2 0x10F9 PUSH2 0x10B3 JUMP INVALID LOG2 PUSH5 0x6970667358 0x22 SLT KECCAK256 STATICCALL DUP12 POP PUSH1 0x2E LOG4 TLOAD 0xC8 SWAP9 0xC9 PUSH26 0xCC0232D57679610F1001BA28026305E223C5B38E3264736F6C63 NUMBER STOP ADDMOD BYTE STOP CALLER "
				},
				"gasEstimates": {
					"creation": {
						"codeDepositCost": "892000",
						"executionCost": "infinite",
						"totalCost": "infinite"
					},
					"external": {
						"CHALLENGER_ROLE()": "251",
						"PLAYER_ROLE()": "207",
						"acceptBet(bytes32,bytes32)": "83659",
						"betCounter()": "2350",
						"declareDraw(bytes32)": "infinite",
						"escrowStorage(bytes32)": "13356",
						"getCurrentBalance(bytes32)": "2536",
						"oracleAddress()": "2358",
						"owner()": "2342",
						"releaseFunds(bytes32,address)": "infinite",
						"renounceOwnership()": "infinite",
						"storeTokens(bytes32,bytes32,address)": "120444",
						"transferOwnership(address)": "28377",
						"updateOracle(address)": "28350"
					}
				},
				"methodIdentifiers": {
					"CHALLENGER_ROLE()": "530adbb4",
					"PLAYER_ROLE()": "16c30ebc",
					"acceptBet(bytes32,bytes32)": "f4aa99df",
					"betCounter()": "a416f5ab",
					"declareDraw(bytes32)": "56fcb255",
					"escrowStorage(bytes32)": "a0946f92",
					"getCurrentBalance(bytes32)": "fffc7801",
					"oracleAddress()": "a89ae4ba",
					"owner()": "8da5cb5b",
					"releaseFunds(bytes32,address)": "7d25e89d",
					"renounceOwnership()": "715018a6",
					"storeTokens(bytes32,bytes32,address)": "6d4e0c8e",
					"transferOwnership(address)": "f2fde38b",
					"updateOracle(address)": "1cb44dfc"
				}
			},
			"storageLayout": {
				"storage": [
					{
						"astId": 158,
						"contract": "Escrow.sol:Escrow",
						"label": "_status",
						"offset": 0,
						"slot": "0",
						"type": "t_uint256"
					},
					{
						"astId": 8,
						"contract": "Escrow.sol:Escrow",
						"label": "_owner",
						"offset": 0,
						"slot": "1",
						"type": "t_address"
					},
					{
						"astId": 264,
						"contract": "Escrow.sol:Escrow",
						"label": "oracleAddress",
						"offset": 0,
						"slot": "2",
						"type": "t_address"
					},
					{
						"astId": 286,
						"contract": "Escrow.sol:Escrow",
						"label": "escrowStorage",
						"offset": 0,
						"slot": "3",
						"type": "t_mapping(t_bytes32,t_struct(Storage)281_storage)"
					},
					{
						"astId": 288,
						"contract": "Escrow.sol:Escrow",
						"label": "betCounter",
						"offset": 0,
						"slot": "4",
						"type": "t_uint256"
					}
				],
				"types": {
					"t_address": {
						"encoding": "inplace",
						"label": "address",
						"numberOfBytes": "20"
					},
					"t_bool": {
						"encoding": "inplace",
						"label": "bool",
						"numberOfBytes": "1"
					},
					"t_bytes32": {
						"encoding": "inplace",
						"label": "bytes32",
						"numberOfBytes": "32"
					},
					"t_mapping(t_bytes32,t_struct(Storage)281_storage)": {
						"encoding": "mapping",
						"key": "t_bytes32",
						"label": "mapping(bytes32 => struct Escrow.Storage)",
						"numberOfBytes": "32",
						"value": "t_struct(Storage)281_storage"
					},
					"t_struct(Storage)281_storage": {
						"encoding": "inplace",
						"label": "struct Escrow.Storage",
						"members": [
							{
								"astId": 266,
								"contract": "Escrow.sol:Escrow",
								"label": "matchId",
								"offset": 0,
								"slot": "0",
								"type": "t_bytes32"
							},
							{
								"astId": 268,
								"contract": "Escrow.sol:Escrow",
								"label": "player",
								"offset": 0,
								"slot": "1",
								"type": "t_address"
							},
							{
								"astId": 270,
								"contract": "Escrow.sol:Escrow",
								"label": "challenger",
								"offset": 0,
								"slot": "2",
								"type": "t_address"
							},
							{
								"astId": 272,
								"contract": "Escrow.sol:Escrow",
								"label": "choiceA",
								"offset": 0,
								"slot": "3",
								"type": "t_bytes32"
							},
							{
								"astId": 274,
								"contract": "Escrow.sol:Escrow",
								"label": "choiceB",
								"offset": 0,
								"slot": "4",
								"type": "t_bytes32"
							},
							{
								"astId": 276,
								"contract": "Escrow.sol:Escrow",
								"label": "totalAmount",
								"offset": 0,
								"slot": "5",
								"type": "t_uint128"
							},
							{
								"astId": 278,
								"contract": "Escrow.sol:Escrow",
								"label": "isActive",
								"offset": 16,
								"slot": "5",
								"type": "t_bool"
							},
							{
								"astId": 280,
								"contract": "Escrow.sol:Escrow",
								"label": "isResolved",
								"offset": 17,
								"slot": "5",
								"type": "t_bool"
							}
						],
						"numberOfBytes": "192"
					},
					"t_uint128": {
						"encoding": "inplace",
						"label": "uint128",
						"numberOfBytes": "16"
					},
					"t_uint256": {
						"encoding": "inplace",
						"label": "uint256",
						"numberOfBytes": "32"
					}
				}
			},
			"userdoc": {
				"kind": "user",
				"methods": {},
				"version": 1
			}
		}
	}
}